:020000041000EA
:1000000000B5324B212058609868022188439860DF
:10001000D860186158612E4B002199600221596106
:100020000121F02299502B49196001219960352056
:1000300000F044F80222904214D00621196600F024
:1000400034F8196E01211966002018661A6600F04E
:100050002CF8196E196E196E052000F02FF8012189
:100060000842F9D1002199601B49196000215960AB
:100070001A491B48016001219960EB211966A021F2
:10008000196600F012F800219960164914480160C1
:100090000121996001BC002800D000471248134993
:1000A000086003C880F30888084703B5996A0420EC
:1000B0000142FBD001200142F8D103BD02B5186610
:1000C0001866FFF7F2FF186E186E02BD00000240BE
:1000D000000000180000070000035F00212200005C
:1000E000F4000018222000A00001001008ED00E03C
:1000F00000000000000000000000000074B24E7A12
:1001000000200420F7010010C3010010C5010010F9
:10011000C1010010C1010010C1010010C101001097
:10012000C1010010C1010010C1010010C701001081
:10013000C1010010C1010010C9010010CB01001065
:10014000CD010010CD010010CD010010CD01001037
:10015000CD010010CD010010CD010010CD01001027
:10016000CD010010CD010010CD010010CD01001017
:10017000CD010010CD010010CD010010CD01001007
:10018000CD010010CD010010CD010010CD010010F7
:10019000CD010010CD010010CD010010CD010010E7
:1001A000CD010010CD010010CD010010CD010010D7
:1001B000CD010010CD010010CD010010CD010010C7
:1001C00000BE00BE00BE00BE00BE00BEEFF3058054
:1001D000103800BEF2EB88713CAD001068AD001025
:1001E0003402001090A31AE700201F49086006C8D7
:1001F00081F3088810471D48006800282FD10DA4FE
:100200000ECC002902D000F012F8F9E71849194A7B
:10021000002000E001C19142FCD1174988471749ED
:1002200088471749884700BEFDE701C901C29A42C5
:10023000FBD3704768AD0010C0000020541B0020A5
:10024000FCC70010000004206401042060C90010F5
:10025000001004200010042000000000704709482E
:1002600004F020F80047000008ED00E0000000D096
:10027000581B0020CC6A0120C1290010BD070010C6
:10028000E92A00105756000006005250ABB36053E5
:10029000E0A7001006005250861C0302F0A70010D1
:1002A000060052505422A29DFCA700100500525097
:1002B000DE65F46860C90010F8B5C046044B10B59F
:1002C000002B03D00349044800E000BF10BDC04626
:1002D000000000006C3C002030A60010F0B557462E
:1002E0004E464546DE46E0B5DF4989B007910968CC
:1002F000DE4B0D00A9461A6805935300CC009B18ED
:100300000691C1005B00081A0132D9490492DA1D36
:1003100001920A5C5F1D9446AA004A449E1D520247
:10032000A0461C0009330293BB189A460B560834AA
:10033000DB43DB17994606234D469D432B000733CD
:100340009946554603944C46CA4B5C559419A346AE
:10035000654640242540AA4665462C4201D0393CDA
:10036000A2465C4655461D55019C65461419A34698
:1003700020242540AA4665462C4201D0193CA246BD
:100380005C4655461D55039C65461419A34610242A
:100390002540AA4665462C4201D0093CA246554656
:1003A0005C461D55029C6546A14608242540AA4688
:1003B00065464A442C4201D0013CA24654469C5416
:1003C0000A18944652789146424601329400A0465B
:1003D00042449201BC18A0466446647864B2E44387
:1003E000E417A44606246546A5430134A246AC465C
:1003F000D444444665461D55B418A2464D46402493
:100400002540A8464D462C4201D0393CA0465446D2
:1004100045461D55019C4D46A418A2462024254062
:10042000A8464D462C4201D0193CA04654464546AC
:100430001D55039C4D46A418A24610242540A846ED
:100440004D462C4201D0093CA046544645461D5518
:10045000029C4D46A24608242540A8464D4692449B
:100460002C4201D0013CA046544645461D550C186F
:10047000A446A478BA46A046A0246400A1466446D7
:10048000A478914464B2E443E417A4460624654684
:10049000A5430134A346AC46CA44DC4454466546F1
:1004A0001D55402445462540B346AA464546CB4403
:1004B0002C4201D0393CA2465C4655461D55019D53
:1004C00020244D44AB4645462540AA4645462C428D
:1004D00001D0193CA2465C4655461D55039C454635
:1004E0004C44A34610242540AA4645462C4201D040
:1004F000093CA24655465C461D55029C4546A4460D
:1005000008242540AA464546E1442C4201D0013C3E
:10051000A2464C4655461D550C18A446E478BA46EA
:10052000A046A024A400A1466446E478914464B2A5
:10053000E443E417A44606246546A5430134A346D4
:10054000AC46CA44DC44544665461D5540244546E5
:100550002540B346AA464546CB442C4201D0393CFF
:10056000A2465C4655461D55019D20244D44AB4690
:1005700045462540AA4645462C4201D0193CA24694
:100580005C4655461D55039C45464C44A3461024E5
:100590002540AA4645462C4201D0093CA246554674
:1005A0005C461D55029C4546A44608242540AA46A3
:1005B0004546E1442C4201D0013CA2464C465546FA
:1005C0001D550C18A4462479BA46A046F024A40070
:1005D000A14664462479914464B2E443E417A446F6
:1005E00006246546A5430134A346AC46CA44DC4410
:1005F000544665461D55402445462540B346AA4607
:100600004546CB442C4201D0393CA2465C46554677
:100610001D55019D20244D44AB4645462540AA4624
:1006200045462C4201D0193CA2465C4655461D5514
:10063000039C45464C44A34610242540AA46454603
:100640002C4201D0093CA24655465C461D55029CF1
:100650004546A44608242540AA464546E1442C4286
:100660000AD0013CA24607E0BC6A0120B86A01201A
:10067000100E0020943E00204C4655461D550C1887
:10068000A4466479BA46A046A024E400A146644684
:100690006479914464B2E443E417A44606246546B1
:1006A000A5430134A346AC46CA44DC4454466546DF
:1006B0001D55402445462540B346AA464546CB44F1
:1006C0002C4201D0393CA2465C4655461D55019D41
:1006D00020244D44AB4645462540AA4645462C427B
:1006E00001D0193CA2465C4655461D55039C454623
:1006F0004C44A34610242540AA4645462C4201D02E
:10070000093CA24655465C461D55029C4546A446FA
:1007100008242540AA464546E1442C4201D0013C2C
:10072000A2464C4655461D55C82409188879897932
:10073000E40049B2C943A4460624C9176244A14350
:10074000BF180731D95540210F00B61807400142A4
:1007500000D0072701999F558D1820210E000640D3
:10076000014200D0072603995E558C1810210D0018
:100770000540014200D0072502991D558C460821ED
:100780000C0062440440014200D007249C54049BA6
:10079000342B08D0059A136009B0F0BCBB46B246B2
:1007A000A946A046F0BD0023059A069813601E21B5
:1007B000013003F0A9FD079B1960EDE7F0B5DE46B7
:1007C000454657464E46E0B50D2089B002F0CEF8BA
:1007D0000A2001F0D9F9924D07ABAC6A06AA2000B5
:1007E00005A900F0FFF9002803D121008D4802F08F
:1007F0007FF9079A0699059800F0B8F900F00CFB0C
:10080000894E2422300000214030356004F064FC21
:10081000864B0124F3630E230225F364043333650E
:10082000023B7365043BB3655033F454804B7464EE
:100830007366B56400F0D8FB070000F0D5FB390003
:100840000200300004F09AFF1F229046794A0023EC
:100850009446802252000427924677490EE0002AEF
:1008600036D1421E90414242604602407348814662
:100870004A4401330A800231534515D038002A001A
:1008800018401A401C42EAD0002A29D1421E904149
:10089000424240460240F8200002814601334A4469
:1008A0000A8002315345E9D1654E002431004131BF
:1008B000FF3133000A006348301810C39A42FCD15C
:1008C0004132FF320B0082420ED04131FF31F4E75A
:1008D000FC26F600B1465C4A0028CAD14A46C8E761
:1008E0005A4E5B4AB146F7E709F0E4F808F054FFC6
:1008F000584B1C6009F06CFE574804F013FF14209D
:1009000000F0B8FAD02380221B0652035A62534BE0
:1009100000249B46524B039307E05B46029A1A6001
:1009200001200021404207F075F9322001F02CF936
:100930005B461B68039A9C4612685B0092466246BF
:1009400063445B00013202929A1D904652461900A0
:100950004046920052445202B2185F1DDD1D08311C
:100960000933D455145454555454D4545246D000D9
:100970000130820012189201B01800924246B1462E
:10098000C4558454009A7519AC544132F719C144C6
:10099000FF324454C454BC5410004A461454A0229C
:1009A0007118F3182C5401930C541C54009B9200A2
:1009B00098184A463C541454019A2C540C5414541C
:1009C000F0229200981807224B463C541A542A549D
:1009D0000C54019B1C54A0230098DB00C0184B460C
:1009E0003C541A54019B2A540C541C54C823DB0059
:1009F00099464346009A4A44B018BC54C454019BDB
:100A0000AC548C549C546346332B86D15B46504681
:100A10001C601E21013003F077FC039B19607FE707
:100A2000700C002030A600109437002000002050E9
:100A3000E1000020EBEDFFFF843C002034120000B9
:100A4000943E0020402D0100FF070000E0FF000061
:100A5000FFFF0000683C0020C1000020B86A0120B0
:100A6000BC6A012070B504000D000A001048210086
:100A700004F0F8FC2900200008F0BAF901280AD097
:100A8000022800D070BD0B4804F0FAFB29002000BA
:100A900008F0BEF9F6E7084804F0F2FB074B29001E
:100AA0001C70074B20001D7008F0B2F9EAE7C04641
:100AB00064A60010C0A600109CA60010C66A012003
:100AC000C76A012010B5034B0A000100180004F0AA
:100AD000C9FC10BDE0A60010F8B504000D0016001A
:100AE00008F086F9012810D002280DD12900200035
:100AF00008F08EF9B37872783178174804F0B2FCB8
:100B00002900200008F084F9F8BD2900200008F031
:100B10007FF9B3781A1F602AF2D822213278114265
:100B20000ED00E4AD65C002EEAD00D4F3309F85C89
:100B3000FFF7D4FB0F233340F85CFFF7CFFBDFE771
:100B40001121114204D01A2B02D8064AD65CEAE7DA
:100B5000054AD65CE7E7C04618A7001088A9001030
:100B600030A70010F0A9001010AA0010F0B583B053
:100B700005000E00140000F09BF9002801D003B01E
:100B8000F0BD154F01223B0001210097053001F017
:100B9000A7FC33002A0000940121104801F094FEC4
:100BA00021002800714303F0D7FB04000C4B002206
:100BB00000930221042001F093FC23000022012174
:100BC0000094052001F08CFC3B00022200210097DC
:100BD000062001F085FCD2E7006CDC0200800240B8
:100BE000001BB700F0B54E464546DE465746E0B519
:100BF0001E00844B05009846A0235B009B46824B59
:100C0000D9469A4643468B4685B000930292039696
:100C1000009B53450DD901235B429C467B4AE1442E
:100C20009446009B634400934B460F2BF0D1002069
:100C30008FE01F00764B31219C466744380003F05B
:100C40008BFB07263124854264D0741EB0462E00EB
:100C5000250044466C433800210003F07DFB8642AA
:100C60004CD06B1E0193012D00D1B2E04346E41A33
:100C70002100380003F070FB864259D0AB1E01936F
:100C8000022D00D1B1E04346E41A2100380003F000
:100C900063FB864264D0EB1E0193032D66D043466E
:100CA000E41A2100380003F057FB864269D02B1F5D
:100CB0000193042D6BD04346E41A2100380003F061
:100CC0004BFB86426BD0052D6DD03800E11F03F041
:100CD00043FB864200D171E0062324213800984668
:100CE000242403F039FB864212D0052544466C4388
:100CF0003800210003F030FB8642B2D10029B0D188
:100D00005B462C00CB4647469946029A039E18E064
:100D1000350046462100380003F01EFB002994D11F
:100D200037005B463C00CB46029A9946039E08E09A
:100D30000029A3D15B464746CB469946029A039EBB
:100D4000019C5B463349012059434B4619601760AB
:100D5000346005B0F0BCBB46B246A946A046F0BD23
:100D60000029E7D0EB1E0193032D98D1032309211D
:100D700038009846092403F0EFFA8642C8D00225CD
:100D800067E70029D6D02B1F0193042D93D10423AC
:100D9000102498463B099E42BAD0032559E7002902
:100DA000C8D0052D91D119213800192403F0D4FAA7
:100DB000B04223D00523042598464AE7002900D0F5
:100DC0008AE75B464746CB4601249946029A039E32
:100DD000B7E73500B74200D01DE75B460127CB4699
:100DE00001249946029A039EABE702230424984605
:100DF000BB089E4200D18BE701252AE73500052676
:100E000088E7C04650262F0050F80C0020D1FFFF85
:100E1000B0710B00001BB70010B504F0F7FB10BD5C
:100E2000094A10B594464024830063441A68C00000
:100E30006240803414408022520113431C60034BF3
:100E40009C466044416010BD04C001400040014028
:100E5000074BC0009C466044036809025940C02308
:100E60009B00194080235B01034319607047C04613
:100E7000044001400123D022834012069362936113
:100E8000094A40219446830063441A68C0004A40DE
:100E9000803111408022520113431960034B9C465C
:100EA000052360444360704704C001400040014096
:100EB000024B18688007C00F7047C04600C006404C
:100EC000EFF3108072B6034A1368002BFCD0BFF317
:100ED0005F8F70472C0100D0BFF35F8F0022024B61
:100EE0001A6080F3108870472C0100D070B5EFF3C2
:100EF000108C72B60D4D2B68002BFCD0BFF35F8FAA
:100F00000724CB08C618C05C01230C40A3401C007A
:100F10000440034207D118433070BFF35F8F2C6049
:100F20008CF3108870BD100001F0E2FD2C0100D0A0
:100F3000F8B54746CE46884680B5EFF3108C72B6BA
:100F4000214D2C68002CFCD0BFF35F8F9A422CD827
:100F5000D4080727055D061901241740BC402C4220
:100F60001FD007210127894609E0D408055D06192D
:100F70004C4639001440A1400C00294211D00132E6
:100F80009342F2D201204042BFF35F8F00220E4B0A
:100F90001A608CF3108800280FDBC0BCB946B0463D
:100FA000F8BD254310003570EEE7BFF35F8F0023D7
:100FB0002B608CF31088012040424346002BECD07C
:100FC000089801F095FDC0462C0100D00021044B8B
:100FD000044ABFF35F8F02C39342FAD17047C04601
:100FE000000100D0800100D0044A1078431CDBB21D
:100FF000172B00D9102313707047C046101500201E
:1010000010B5064B064C82B00100009318221F2336
:101010002000FFF78DFF02B010BDC04644A70010AE
:101020004437002001238340002904D0034A136081
:10103000034A13607047034A1360FBE780E200E055
:1010400000E100E080E100E001228240034B1B68E8
:1010500013405A1E9341D8B27047C04600E100E0E9
:10106000024B10309B688000C058704700ED00E0D4
:1010700070B50D00EFF3108672B60F4A1368002B9F
:10108000FCD0BFF35F8F0D4B10309B6884001B5961
:101090000B4A934203D09D4201D001F041FD074B22
:1010A0009B681D51BFF35F8FBFF35F8F0022024B20
:1010B0001A6086F3108870BD240100D000ED00E0B6
:1010C000CD010010F0B557464E46DE464546E0B528
:1010D00085B0060000911700EFF3108B72B66A4AD4
:1010E0001368002BFCD0BFF35F8F0025674B5D5763
:1010F0009A46002D00DAA9E06B00654C01935B195C
:101100009B009846A146C1444B4652469B791036F7
:101110001370604BB6009B6899590B1B2F2B33D96A
:101120005D4B994200D0ACE0019B42469C465B4B34
:101130006544AD0063535A4B0232A218043B9B1A1C
:101140001B05584A5B0D651913436B80564B0121F3
:10115000AB80FF23AB71009BEF71AB604B460B4341
:1011600019004C4B9B689951BFF35F8FBFF35F8FA2
:101170000022454B1A608BF3108805B0F0BCBB46CB
:10118000B246A946A046F0BD01200A008243D379A9
:101190008C46BB4231D84546130044491B1B5B417A
:1011A0005943090D3D4B63533D4B02356519043BD3
:1011B0005B1B1B053B4D5B0D2B43AA464D466B80CD
:1011C0000425AC465546E044131F44441B1B1B0535
:1011D0005B0D1D434B46997100999D80996049466E
:1011E000DF71334B01431360BBE75800C018800028
:1011F0002018C179B9422FD902000623D356002BFB
:10120000F3DA02932B4B61460393131D9A46042392
:101210005B429C46E14450464B461B1A1B055B0D46
:101220009C46204B95719846634640460343938005
:10123000019B5A199200039BA418A380029B1C4A8D
:10124000A371009B2260E771A3608AE701F068FC4C
:10125000002553465D574FE7908802934005131DC4
:101260009A46031561469C464046D4446346043082
:101270002018181AE0230005400D1B0218430390A4
:10128000C5E701F04DFC4FE7240100D0C56A0120FD
:101290001415002000ED00E0CD01001000A1FFFFBB
:1012A0004415002000E0FFFF01BDFFFFAAAA0000D7
:1012B0000148804701BD0000F0B5DE4657464E4666
:1012C0004546E0B50C0083B0EFF3108872B65D4A76
:1012D0001368002BFCD0BFF35F8F5B4B5B499A68B0
:1012E000030010339F00D5598D4239D0A5424AD012
:1012F000574EAA1B2F2A33D801229246824091468C
:101300004846544A1268104001904846524A1060BC
:10131000BFF35F8FEFF305829346002A35D09342E7
:1013200001D001F0FDFB2A0053469A4390688442A5
:1013300008D175E04B005B189B00F3189868A04239
:1013400034D01A00062151560029F3DA844253D0D2
:10135000019B002B26D04A46404B1A603D4B1A6039
:10136000394B9B68DD51BFF35F8FBFF35F8F002266
:10137000344B1A6088F3108803B0F0BCBB46B24609
:10138000A946A046F0BD0D00EAE72A0053469A435D
:1013900090688442D6D1062010561300002809DA3E
:1013A0000D0031E04A462C4B1A60D9E7062018564A
:1013B000002822DB42001118890074188A46A168AF
:1013C0009960E179D971062161569971002925DB6F
:1013D000A488F11A6405241554440919E024090568
:1013E000490D24022143998013181D4A9B0011784E
:1013F000F31899711070ABE713005946002914D106
:10140000FF3191711749918015490A789A71164AEE
:101410009B1B5B415A43120D0A7099E71349E2E79F
:101420000620105613000028C4DA114A1149D21AB6
:10143000083A5002400D014399800F4952080A436F
:10144000DA8085E7240100D000ED00E0CD01001036
:101450001415002000E100E080E100E080E200E0FF
:10146000C56A012001BDFFFFAAAA000001BD00005E
:101470004E15002000F0FFFF00F8FFFF70B5EFF3FE
:10148000058101240443EFF3108C72B6214A1368DE
:10149000002BFCD0BFF35F8F1F4B05001F4AED1AD6
:1014A0006D416A43120D1E4D8900AE6852B27658E6
:1014B000A6421CD00621595691421CD012215956E1
:1014C000914222D01E215956914220D02A215956AC
:1014D0000324914210D0134B19781A708171BFF315
:1014E0005F8F00220B4B1A608CF3108870BDAB68C5
:1014F0000D4C5C50EFE700246100091989005B186E
:10150000FF21997109499980E5E70124F4E7022454
:10151000F2E7C046240100D014150020AAAA00005A
:1015200000ED00E0C56A0120CD01001001BDFFFF04
:10153000054B064A1360064A136053609360D360FC
:1015400013615361936170478080808000E400E004
:1015500004E400E0024B9C4661448900016070474E
:101560004000003410B50400FFF73EFD01002000EC
:10157000FFF7F0FFFF232371BFF35F8F10BDC0465D
:1015800010B50400FFF730FD01002000FFF7E2FF77
:10159000FF23A380BFF35F8F10BDC04610B50400CA
:1015A0000120FFF72DFD034BC3189B002360BFF301
:1015B0005F8F10BD4000003483680B4810B584462F
:1015C000614462441201090159189B185C684A6819
:1015D0000120944201D802D00020C0B210BD1A6888
:1015E0000B689A42F9D8F7E7FFFFFF0F0A4B19681B
:1015F000EFF3108072B60A68002AFCD0BFF35F8F49
:101600001B68BFF35F8F00221A6080F3108840BF11
:10161000002000217047C046986A0120F8B557465F
:1016200045464E46DE46E0B598460CAB1C780DAB01
:101630001B78070091469A460568002C59D1AC7B6F
:10164000002C3BD0660029683619033E89194B7877
:10165000AB73002B00D1EB7300238B704B700B70BE
:101660002D4BE218BB6812019B184A461A6042468D
:101670005A600A9A9A600B9ADA6000238B704B705A
:101680000B706B7B9B46002B26D022006B68594663
:10169000A86898475B465B005B442A68033B0028C8
:1016A00012D058469619B070D118D35C002B00D0D8
:1016B00073705B460C706B735C450ED0F0BCBB4620
:1016C000B246A946A046F8BDD3189C709119925D08
:1016D000002A1CD15B460B706C734A464346387D2A
:1016E00000F0D2FB051E0AD10E9B002BE6D01D7028
:1016F000E4E7660029683619033E8919B0E75346C6
:10170000002BF1D12100386800F0D6FDECE75A70CB
:101710005B460B706C73E0E7FFFFFF0FF0B5DE4632
:1017200057464E4645460023E0B58BB00893684BBC
:101730008200D45800239B46099000F011FB020060
:101740000B006068EFF3108A72B6564601680029F4
:10175000FCD0B246BFF35F8F21684F7B8C46002FD1
:101760002ED0A5685B49A9467918090189444946E4
:101770000868496805000E00AD1A9E41002E5FDD25
:1017800002000B00099800F07FFB0023002299461D
:10179000002306920793002398466368BFF35F8F88
:1017A0005A461A608AF310884346002B12D100284B
:1017B000C3D10BB0F0BCBB46B246A946A046F0BDB3
:1017C000002300229946002306920793002300205D
:1017D0009846E2E7089B494618023843C0476268CA
:1017E00005000E00EFF3108A72B61368002BFCD0D0
:1017F000BFF35F8F002E41DB2B00334302D0236900
:10180000002B56D12368D97B002905D01A684800DF
:1018100041185218033A57709A7B002A00D19F73DF
:10182000DF73E268013FD35D0133D3555B4623612B
:101830006368BFF35F8F5A461A608AF310887CE7AB
:10184000002E02D1002D00D09AE70021604600F062
:10185000B1FC4B461A685B68069207934B469B683F
:1018600098464B46DB689946E368DB19013B1B78D9
:1018700008931B020343236100208EE72369002B9A
:10188000C0D0069A079B8021521BB34109068B42A8
:1018900002D30122104B52420021049101310391E5
:1018A000494601914146200002970091FFF7B6FE9C
:1018B000BCE700F055FA2A00330012184B41802192
:1018C00009068B42E8D30122034B5242E4E7C046AB
:1018D000843E0020FFFFFF0FFFFFFF7F10B5144C79
:1018E0006368002B04D00A211248FFF733FE10BDB5
:1018F0002300114A1021206800F078FB032000F03B
:1019000023FA032000F028FB03200C4900F076FAAC
:10191000FFF76AFB0A4B9C4603232375D0231B0663
:101920001B6860446375074B80006060DC60DAE729
:101930005C150020986A0120B91500101D170010D1
:1019400040000034843E0020F0B557464E464546E0
:10195000DE46E0B585B0019310AB1B78060003931B
:1019600000239A46984600927268EFF3108B72B685
:101970001368002BFCD0BFF35F8F3568AC7B002C65
:1019800000D16EE067002B683F19033FDB195A78DE
:10199000AA73002A00D1EA73484AA118B268090163
:1019A000521800980199106051600E9991600F993A
:1019B000D16042469A705A701A706B7B9946002B20
:1019C00000D16BE022006B684946A86898474B46F7
:1019D0005B004B442A68033B002856D04846D71981
:1019E000B870D118D35C002B00D07B704B460C70C4
:1019F0006B734C4553D0F3681B19013B187873681F
:101A0000BFF35F8F42461A608BF310885346002B5A
:101A100008D10002204305B0F0BCBB46B246A9463F
:101A2000A046F0BD039B002B46D00E9B00200F99D3
:101A3000984703000B433FD004000D1E1ADA009AAA
:101A4000019B121BAB41009201938022120693422C
:101A500004D301231A4C5B4200930194039B9A46E2
:101A600082E77368BFF35F8F1C608BF310880120DF
:101A70004042D0E700F074F9802200196941120653
:101A8000009001919142E9D3E3E7D3189C70D119FA
:101A9000D25D002A00D05A704B460B706C73307DBB
:101AA000009A019B00F0F0F982460028A3D02100A3
:101AB000306800F001FC9EE70020ACE7FFFFFF0F5D
:101AC000FFFFFF7FF0B504000D0006267642F717F2
:101AD000C64636196F4100B584B08F4214D811D074
:101AE00000F03EF932003B00121A8B41002B15DC4E
:101AF000002B3ED02000290000F070F904B080BC1B
:101B0000B846F0BD8642EBD90026002700F028F940
:101B100032003B00121A8B41002BE9DD00230293B7
:101B20000193154B3200009314483B00FFF70CFF64
:101B30000028DFDB00239846BC46114A114F7B6A20
:101B40009C4504D8B96A8E42D4D99C45D2D111683B
:101B5000EFF3108072B60B68002BFCD0BFF35F8FE1
:101B60001368BFF35F8F4146196080F3108820BF70
:101B7000E5E7002ABED0D1E7ED1500105C15002086
:101B8000986A01200040054070B5060000F0E8F8B2
:101B9000FA2204000D00002330000021920003F01F
:101BA000F3F98023001969411B06994202D30120F1
:101BB00002494042FFF786FF70BDC046FFFFFF7F2E
:101BC000F0B5EFF30583CE46474680B505000C001F
:101BD00085B0002B12D02A4A0020536AA34203D3B7
:101BE000926A0130AA4204D305B0C0BCB946B046DF
:101BF000F0BD1B1B5A1E9341D8B2F5E7214E02934C
:101C00000193214B0200009330000B00FFF79CFE74
:101C1000031EE0DD20BF7168EFF3108772B60A681B
:101C2000002AFCD0BFF35F8FDAB29446FF223068FF
:101C30001A40417B61450FD00168894651008846B2
:101C400049469044414403398978002904D13269D6
:101C5000934209D1316107E0F1681B0A8A18013A01
:101C60001278DBB29A4207D07368BFF35F8F00220D
:101C70001A6087F31088AEE7614600F01DFBF3E7BA
:101C8000004005405C150020ED150010F0B5EFF3A5
:101C90000582D6464F4646461000C0B51038EFF3D1
:101CA000108872B6214C2368002BFCD0BFF35F8FE5
:101CB0000123190081401E4D1F006963AA461D4D76
:101CC00029601D4D2E78AC463500C5402F402B4273
:101CD00015D053465F6A194B8500EB589F4218D3C5
:101CE0006246174B8E43EB581670BFF35F8F00228E
:101CF000226088F31088002B06D0984704E0BFF3D9
:101D00005F8F276088F31088E0BCBA46B146A846CA
:101D1000F0BD0C4B92009C46624413681360BFF305
:101D20005F8F0023236088F31088EDE7280100D03F
:101D3000004005403C700540C86A01209C6A0120B3
:101D40002C320020D03F054010B5034B0100180095
:101D5000024AFFF7CBF810BDC26A012060A700104D
:101D6000034B596A0A00986A596A8A42FAD1704745
:101D70000040054070B504000D00174A536A190071
:101D8000966A536A8B42FAD13000190024184D41EB
:101D9000AB4216D813D0104B2A005B6A9D4203D980
:101DA0000D494B6A9342FCD3934207D10A4A02E0A1
:101DB000516A994202D1916AA142F9D370BDA642FB
:101DC000E9D9054B5B6A1C005A1CEFD001220124A3
:101DD0006442E5175242E3E700400540064A536A71
:101DE0009942FCD807D1044B02E05A6A914202D1D1
:101DF0009A6A8242F9D370470040054070B50400EA
:101E00000D00EFF3108672B61A4A1368002BFCD04F
:101E1000BFF35F8F002D1BD02000FFF721F916497B
:101E200081420AD02000FFF723F901212000FFF7AB
:101E3000F9F80123A340114A1360114BA400E550A7
:101E4000BFF35F8F00220B4B1A6086F3108870BDC2
:101E50000121A1400A4BA200D5500A4B20001A785C
:101E60008A4305491A70FFF727FA00212000FFF77F
:101E7000D9F8E5E7280100D08D1C00103860054036
:101E80002C320020C86A0120F0B54F46D64646469F
:101E9000C0B507002B4C616A0D00A66A616AA942B1
:101EA000FAD18B4208D805D00120E0BCBA46B14631
:101EB000A846F0BDB242F7D9EFF3108A72B62248B5
:101EC00001680029FCD0BFF35F8F0125BD401F4989
:101ED0001C4C8846097889462943C9B28C4641463C
:101EE00060460870391D890065630A511849B800B9
:101EF0004350216A0020294219D0616A0800A66A6D
:101F0000616A8142FAD18B4219D801D1B24216D806
:101F1000CC450BD00B4B1F221D625D6301233A4061
:101F200093400C4A136043464A461A700120BFF39F
:101F30005F8F0022044B1A608AF31088B5E70020F7
:101F4000F5E7C04600400540280100D0C86A0120DE
:101F50009C6A012080E200E0EFF3108C72B60A491F
:101F60000B68002BFCD0BFF35F8F01238340074A2F
:101F70000748136202789A430270BFF35F8F002311
:101F80000B608CF310887047280100D0004005409A
:101F9000C86A012070B506000D00140000291DD08C
:101FA000002A12D073688068984762006B0012198B
:101FB0005B193168033A033B002808D08A189570F2
:101FC000C818CB5C002B0BD10470280070BDCB1857
:101FD0009C7088188A5C002A05D105702000F5E7FE
:101FE00053700470F1E75A700570F7E710B583601D
:101FF0000023CCB243730133426004738373C47310
:102000000068421C012C05D90133DBB21370033286
:102010009C42F9D1FF230B405A00D318C01800236B
:102020000338437010BDC04670B505000C1E07D0C4
:10203000630001681B19033BCB185A78002A01D1B1
:10204000200070BD500080180338091800204E7819
:102050004870210058702800FFF79CFF31000400F1
:102060002800FFF7E1FF0600002C20D00028E7D071
:10207000320021006B68A8689847720063009219CB
:102080001B192968033A033B002808D08A1894706A
:10209000C818CB5C002B00D053700670D0E7CB186B
:1020A0009E7088188A5C002A00D05A700470340030
:1020B000C6E7C046F0B557464546DE464E46E0B553
:1020C0000D006F0001687F19033F0400C85D83B0F5
:1020D0000192CA19002850D043001B18033BCB18AB
:1020E0005E78B446002E1AD1019E002E42D0E67BC7
:1020F000002E04D073009B19CB18033B5D70A37BAB
:10210000002B00D1A573E57300282FD10023537055
:1021100003B0F0BCBB46B246A946A046F0BD720073
:102120006244033A8A1851788846002151708946E2
:102130005970320001002000FFF72CFF4346824611
:10214000002B07D05B0021684344033BCB185A782F
:10215000002A16D1424651462000FFF71BFF216896
:10216000019BCA19002BC2D10028CFD043001B18F5
:10217000033BCB1800219970C8E7019B002BB6D117
:10218000C4E7500080180338091848788346484649
:102190004870587041462000FFF7FCFE59468046C3
:1021A0002000FFF741FF414602002000FFF7F2FE4A
:1021B0008046CFE7F0B557464546DE464E46E0B589
:1021C00083B00191457B04006F0000687F19033FD5
:1021D000C15DC219002952D04B005B18033BC318E4
:1021E0005E78B446002E1CD1019E002E44D0E67BC2
:1021F000002E04D073009B19C318033B5D70A37BB2
:10220000002B00D1A573E573002931D100232800EC
:102210005370617303B0F0BCBB46B246A946A046FA
:10222000F0BD72006244033A821850788046002064
:1022300050708146587032002000FFF7ABFE4346D5
:102240008246002B07D05B0021684344033BCB1838
:102250005A78002A17D1424651462000FFF79AFECD
:10226000019B01002068C219002BC0D10029CDD0EC
:102270004B005B18033BC31800209870C6E7019B16
:10228000002BB4D1C2E750008018033809184878F1
:10229000834648464870587041462000FFF77AFE52
:1022A000594680462000FFF7BFFE4146020020004D
:1022B000FFF770FE8046CEE770B5050000292CD0F0
:1022C000437B8B422ED04C0000686418033C0419F9
:1022D000A278002A21D053009B18033BC25CC61889
:1022E0008A4202D11BE0002A08D053009B18033B0E
:1022F000C3185A788A42F6D162785A7000230122B4
:102300002800A3706370FFF7D5FE697B02002800E8
:10231000FFF740FE6873012000E0002070BD637885
:102320003370EBE701221900FFF7C4FEF2E7C04665
:1023300070B516000D0019000400FFF70BF9290015
:10234000701C02F0A1FE0023E681A5816060A360FD
:1023500070BDC046F8B5CE464746040080B506209D
:102360000D0000F0ABFA061E53D0534B5349E3184F
:102370005A1E93418022120494465B429B0D504AA0
:102380009B05634413604F4A136018008A689043AA
:10239000FBD1494B4C4AE31859424B4180215B0029
:1023A00049000620995200F089FA2900C00001F086
:1023B000D3FFC30932D14022012190466162A3625A
:1023C000266BF30736D427008025E36A00232C37D9
:1023D0006D013D432B600620266300F06FFA4146F5
:1023E000800001F0B9FF236B06009846DB073BD461
:1023F0006023E26A5A400E3313402B604346236346
:10240000802310229B013B431A60304B236303233C
:10241000A3643000C0BCB946B046F8BD2C4A934214
:102420003FD900232B492C4A6162A362266B904658
:10243000F307C8D52200C02330329B011343234A3F
:1024400006201A60656AA36AAD01ED1800F036FA3D
:10245000224901F081FFAD020100280001F07CFF5C
:102460000021FFF787FCAEE72200C02330329B013A
:102470001343164A06201A60636AA26A9B019946B2
:10248000914400F01BFA4B4614499B02994601F017
:1024900063FF0100484601F05FFF0021FFF76AFC7F
:1024A000A6E77F22990188460240013252081900AE
:1024B0009044130082E7C0460080FCBF00C000408B
:1024C00000E0004000F00040AC6A01200103000081
:1024D000FEFF0000FFFF0000C0FF3F004E0E0000A7
:1024E000F0B545464E46DE465746E0B583B0160089
:1024F0000C9A050088469A4200D975E01A0E934658
:102500001B0218000193594600230C9A01F062FF48
:10251000364B6C009C466419A40064446368070051
:10252000834200D260602B1FDBB29946012B36D963
:10253000C02380229B01234312011A602C4BAD0063
:1025400059599A46002907D0586901F005FF013012
:1025500043001B18033BFDD2226873015340E02265
:102560001A4080235B0123431A604A46012A2ED970
:10257000802380229B01234312011A6059460023C5
:102580003A000198676001F025FF53465851012039
:1025900003B0F0BCBB46B246A946A046F0BD4346D8
:1025A000012BC5D1C02303229B0123431A60023AA9
:1025B000A3681A42FCD0226873015340E0221A40FB
:1025C00080235B0123431A60094AAD0092464246CC
:1025D0002168514003220A401A60012243469A4072
:1025E000A3681A42FCD0C3E70020D1E70080004076
:1025F000581B002010B50C2082B000F0C5F9FEF782
:1026000057FC002810D08B4B8B488B498B4A1860A5
:1026100059609860D960186159619861D9611862F0
:1026200059625A6202B010BD854CA06700F0B4F93F
:102630000122844B1A60636C012BFCD10322824B74
:102640001A607F4A936B012BFCD1013301217F4A31
:102650007F480093043300F037F905237D4A009347
:1026600001217D4800F030F97C4B5A68FF2A02D8DE
:10267000802252005A608022734B6E4C12011A6005
:102680002169002907D0606901F066FE013043002E
:102690001B18033BFDD2E022704B714819680A40B9
:1026A000026002221968514001320A40042102608E
:1026B0009A681142FCD080216A4A09011160802287
:1026C00052005A60684B2361684B5968FF2900D853
:1026D0005A60032201215B4B1A60644A93681942D5
:1026E000FCD0E023106803406148036012680323B4
:1026F0004A40022113405D4A036093681942FCD0AE
:1027000080215C4B0901196080215B4B49005160BD
:1027100063615A4B5A68FF2A00D859608022584B8F
:1027200012011A60E169002907D0606901F014FE06
:10273000013043001B18033BFDD2E0234F4A1168D0
:102740000B4050490B6080214F4B090119608021DB
:10275000394B49005160E3614C4B5A68FF2A00D85D
:10276000596080224A4B12011A60216A002907D061
:10277000606901F0F1FD013043001B18033BFDD2FD
:10278000E023424A11680B4042490B608021424BD2
:102790000901196080235B0053608022264BD2021E
:1027A00023623E4B5968914200D25A6080223C4BD2
:1027B00012011A60616A002907D0606901F0CCFD3E
:1027C000013043001B18033BFDD2E023334A11685C
:1027D0000B4034490B608021334B09011960802381
:1027E000DB025360154B6362304B5A68FF2A02D8F4
:1027F000802252005A6080222D4B12011A60A1697A
:10280000002907D0606901F0A7FD013043001B18C3
:10281000033BFDD2E023254A11680B4025490B609C
:102820008021254B0901196080235B005360124B06
:10283000A361F7E6581B0020006CDC021BB7000008
:10284000008000403CB0004030B00040002F68598C
:1028500000800240008C864700C00240308000406B
:102860003090004030A00040001BB7003C8000408A
:102870003C9000403CA00040405973075480004009
:1028800054B000405490004054A00040608000408C
:1028900060B000406090004060A000406C8000404C
:1028A0006CB000406C9000406CA00040488000403C
:1028B00048B000404890004048A00040014B8000D4
:1028C000C0587047581B0020F8B5040022481E006D
:1028D00017000D0001F040FD0100380001F03CFD43
:1028E000069B36041B031E432368002B22DB1B4B75
:1028F0001B49E3185A1E93418022920194465B4281
:102900001B0B184A1B0363441360174A13601F0014
:102910008A689743FBD1C022231D92011A432123C9
:102920002560A06013602368002BFCDA0823E660B2
:102930001360F8BD3F2322681340AB42D7D1A36890
:102940001B051B0D8342D2D1EE22E368D202134055
:10295000B342CCD1EDE7C046001BB7000040FDBF3D
:1029600000C0004000E0004000F00040044B0001C7
:102970001B68044A5840F023034013607047C04668
:1029800000400640005006408023024A9B0003435B
:10299000D362704700800540AA23064A1B011360DA
:1029A0002F230549D360054B19605368002BFCDACF
:1029B0007047C0460040024000B0FA00006002408C
:1029C0002C4B2D4A70B51A602C4A2D4B2D491A609C
:1029D00014008B689C43FBD12B4D2C4EB54208D282
:1029E000013E761BB60808CD984723000134B34258
:1029F000F9D1FFF7FFFD264A214B1A60214A93685F
:102A0000DB43DB01DD09002BF9D14022214B224CB5
:102A1000224E9A675A671A67DA66B44208D2236868
:102A20002000002B20D00834FEF7AAFDB442F6D3D4
:102A30001B4C1C4EC022B168200002F053FBB46056
:102A4000FEF7C4FAFEF774FDFEF748FF164C174E6A
:102A5000B44208D2013E361BB60808CC98472B007A
:102A600001359E42F9D170BD0834FEF77BFDB442BA
:102A7000D5D3DDE700E00040BFCDFBFEFE7F3C008C
:102A800000F0004000C000403C1B00204C1B002018
:102A9000FFFFFF0100F001402C1B00203C1B002029
:102AA0000000002000ED00E04C1B0020541B002023
:102AB00000BEFDE7094A03001068002805D0084958
:102AC000C3188B4207D81360704706480449C318DF
:102AD00010608B42F7D901204042F5E7543C0020BA
:102AE00000000420CC6A012010B5FFF7E1FFC046CA
:102AF0000FB400B5084883B002F0C2FB049B002B62
:102B000007D005A91800019101F0A6FB034802F0C7
:102B1000B7FB0120FFF7CCFF84A7001014A700101B
:102B200010B50148FFF7E4FF94A700107047C046B6
:102B3000F8B55746DE464E464546E0B599460A9BEF
:102B400007009A460D9B884693460B9C9B073BD1FA
:102B50000C9B9C423DD21E1B0B9415000C005E4446
:102B60002A004B46013521002020B847B542F7D155
:102B7000A0460B9C002C20D0454636195346321BEC
:102B8000013C185D29004B46B847002CF6D12B00BC
:102B9000350098460D9B9B070FD55B46EC1A0C9BA6
:102BA000A3420AD9464698462A004B4631002020C7
:102BB0000134B84701354445F6D32800F0BCBB4684
:102BC000B246A946A046F8BD16001500002CD3D188
:102BD000E0E71600002CCFD11500EEE7F0B54F4628
:102BE0004646D646C0B584B098460EAB1B78944690
:102BF0009946129B0D9C109F119E9A0725D4002E7A
:102C000065D1BC4221D201221A409246202C00D12B
:102C1000E9E00C9A551E302202E0202C00D17BE026
:102C200001342A55A742F8D85246002A0DD0B442A2
:102C30000BD20C9A551E3022202C02D171E0202C90
:102C40002DD001342A55B442F9D1DA063CD55A05C3
:102C50002ED4002C28D10F9A102A00D1B6E0022AD7
:102C600000D1BCE030220C9C227001244A46002A8C
:102C700065D15A0700D499E02B220C9D2A550134C6
:102C800003930C9B62460093029643460194FFF720
:102C90004FFF04B0E0BCBA46B146A846F0BD2024C0
:102CA000DA06EDD55A0503D4A74266D0B44264D003
:102CB0000F9A102A71D0022A57D0202CE0D022007F
:102CC000013430250C9FBD54202CD9D0CEE70122F1
:102CD00015001D40AA461A4236D04A46002A4AD15B
:102CE0000C321A4247D1BC42A1D2202C91D1202EC5
:102CF00017D82024DA06C3D55A051BD4202F01D0BB
:102D0000202ED5D11F220F9D102D6FD0022DD8D18E
:102D100062250C9FBD54D0E75246002A79D0202E60
:102D2000BDD92024DA06ABD55A0503D4202FE9D02B
:102D3000202EE7D00F9A102AA2D12024A0E72D221E
:102D40000C9D2A5501349BE7BC4200D37DE7202C23
:102D500000D05EE7DA06F0D55A05EED4202F62D017
:102D6000202EEAD134001F22CDE7202C00D187E7A6
:102D700022000134CCE7013EB5E7621E012CC2D12E
:102D80000F9A102A00D06AE79A063BD558220C9C6D
:102D90002270283A6270022468E79A060ED4202C2A
:102DA000CBD078220C9D2A55013486E71A0700D42F
:102DB00066E720220C9D2A55013461E7202CBCD007
:102DC00058250C9A12191570013476E79A0608D521
:102DD00058220C9C227030226270022446E7603236
:102DE000F7E77822F5E7002A83D1B3E7A21E013C7A
:102DF0009D0603D478250C9FBD5460E758250C9F91
:102E0000BD545CE778220C9C2270483A6270022420
:102E10002CE7DA0600D433E75A058BD4202F00D0F4
:102E200044E71F226FE73C001F226CE710B5002823
:102E300000D110BD02F0D8F9FBE7C0460B0010B579
:102E4000002802D049681B68984710BDF0B5574666
:102E50004E464546DE46E0B599B0824689469046E4
:102E60000893229A239B1000190001F036FD0028D8
:102E700000D0CDE0229823990122D94B524201F093
:102E800027FD002800D0C3E0229823990122D54BCA
:102E9000524201F00FFD002800D0B9E0229823999A
:102EA0000022002301F006FD002800D0F1E1229E5F
:102EB000239F8023269ADB001A400D92269A1A42FD
:102EC00001D1062324938023269A1B011A403B003C
:102ED00093460996334300D0B3E0002A00D0C2E104
:102EE000002300240A930B94002304250993259BB7
:102EF0000024AB4200D95C1B0223269A1A400C9294
:102F0000269A134203D06B426B415B421C40099BE3
:102F1000002B07D00A9A0B9B3000390001F069FCA6
:102F200006000F00229823990022002301F0C2FC22
:102F3000002803D0802109067B181F00269AAA4B7F
:102F4000009601971340089E0493249B03940293D8
:102F5000424633004946504600F0AAF90400002DCD
:102F600067D02020269A4946024013005A42534116
:102F70005B42621C18400A92330022004530D04761
:102F8000099A6F1ED317D4185C40D30F9B460025B7
:102F900001E0202D13D008AA94461F23200063448B
:102FA0000A2101355E1901F0D7F930313170200066
:102FB0000A2101F0D1F926000400092EE9D80523E1
:102FC0000693002304930A3303935B46089E0293FF
:102FD00010AB0A9A00934946330050460597019575
:102FE000FFF7FCFD0C9A0400002A22D04246851A05
:102FF000259AAA421DD9B0465746160022004346DC
:10300000494620200135B8470134AE42F6D810E0D9
:10301000269B42460493259B49460393249B504696
:103020000293229B239C00930194089B00F040F99B
:103030000400200019B0F0BCBB46B246A946A04629
:10304000F0BD6A4B78009C46400D604401F058FC8E
:10305000674A684B01F0EBFB674A684B01F0C0FB25
:10306000674A3B031B0B1A4304000D00099811002B
:10307000644B002201F0ABFB634A644B01F0D7FBC9
:1030800002000B002000290001F0AAFB01F050FC17
:10309000099001F035FC5E4A5E4B04000D0001F022
:1030A000C6FB00225C4B01F09BFB01F041FC5B4A3C
:1030B0005B4B29000C90200001F0B9FB04000C9838
:1030C0000D0001F01DFC574A574B01F0B0FB020008
:1030D0000B002000290001F07AFB04000D00020023
:1030E0000B000A940B9501F0A2FB04000D000A9856
:1030F0000B9902000B0001F073FB00220E900F9160
:103100004A4B2000290001F074FB0022484B01F0DB
:1031100067FB02000B002000290001F06AFB00227F
:10312000444B01F05DFB02000B002000290001F080
:1031300060FB0A9A0B9B0D0080210400C90500204A
:1031400001F045FB02000B002000290001F048FBC4
:1031500002000B000E980F9901F04BFB0022284B48
:1031600001F03EFB344B0C9C9C466444230500223A
:1031700001F05DFB04000D0002000B00300039007F
:103180000A940B9501F096FB00285DD123002A00DC
:10319000C625099963318D42AD4159466D420435CA
:1031A000002900D1A3E6134363D030003900234A3D
:1031B000234B01F085FB002807D0002230003900A6
:1031C000204B01F077FB002853D1249B002B00D12A
:1031D0008DE60D9B5A1E9341249AD31A249386E6BA
:1031E000FFFFEF7FFFFFEFFFFFF7FFFF01FCFFFF98
:1031F000FB799F501344D33FB3C8608B288AC63FE6
:103200000000F03F0000F83F61436F63A787D23FA3
:1032100071A379094F930A400000E03F1655B5BBF2
:10322000B16B0240EF39FAFE422EE63F00002C401F
:103230000000244000001840FF0300002D431CEB59
:10324000E2361A3F80842E41099B0022013B0993FC
:103250002000164B290001F0CCFA0A0001000300FF
:103260000A910B9294E7002300240A930B94002305
:103270000993249A099B9A4214DDD31A013B2493A3
:103280008023269ADB001A43002300252692099307
:103290002DE6802212069446229B1E00239B634447
:1032A0001F0006E600232493EAE7C04600002440FE
:1032B000F0B54546DE464E465746E0B595B08B46DE
:1032C000904699461E9A1F9B0A9019001000209D57
:1032D00001F003FB002800D0B0E11E981F990122E5
:1032E000C74B524201F0E6FA002800D037E11E98A1
:1032F0001F990122C34B524201F0EAFA002800D084
:10330000A7E01E981F990022BF4B01F0E1FA0028A8
:1033100000D088E01E981F990022BC4B01F0CAFA29
:10332000002800D07FE01E981F990022002301F0A2
:10333000C1FA002800D0FAE000230B938023229CDE
:10334000229ADB001C401A4200D102E1092D00D86C
:103350007CE106A98C462C00172200233021093C71
:1033600062440133D154EF1A202B00D132E1A34241
:10337000F7D10022A44B069207931E981F9901F0E3
:10338000D7FA050001F0BCFA02000B001E981F9945
:1033900001F01DFA069A079B01F049FA089009917D
:1033A00001F0EAFA060001F0A7FA02000B00089803
:1033B000099901F00CFA0022954B0890099101F04F
:1033C00087FA002800D1D2E00136300001F094FAEB
:1033D000069A079B01F074FA002801D000260135F7
:1033E000AA46002F00D098E0280001F089FA0200D8
:1033F0000B001E981F9901F0EAF9854B0022060088
:103400000F0001F057FA0CAB9A46002845D1002274
:10341000300039007E4B01F05BFA00283DD1EB070C
:103420003BD5013539E0229B42460493219B594606
:1034300003930A981E9B1F9C0295009301944B4690
:10344000FFF704FD15B0F0BCBB46B246A946A04646
:10345000F0BD229B5B0767D403226E4B2299019239
:10346000039121990291009342464B4659460A988E
:10347000FFF75EFBE6E706AA94461723280063449D
:103480000A2101341E1900F03FFF3031280031704D
:103490000A2100F039FF051E76D0202CEBD1032342
:1034A000229A1340012B1DD1219B002B1AD00B9B7C
:1034B000002B00D0BBE0229A0C33134200D0B6E0C0
:1034C000219BA34200D887E006AB9C4617223023FD
:1034D000624404E02199013413558C4259D0202CC8
:1034E000F8D12024229B01940393219B02935346FD
:1034F000B9E706AA944617230A2163443000013431
:103500001D1900F029FF3031297030000A21013FD8
:1035100000F022FF092E46D90600202CE9D155469D
:103520000CAB20249A46B8E704223B4B96E71E9A40
:103530001F9B0020002101F04AF901230B938023F7
:10354000229C229ADB001E901F911C401A4200D040
:10355000FCE60022314B0627069207930DE7229BDB
:103560000393219B0293042301932D4B7BE70022BD
:1035700008980999264B01F09DF9002800D02FE703
:10358000002E4FD101362BE70323229A1340012B43
:1035900066D0202CA6D00B9B002B1FD02D2352468B
:1035A000135501349EE75546202CB9D030233A19E3
:1035B000002F08D0172006A9013409180B55202C1C
:1035C000AED09442F6D10CAB9A462E2352461355F8
:1035D000013462E72024CCE6202C83D0229B5B07B9
:1035E00008D4229B1B0700D47CE7202352461355A6
:1035F000013477E72B2352461355013472E7C04656
:10360000FFFFEFFFFFFFEF7F65CDCD4165CDCDC162
:103610000000E03FA8A70010A0A7001080842E4162
:10362000B0A70010F30700D4DAE60136D8E6219BF4
:10363000013B2193A34200D946E7AAE7229B0393CB
:10364000219B029303230193074B0CE7074BEA00EE
:103650009B185C681B682F000693079400248CE677
:10366000219B002B95D022E7ACA7001018AC0010CE
:10367000F0B55746DE464E464546E0B5A5B01F00BC
:103680002E9B91460D93CA4ACA4B82468B461A60BE
:10369000002900D129E2002338789846002800D17B
:1036A0002BE2C54B44460C93C44B55464E460E93F5
:1036B0000AE0631C9846220033005946A847444656
:1036C0003878002800D187E001372528F1D1082378
:1036D0009A46043B9946023B9846013B00229C4691
:1036E0000B943878791C0300203BDBB2102B03D8F5
:1036F0000C9C9B00E3589F460300303B0B9C0B92B5
:10370000092B3AD9002398462A2800D1DDE000236E
:103710009A462E284BD00300683BDBB2122B1ED8F2
:103720000E9A9B00D3589F4663460F001A43D8E772
:1037300043460F001A43D4E74B460F001A43D0E725
:1037400010230F001A43CCE753460F001A43C8E773
:1037500080235B000B9A78781A430B9201310F009B
:1037600067284FD82428A4D90300253BDBB2422B7D
:103770009FD893499B00CB589F46002398460B9BAC
:1037800047469C4600E00131BB00DB195B001F1877
:103790000878303F0300303B092BF4D963460B9384
:1037A0000023B8469A460F0001312E28B3D180205D
:1037B0000B9AC00002430B92302252429446787812
:1037C0000B0084446246092A00D8AAE12A2800D1C5
:1037D000B9E10F0001319EE7A046AA46B146C845AF
:1037E00003D301235B424B4498464B46424659461D
:1037F0000020D047200025B0F0BCBB46B246A94609
:10380000A046F0BD01006939C9B20F2900D950E7BF
:1038100001238B409C466B4B994663464A461340B6
:103820000F9362464B461A4200D068E10A2956D0EF
:10383000072900D03DE70D9B02CB9846002900D018
:1038400092E10B9B10211A008A43100011310843AA
:10385000814680201A00C0000240110003421CD1A2
:1038600014AB9C461F220F2362440D959C46150005
:103870000F9B0B9402E0202B0CD0110064460C40EF
:1038800020003730092C00D807380133E8540A09E2
:103890000F29F0D80B9C0D9D0F934B4608220693E1
:1038A0005346059208320392002204930F9B029222
:1038B00001931CAB22000093594633002800FFF708
:1038C0008DF9434604000D93FAE60D9B04CB904618
:1038D000002A79DB78780D930F00013117E70D9BF3
:1038E00002CB14930B789C4618005346002B00D152
:1038F00034E1002815D05346013B013399460D941D
:103900000B9C89444A460B00A14601E0934203D038
:103910005C780133002CF9D14A465B1A0D9C0B925E
:103920000F938023DB0099460B9A13400D934B466F
:103930001A4204D00F9B534501D953460F930223DB
:1039400099460B9A13400B934B46134200D1F5E175
:103950006346002B00D1D6E10D9B002B00D182E104
:103960000B1BD14631009A463B00A1442E005F4616
:103970004D4622009B46894609E04B463900541CBF
:10398000B0475346185D002800D192E122009542CD
:10399000F3D14B465A46A946BB46350017001E00D8
:1039A0004C460B9B002B00D0ADE1149B0D9387E69A
:1039B00071360010643C002078AA0010BCAA0010E8
:1039C00008AB0010419000000B9A283802430B927C
:1039D00042465242787890460F000D93013196E6A8
:1039E00078786C2800D15DE180230B9A5B001A4344
:1039F0000B920131B3E680239B00ABE67878682810
:103A000000D148E180230B9A01311A430B92A6E6BC
:103A1000672800D1B2E0472800D11AE1452800D13B
:103A20001CE10B9A0721049242460D9B0392073337
:103A300052468B43190002920CC928000092019350
:103A40000D91220033005946FFF700FA040037E6D3
:103A5000462800D18DE00B9A0721049242460D9B27
:103A60000392073352468B43190002920CC9280077
:103A7000009201930D91220033005946FFF718FC84
:103A800004001DE6631C9846220033005946252099
:103A9000A847444614E60D9B04330F93631C9946D4
:103AA0000B9B9A0700D40AE10D9B22001878594617
:103AB0003300A84743464444012B00D86FE1B04689
:103AC0002E0025004C46B9465F462200434601348D
:103AD00039002020B047AC42F7D12C00BB4635005E
:103AE0004F4646460F9B0D93EAE5D64B38789A46EB
:103AF00000239846002800D0D3E500246FE66F2805
:103B000042D000D8FDE11023782800D19BE00B9A29
:103B10009A430B920A239C46002314930A330F9373
:103B200038E057460B9AB900C919490001330F18FC
:103B30001878303F010030390929F4D9BA460B9280
:103B40001F00591CE7E50D9BB87804CB0237D14321
:103B5000C9170A4092460D93791CDCE5002800D174
:103B6000DFE602235B42C8E621200B9A024391461E
:103B700076E620230B9A1A430B926CE780230B9A6C
:103B80001B011A430B924CE708239C460023149315
:103B900008330F930B9880230200DB001A401100BA
:103BA0000200184200D080E00C239A4310008023CA
:103BB00002009B001A400B92184200D0F1E08023D3
:103BC00002005B001A4091460D9A0432149218428A
:103BD00000D0C3E2430600D5D7E0030600D421E3BA
:103BE0000D9B1B880993002B00D02DE110339843C7
:103BF000002900D128E10023994643460593534606
:103C000004930F9B06900393002302934B4601936A
:103C10001CAB22000093594633002800FEF7DEFF5C
:103C20000400C2E6582809D0622800D0E3E202234B
:103C30009C460023149302330F93ABE720230B9A87
:103C40001A430B92103B9C460023149310330F939E
:103C5000A0E780230B9A1B011A430B9220230B9A97
:103C60001A430B92DDE60B1B9A460F9B99463B00CD
:103C700037005E469B4622003B003100A847534672
:103C80000134185D0028F6D14B460F935B46B346CE
:103C90003E001F0085E6C0230B9AB8781A430B92AA
:103CA000F91C5CE5C0239B00F6E70D239A43100046
:103CB0007DE75B463500BB464E461F0071E6434636
:103CC000012B66D9631E434432002E001D003B00C9
:103CD000A2465F4691469B4622004B46013439007E
:103CE0002020B047AC42F7D15B463500BB464E467C
:103CF000A14654461F000D9B4A461878594633008A
:103D00004444A847EEE60F9BA146984500D84CE6F0
:103D10004444E41AB0462E0025004C46B9465F469E
:103D200022004346013439002020B047AC42F7D18D
:103D30002C00BB4635004F46464636E60F98804578
:103D400000D873E24346E218131A32002E001D0019
:103D50003B0091465F469B460F9122004B46013443
:103D600039002020B047AC42F7D15B46BB461F006C
:103D700043460F9901330F930B7835009C464E460E
:103D80006046002800D0E7E50FE60D9B1B780993FD
:103D900029E70D9B2200187859463300A8474C4666
:103DA000A0E60D9AFA3BFF3B07329A43013399464E
:103DB00091444B460D931368526815921A4306D1ED
:103DC0001032904300220992002900D083E0612242
:103DD000810600D54122D2B20A9214AA91460A9ACB
:103DE00000210A3A0B9242461792524618925A46BE
:103DF000B24609911E001F31149B4944BB461694DC
:103E00001A950024674698468946159D19901B927D
:103E10000AE03032D2B24B4601341A55A8454CD094
:103E2000202C4CD006000D003A0000233000290061
:103E300000F0D0FAD2B2092AEBD90B9B9C4662441F
:103E4000D2B2E8E72D2B00106123820600D5412372
:103E5000DBB20A3B0B93434614A91F228C461593F1
:103E600053466244B2460D9417974C468046A94685
:103E70001700099D0F9E169308E03033DBB2013422
:103E80003B55B5420ED3202C0CD005003100280044
:103E900000F062FACBB20929EFD90B9A9446634439
:103EA000DBB2ECE7159B40469846169B4D465646BE
:103EB000A1469A460D9C179F9FE6B742B0D9179B23
:103EC00056469846189B5F469A461B9B09949B460C
:103ED000169C19981A9D43460593534604930F9BCD
:103EE0000690039300230293099B01931CAB2200CD
:103EF0000093594633002800FEF770FE0400FFF7D8
:103F0000DFFB10230B9A9A430F92692800D091E1AE
:103F10000B9980230A00DB001A4010000A001942A6
:103F200003D0112118008A430F920F9A80231100A9
:103F30009B0019408C461A425BD1802311005B0024
:103F4000194089460D9904310B911A4200D0B2E014
:103F500013005B0600D4EDE00D9B1B781A00D90F0F
:103F60000D91002B00D1A3E0100014AA9446424604
:103F70001F23159252466344A846BA464D461494F0
:103F8000B14604001F00169201E0202D0FD0200042
:103F90000A2100F0E1F901357E193031317020003D
:103FA0000A2100F0D9F926000400092EEDD8159B4E
:103FB0004E46A94645469846169B57469A46149C37
:103FC0000F9B069343460593534604930A2303939A
:103FD0000D9B02934B4601931CAB22000093594664
:103FE00033002800FEF7FAFD0B9B04000D93FFF74A
:103FF00067FB07220D9B07339343013294469C4491
:1040000062460D920CCBD90F0B911100194300D1D0
:104010009BE0D91713911291514010911399594077
:10402000119110981199129A139B801A994110902E
:10403000119114AA9446424600231592524699467D
:10404000169232001F336344A8464E46BA46149473
:104050001F00109C119D914601E0202E10D02000E1
:1040600029000A22002300F0B5F9013630322B0076
:10407000BA550D0022000400002BEED1092AECD81D
:10408000159B10941195454698464B46169AB14695
:1040900057461E009246149C0F9B06934346059379
:1040A000534604930A2303930B9B02934B461CE74E
:1040B000002885D159E70D9B1B68DA0F1100002BF2
:1040C00000D1A6E0DA179818504014AA91461F2391
:1040D00042464B44A8460D94169704006546B146E7
:1040E0001F001491159201E0202D0FD020000A210D
:1040F00000F032F901357E193031317020000A218B
:1041000000F02AF926000400092EEDD8159BAC46D4
:1041100045469846149B4E4619000D9C169F0F9BD2
:104120000291069343460593534604930A2303934F
:10413000634650E713001B066ED50D9B00229B5E65
:10414000D9175A184A4092B209E700239946002825
:10415000A2D100220023109211936AE70D9B1B68E5
:104160009946002B03D110339843002938D161239D
:10417000820600D54123DBB20A3B0D9343461693DA
:10418000534614A91F228C4617932B0062444D46B8
:10419000B246159418978046170099460B9C0F9EBF
:1041A00008E03033DBB201343B55B5420ED3202C4E
:1041B0000CD005003100280000F0CEF8CBB2092960
:1041C000EFD90D9A94466344DBB2ECE7169B404668
:1041D0009846179B56464D469A460B94189F159C39
:1041E00043460593534604930F9B06900393002385
:1041F00002930B9B0BE50B9980230A00DB001A400E
:1042000010000A00194200D08BE610239A430F9247
:104210008BE6002883D158E70D9B1B68D9175A18E5
:104220004A409CE60D9B1B680993DCE403000133C4
:104230000F93A5E50B926DE400B585B003910121C4
:1042400002900093034813004A4202A9FFF710FAB4
:1042500005B000BD3D2E001010B5094A03001468DA
:1042600084B0002C08D0012200910648524203A9D4
:10427000A047012004B010BD01F002F80020F9E7CA
:10428000643C00202D2E001001480421014B1847EA
:1042900090150020C5420010014B9B681847000094
:1042A00090150020142310B50100188804331B88D2
:1042B000984710BD162310B50100188802331B88DB
:1042C000984710BDF8B54746CE4680B50F1E19D0A9
:1042D00014239946043304000025012698464B46D2
:1042E0001888434621681B88984701C4431E98419B
:1042F000013540420640AF42F1D13000C0BCB94662
:10430000B046F8BD0126F8E7124A936F9B0815D214
:104310009066D166002905D0FFE7FFE7FFE7516F00
:10432000106F704704B580210906C217514000285C
:1043300000D0C84306F054F9002104BDF0B5146E56
:10434000556E576F166FFFF7E3FF14665566576794
:104350001667F0BD000000D0114A936F9B0813D27E
:1043600010665166002905D0FFE7FFE7FFE7516FB0
:10437000106F704704B5002801D00020C04306F03C
:104380002FF9002104BDC046F0B5146E556E576F6D
:10439000166FFFF7E5FF1466556657671667F0BDA1
:1043A000000000D094464A4A926F9208624601D2B9
:1043B00028E0C046F0B5464E346E756E776F366FA6
:1043C00000F020F89446424A14665566576716670F
:1043D0006246F0BD94463E4A926F9208624601D210
:1043E00054E0C046F0B53A4E346E756E776F366F56
:1043F00000F04CF89446364A1466556657671667BF
:104400006246F0BD002B24DB11D000293EDA00B556
:10441000C943404200D1013100F038F8C94340425D
:1044200000D10131DB43524200D1013300BD002AEB
:10443000EBD1002801D1002905D00020C90FC90700
:1044400001D1C043410800B506F0BAF800220023AC
:1044500000BD00B500290ADBDB43524200D1013325
:1044600000F014F8C943404200D1013100BDC943F6
:10447000404200D10131DB43524200D1013300F010
:1044800005F8DB43524200D1013300BD002923D19E
:10449000002B18D1002A0CD0BC460D4F38667A6626
:1044A00000210023FFE7FFE7FFE77A6F386F6746D9
:1044B0007047002801D00748010000B506F080F8D9
:1044C0000022002300BD02000B00002000217047E5
:1044D000000000D0FFFFFFFF002B00D0BFE0130C57
:1044E00028D1002AE7D080B4114F39667A66FFE7F9
:1044F000FFE730B4040C7B6F396F1B0423433B662A
:104500007A66FFE7FFE7FFE7C04684B27B6F3D6F47
:104510001B0423433B667A66FFE7FFE7C0460023A0
:104520002C042D0C7A6F386F00196941B0BC7047AC
:10453000000000D0F0B594460025140E01D11202FF
:104540000835140F01D112010435940F01D19200E6
:104550000235D40F01D152000135D40B0134254F5F
:104560007C66254C3C660E0C93B2FFE7FFE7FFE745
:104570003C6F6643360C7703BE467343DF0B5B0428
:10458000C01AB941130C7343DB18C91ACE0866432D
:10459000360CB64493B273431F0F1B01C01AB941C6
:1045A000130C73431F0B1B05C01AB941860D8F02F4
:1045B0003E436643360C092D24DB520A7243801AAF
:1045C0007703460A6643360C16235B1BDE40DF404A
:1045D000BF1964466643821B7046043506330100EA
:1045E000D940A840C01900D30131A24206D200230D
:1045F000F0BD0000000000D0FFFFFFFF121B0130E4
:10460000F3D3F1E709277F1BFE406446A2B2724351
:10461000801A00D20139220C7243130C1204821A40
:1046200099410B007046043513370100F940A8404A
:10463000801900D30131002B02D1A2420AD2F0BD71
:10464000013000D30131121BFAD2013BF8D1A24252
:1046500000D2F0BD013000D30131121BF7E7F0B5F5
:104660001C0C00D080E00CB400251C0A04D11B02F5
:10467000160E3343120208351C0B04D11B01160F12
:104680003343120104359C0B04D19B00960F334336
:1046900092000235DC0B02D192185B4101351C00FF
:1046A000971864410134464F7C66464C3C660E0CBC
:1046B000FFE7FFE7FFE7C0463C6F6643360C770332
:1046C000BE4697B27743C01B00D20139C01B00D24F
:1046D00001399FB27743C91BC91B170C77437E046E
:1046E000FF0B801BB941CE086643360C0C2D33DB23
:1046F000B644120B1F053A431B0B97B27743C01BFE
:1047000000D201399FB27743C91B170C77433E048F
:104710003F0C801BB941860D8F023E43664329271B
:104720007F1BFE400C3D7746AF40BF1930BCA2B2A4
:10473000ABB272437343801A9941220C7243130C3B
:104740001204801A994102000B000137001BA94195
:10475000F9D2781E0021F0BD0C277F1BFE40774662
:104760007F0BAF40FF19E0E700245D1C07D0144F1A
:104770007D663966FFE7FFE7FFE7FFE73C6F95B22D
:104780009EB265436643401BB141150C1E0C654348
:10479000664336042F0C3E432D04401BB141994221
:1047A00004D202000B0020000021F0BD01D1904294
:1047B000F7D3801A994101349942F2D3F6E7000009
:1047C000000000D0FFFFFFFF48404140484018B4C0
:1047D0001B4B5B68FC46019308BD04DF5B4A00107D
:1047E00018B4174B1B68FC46019308BD00DF654AEF
:1047F00000109446134A926F920809D2624618B488
:104800000F4BDB68FC46019308BD0CDF1D4D00100B
:104810000C4AF0B5146E556E576F166F6246FFF76F
:10482000EEFF084A1466556657671667F0BD18B460
:10483000034B9B68FC46019308BD08DFC14B001089
:10484000801C0020000000D0FFB550404240504086
:1048500059404B40594000E0FFB5154F4C00640DE6
:1048600003D0BC4204D10C0314D80020090D090563
:104870005C00640D03D0BC4204D11C030AD80022A2
:104880001B0D1B0501264B4009D44B4003D58B4221
:1048900000D18242FFBD9942FCD19042FFBD0B4343
:1048A000DB1803431343F5D0C9434918FFBD00008B
:1048B000FF07000000B5FFF7CFFF804100BDC046F5
:1048C00000B5FFF7C1FF01D9002000BD012000BDE8
:1048D00000B5FFF7B9FF804100BD012040054A0047
:1048E000121804D85A00121801D80020704701206D
:1048F00070470020704700000021002805D1704754
:10490000C1174840401AFAD0C90713B5064B1B68B7
:1049100098470CBC441CA2401005120B0349091B0C
:1049200009051943114310BD946A01201F040000BA
:1049300010B54C00620D8023D218DB00D21A5B0543
:104940007E2A10DD9E3A13DACC1709034908194371
:104950005242D140640001341532202A05DAD04099
:104960000843604310BD002010BD0846604310BDE1
:10497000C80FC018013810BD18B4044B5B6AFC4660
:10498000019308BD24DFCD4E00100000801C0020E4
:10499000132370B51D78012D15D010DD1D48FFF7CC
:1049A00089FC1D4C01008022200000F09BFB022DA1
:1049B0002DD01A48FFF776FC194B186070BD194BC3
:1049C000154CA364F5E7174B134C23606360A36099
:1049D000E36023616361A361E36123626362A362B5
:1049E000E36223636363A363E36323646364A36495
:1049F000E36423656365A365E36523666366A36675
:104A0000E36623676367A367E367A364D1E7054BA6
:104A1000A364CEE753440000801C00204C33000008
:104A2000946A0120294A001007B5604601880A0AE5
:104A30000230DF2AFAD1C9B2820804D30288408842
:104A40000004104300E00068014A5050039007BD85
:104A5000801C00200FB403BC0CBCF0B50124E4079B
:104A6000634000E0F0B50C0DCF0F661E3605891BC4
:104A7000640503D3C943404200D30131640D03D020
:104A8000661CF60A07D0E41B00207F00791C89070A
:104A90008912803C24031D0DDF0F6E1E36059B1B03
:104AA0006D0503D3DB43524200D301336D0D03D0B8
:104AB0006E1CF60A07D0ED1B00227F007B1C9B07B3
:104AC0009B12803D2D032F1B661B58D4A446202E1D
:104AD00046DA20371400BC401D00BD40F24033418F
:104AE0002A4380185941CB0F05D0C943C043002247
:104AF00064425041514162464D0D28D10D0D07D100
:104B000000281FD0241940414941013A0D0DF9D028
:104B1000640006D3013000D30131002C01D14008DC
:104B20004000013A0BD4941CE40A04D1120511444C
:104B3000DB071944F0BDD907204B194300E0D90722
:104B40000020F0BD0029DDD1002CDBD1F0BD013209
:104B5000C6074008CD0728434908002EE1D0D9E711
:104B60003C2E29DA203E40371400BC4000D00124FE
:104B7000F24014431A00BB401C43D317ACE7AC46C9
:104B8000202F08DA20360400B4400D00B540F8406C
:104B900039412843A5E73C2F0CDA203F403604007A
:104BA000B44000D00124F84004430800B1400C4355
:104BB000C117EAE710001900002494E70000F07F15
:104BC000F0B50C0D661E3605891BE60A6405640DFA
:104BD00002D0651CED0A04D0002001210905803CAB
:104BE0002403A4461C0D671E3F05DB1BE70A640572
:104BF000640D02D0651CED0A04D0002201231B05C0
:104C0000803C24037740644497B484B296B27443E2
:104C1000070C7E43150C6F4380B26843361802D3ED
:104C2000012000043F183004350C00197D418446F2
:104C300088B29AB250430C0C62431F0C7C438EB274
:104C40007E43921902D301263604A4191604170CC8
:104C50003618674101BC81B29AB25143040C6243D9
:104C60001B0C5C4380B25843121802D3012000048D
:104C700024181004130C401863412D185E410020C5
:104C8000474106BC88B293B258430C0C6343120CE4
:104C9000544389B251435B1802D3012109046418BB
:104CA00019041A0C091862416D1856410020474139
:104CB00018BCF902720D1143F0026A0D1043ED02A7
:104CC0000A0D03D16D1940414941013B124E9B1B16
:104CD0007600B3420ED26D0007D301300026714139
:104CE0006646354301D1400840001B05C918E4075A
:104CF0002144F0BD0BDA013306D1013004D101317A
:104D00004F0D01D04908F2E7E1070020F0BD013660
:104D100031050020EBE70000FF030000F0B51C0D9B
:104D2000671E3F05DB1BE70A6405640D02D0661CA5
:104D3000F60A04D0002201231B05803C2403D02561
:104D40002D060026F6432E661E096E66CE0FF61956
:104D5000B44649004F0D02D07E1CF60A03D0002055
:104D60000021403F3F033E1BB600B444013F7F0596
:104D7000C91B49082E6F013676089C02950D254304
:104D80007543ED137543AD1301356D10F603761BB6
:104D90000CB4CC02450D2C43A2B2B3B25A43270C3B
:104DA0007B43350C6F43A4B26C431B1902D301241F
:104DB00024043F191C041D0CA4187D4124196D41C5
:104DC000009A91B2ACB26143170C7C432B0C5F4349
:104DD00092B25A43A41802D301221204BF1822042B
:104DE000230C52187B41019C6C431B19520ED901B4
:104DF0000A434401A01A81B2B2B2514303145A4388
:104E0000360C734387B27743D617D21900277E41F9
:104E100036049B191704160C7F185E417316ED18A3
:104E2000F301002680337541A90F06D16400690A99
:104E3000E8055B0A184309D22FE00422944480332A
:104E40007541A90AA8059B0A184326D34041494148
:104E50002404009A019B0D005543641B4343E41A4C
:104E600095B286B27543170C7E43030C5F4392B232
:104E70005A43B61802D301221204BF183204330C6D
:104E800052197B4152429C41002C02D40022013035
:104E900051414008CA071043490802B06246D7078B
:104EA0009210084BD218084B9A4203D21205891867
:104EB000C919F0BD0020002A01DC3900F0BD013322
:104EC0001905F5E7FD030000FE070000002200B50C
:104ED000203200F004F8080000BD000000220B158D
:104EE0000AD410B5944600F031F81414013400DAF5
:104EF0000021CB17144C204700200021704762444A
:104F0000343A0CD40C2A07DA040091409040524203
:104F10002032D440214310BDD843D94310BD2032A4
:104F200007D40C469440524220321141D0402043D5
:104F300010BD0800C917203203D45242203210415C
:104F400010BD1800190010BDFF4E00100A0DCC0F47
:104F5000531E1B05C91A520503D3C943404200D34F
:104F60000131520D03D0531CDB0A07D0121B002065
:104F70006400611C89078912803A1203014BD21A1E
:104F800070470000FF03000051434343C9188C469B
:104F9000110C83B24B4310B4040C614392B280B243
:104FA000504362431C041B0C001910BC59411304EC
:104FB000120CC0185141614470470000132310B512
:104FC00012481C78FFF776F90100012C0AD003DDA6
:104FD00080220F4800F086F80E48FFF763F90E4B69
:104FE000186010BD0A4C5422200000F07BF80B4BD7
:104FF0006365A365E36523666366A366E36623676B
:105000006367A367E3672362E361E5E75346000054
:10501000801D00204C330000946A012021500010B4
:1050200007B5604601880A0A0230DF2AFAD1C9B200
:10503000820804D3028840880004104300E000681E
:10504000014A5050039007BD801D002070B5040038
:105050000A4E300005F0E4FA200004F0ABFD050034
:10506000300005F0A5FA002D05D0054B2C199C4207
:1050700001D8280070BD0348FDF73AFD2C1B002025
:1050800000000420B8A7001070B505000C000B4EFE
:10509000300005F0C5FA2800210004F02BFD0500C2
:1050A000300005F085FA002D05D0054B2C199C42E7
:1050B00001D8280070BD0348FDF71AFD2C1B002005
:1050C00000000420B8A7001001480421014B184734
:1050D000A0150020C5420010014B1B6818470000B6
:1050E000A0150020014B5B6818470000A0150020A8
:1050F000F0B5C64600B5437D07000D001600002B35
:1051000038D0002A2EDD00216A1E90466A5C037D9D
:105110004C1C00200A2A0CD0A64216D043461B5D28
:1051200021000D3B5A4253416A5CDBB24C1C0A2AF7
:10513000F2D1002BF0D1884217DB022110483B68E6
:105140009847A64207D02000E8E7864203DD311ADF
:105150003B6828189847AD19013D2B780D3B5A4202
:1051600053413B7580BCB846F0BD091A3B6828180E
:105170009847E2E70368110028009847F2E7C04625
:105180008CAC0010F0B5C6460B6806000C0000B5EC
:10519000802B06D05A1C2260E418267180BCB846C9
:1051A000F0BD0F4B1D68002D16D00B1D98460D4FFE
:1051B00002E02D69002D0FD02B68002BF9D03B6841
:1051C000002B01D0AB42F4D1280041462268FFF702
:1051D0008FFF2D69002DEFD101220023DBE7C046B0
:1051E000903700204C3C0020F0B5CE46474680B5B5
:1051F00083B06B460600DD1D2870FCF7B1FD00236F
:105200001A4A12184B41802109068B4202D301220F
:10521000174B524217490800884605F0F1F9164B22
:1052200081461C68002C14D0144F02E02469002C25
:105230000FD02368002BF9D03B68002B01D0A3428C
:10524000F4D1200001222900FFF752FF2469002C2D
:10525000EFD14B46002B05D1300003B0C0BCB9469E
:10526000B046F0BD404605F0A3F9F5E740420F0017
:10527000FFFFFF7F341B0020903700204C3C0020B4
:10528000F0B5DE4657464E464546E0B585B00700C8
:1052900004F0BAFF0600FCF763FD00232B4A121846
:1052A0004B41802109068B4202D30122284B5242F6
:1052B000284908008B4605F0A3F9274B01901C688C
:1052C0009A46002C3BD0254B984602ABDD1D0A23A5
:1052D000994602E02469002C17D02368002BF9D0EE
:1052E00043461B68002B01D09C42F3D120003200C2
:1052F0003900FFF7FDFE4B462000012229002B70EC
:10530000FFF7F6FE2469002CE7D1019B002B18D192
:1053100053461C68002C06D06368002B0BD09847BE
:105320002469002CF8D1300005B0F0BCBB46B24671
:10533000A946A046F0BD2469002CEDD1F3E7002872
:10534000F1D0584605F034F9E2E7C04640420F007C
:10535000FFFFFF7F341B0020903700204C3C0020D3
:105360000A4A1368002B05D10CE01A001B691032A1
:10537000002B07D09842F8D1002902D103691360AD
:10538000016170470029FCD01060FAE790370020D7
:10539000F0B5CE46474680B5A3B004000D00FCF73B
:1053A000DFFC0023294A12184B41802109068B4259
:1053B00002D30122264B5242264F380005F020F935
:1053C00000230600019322002B00234801A9FEF7C9
:1053D00033FF019B8046002B14D1204B1C68002C0E
:1053E00006D06368002B0BD098472469002CF8D1B5
:1053F000002E25D1404623B0C0BCB946B046F0BD12
:105400002469ECE7154B1D689946002D1CD0144CFF
:1054100002E02D69002D0FD02B68002BF9D02368F6
:10542000002B01D0AB42F4D12800019A02A9FFF76A
:105430005FFE2D69002DEFD14B4601951C68CEE72C
:10544000380005F0B5F8D5E70195D1E740420F00E7
:10545000FFFFFF7F341B0020855100109037002094
:105460004C3C00200FB400B583B004A901C90191E0
:10547000FFF78EFF03B008BC04B01847F0B5002951
:1054800015DD0E4B0D271A680D4B0E4CD3185D42DF
:105490006B41451820215B001E5F0478A64207D0AF
:1054A00093691942FCD101301460A842F5D1F0BDD6
:1054B00093691942FCD11760F2E7C046B46A012033
:1054C0000080FCBFAC6A0120214B70B504000D1EAA
:1054D0001E682CDD002010211E4B013C1A689369C8
:1054E000194215D1013093691942FCD11368235434
:1054F0008542F4D1002E09D0502338219363536B99
:105500003432194080235B011343196028000DE0F9
:10551000002E09D0502338219363536B3432194045
:1055200080235B011A43116000280ED070BD002E4D
:105530000BD050223821074B1B689A635A6B3433C7
:105540001140802252011343196003204042EDE7CD
:105550003C370020B46A0120064B10B51B68002BB5
:1055600006D00021044A12689163044A10689847E3
:1055700010BDC0463C370020B46A012040370020EF
:105580001D4BF0B51A68C64698461C4B0E00D31842
:1055900059424B411A4F14331C00050000B53B68BB
:1055A000002807D0002B11D0164B3D601E6080BC38
:1055B000B846F0BD002BF7D0906300212000FBF728
:1055C00031FD20001049FBF777FEEDE720000E4982
:1055D000FBF74EFD01212000FBF724FD434650223E
:1055E00038211B689A635A6B343311408022520170
:1055F00013431960D8E7C046B46A01200080FCBF9D
:105600003C37002040370020595500100C4B10B596
:105610001B780C4B0C4C1B780C4B02210020236098
:10562000FBF7FEFB02210120FBF7FAFBE1212068DA
:105630004902FCF78FFE01210548FFF791FE10BDDE
:1056400064AD001060AD0010B46A0120004003405A
:10565000B015002070B50C4E0D001C003060002A03
:1056600003DB02211000FBF7DBFB002C03DB022134
:105670002000FBF7D5FB29003068FCF76BFE012109
:105680000248FFF76DFE70BDB46A0120B01500201E
:1056900003BDC04610B50400FBF74AFFA04710BD8C
:1056A000F0B5040087B00F200E001700FBF7CCFC0C
:1056B000002105000F20FBF7B5FC0023002200921B
:1056C000019301230293D02304960594002600241D
:1056D0000121022003971B06002C14D01A6D1042E2
:1056E000FCD05C6540BF1A6D114203D120BF1A6D1A
:1056F0001142FBD09A6DA2420AD000266C46B2003D
:10570000A458E9E79A6D1A6D1142FBD140BFE5E755
:105710000136062EF2D129000F20FBF783FC07B0DB
:10572000F0BDC0460D4B0E4A10B5934210D30D4A42
:1057300099181A000B4C1051FF20C00013500A4B4F
:105740000A4813500A4B0B489A68FFF7A9FF10BD8F
:1057500001235B421A000849ECE7C0460008042018
:1057600064010420F407000095560010FC070000B7
:1057700000ED00E091560010F30700003423F0B56F
:10578000DE4657464E4645469A46E0B505008244F9
:10579000504683B08946904600F074FA28002E00E7
:1057A0003C302F1D00F078F93C004036012000F01D
:1057B000E5FB2060012000F0E1FB606004CEE86BB7
:1057C000131D9B00C318A360534BC318591E8B4174
:1057D000DB009B18E3601034A245E7D19C22002334
:1057E0009D209200AB50083AAB5080000432AB5081
:1057F00004214B4608222818FCF79AFDA1239B00A0
:10580000EC1808224B4604212000FCF791FDA5204E
:1058100080004346082204212818FCF789FDA920AE
:1058200080004346082204212818FCF781FD2B0044
:10583000012239002868683300F028FA2B00002282
:1058400039002868E83300F021FA2B008022693300
:1058500039002868FF33920500F0AEFA2B00E933D7
:10586000FF3300223900286800F0A6FA03230193D1
:10587000A1239B009B460023984614E04E469F00C0
:10588000626801339BB2BE508B4235D82381BFF38F
:105890005F8F434603608CF3108840BF019B013B40
:1058A0000193002B2DD02B681B695800C0184008AD
:1058B0008000FFF7CBFB8146002829D05B46EA58E1
:1058C000EFF3108C72B61368002BFCD0BFF35F8F20
:1058D000584623896289E18928589A1A02D54E1CB4
:1058E000B24652449142C9D1BFF35F8F4346036031
:1058F0008CF3108820BFE1E743462381BFF35F8F1D
:10590000C8E703B0F0BCBB46B246A946A046F0BD0E
:105910000248FDF7EDF8C0460000E0AF54A80010C3
:10592000012270B50C001100150083681600994023
:1059300043689D402B0045690B43AE40334316003E
:105940008569AE4033431600456AAE40856A3343ED
:10595000AA40A0251343114AED05A9500B2C10D0E5
:105960000F4A126851400F4A0B4013600E4B0F490B
:1059700058600C20FBF77CFB01212000FBF752FB59
:1059800070BD0B4A12684A4013400A4A0A49136024
:10599000054B18600B20FBF76BFBEDE70C040000D8
:1059A00014040050141400508837002025090020EA
:1059B000040400500414005049090020F8B545685B
:1059C000334BE9029C461940A023DB0547460600FD
:1059D0009846CE468468AB01A40143444444E8366B
:1059E00080B51E605C6004242A4A9C6011431961E2
:1059F00094266346A14644698769E102194076000E
:105A0000A301BF0143444744B046804446461E605C
:105A10004E4611435F609E6019616146476AA42645
:105A2000FB020B401A43A023DB059C46816A7600EB
:105A30008901BB0163446144B446844466461E60E8
:105A40005960494699601A61012213001100AB4068
:105A5000B940A2400B431343A02186220400012534
:105A6000C905D2008B50C16B4034FC3E2A0023682C
:105A700010339A404B681A42FCD00434B442F5D13A
:105A800001213C3000F0CEF8C0BCB946B046F8BDAC
:105A9000FDFF1FFF39851F00F0B5DE46454657461E
:105AA0004E46E0B5040087B05749006800F0B0FAF0
:105AB00003000133C2011B031343544A82461340BF
:105AC000019310239B46A0466062251DA3444346D4
:105AD0002968186800F084FA434603241F68EE68BA
