:020000041000EA
:1000000000B5324B212058609868022188439860DF
:10001000D860186158612E4B002199600221596106
:100020000121F02299502B49196001219960352056
:1000300000F044F80222904214D00621196600F024
:1000400034F8196E01211966002018661A6600F04E
:100050002CF8196E196E196E052000F02FF8012189
:100060000842F9D1002199601B49196000215960AB
:100070001A491B48016001219960EB211966A021F2
:10008000196600F012F800219960164914480160C1
:100090000121996001BC002800D000471248134993
:1000A000086003C880F30888084703B5996A0420EC
:1000B0000142FBD001200142F8D103BD02B5186610
:1000C0001866FFF7F2FF186E186E02BD00000240BE
:1000D000000000180000070000035F00212200005C
:1000E000F4000018222000A00001001008ED00E03C
:1000F00000000000000000000000000074B24E7A12
:1001000000200420F7010010C3010010C5010010F9
:10011000C1010010C1010010C1010010C101001097
:10012000C1010010C1010010C1010010C701001081
:10013000C1010010C1010010C9010010CB01001065
:10014000CD010010CD010010CD010010CD01001037
:10015000CD010010CD010010CD010010CD01001027
:10016000CD010010CD010010CD010010CD01001017
:10017000CD010010CD010010CD010010CD01001007
:10018000CD010010CD010010CD010010CD010010F7
:10019000CD010010CD010010CD010010CD010010E7
:1001A000CD010010CD010010CD010010CD010010D7
:1001B000CD010010CD010010CD010010CD010010C7
:1001C00000BE00BE00BE00BE00BE00BEEFF3058054
:1001D000103800BEF2EB8871044A0010304A00105B
:1001E0003402001090A31AE700201F49086006C8D7
:1001F00081F3088810471D48006800282FD10DA4FE
:100200000ECC002902D000F012F8F9E71849194A7B
:10021000002000E001C19142FCD1174988471749ED
:1002200088471749884700BEFDE701C901C29A42C5
:10023000FBD37047304A0010C00000201C1A002079
:100240008C6300100000042064010420F06400109E
:10025000001004200010042000000000704709482E
:1002600001F02AFF0047000008ED00E0000000D088
:10027000201A0020E4560220F51E00100103001091
:10028000192000105756000006005250ABB36053BF
:100290007844001006005250861C03028844001067
:1002A000060052505422A29D944400100500525062
:1002B000DE65F468F0640010F8B5C046044B10B574
:1002C000002B03D00349044800E000BF10BDC04626
:1002D0000000000088260120D843001070B5064DAC
:1002E000064C2B5D002B00D170BD7F20184000F024
:1002F00037F800232B55F7E78826002012D000009E
:1003000010B500F069F900F04DF800F009FAFFF7B8
:10031000E5FF002010BDC046F0B58C0064180E4DFE
:10032000A4012418651900268024D700BF1A0B4A9F
:10033000BF180022B95D200008400C4200D0180010
:10034000A85401324900052AF5D141350136FF355F
:10035000072EEED1F0BDC046B0280120080D0020C8
:1003600070B50E4C020020680D4D43002968181826
:1003700040000723C9000530FFF7CEFF23685A1C51
:10038000332B01D0226070BD002328681E2123601A
:10039000013001F0C3FE2960F5E7C046D0560220C7
:1003A000D4560220F0B5CE46474680B50D2085B024
:1003B00001F076FD0A2001F077F87A4E03ABB46ABB
:1003C00002AA200001A900F049FA002803D1210067
:1003D000754801F025FE039A0299019800F002FA8F
:1003E00000F09EFA714D00212800242240302E603A
:1003F00002F0E0F902226E4BAA64EB6301230C3297
:10040000EA6404322A65023A6A65043AAA655032FF
:10041000AB546B64674B02276B6600F08BFB0400E8
:1004200000F088FB21000200280002F02DFCFC22D5
:10043000D20090461F229446E13200230120042678
:1004400091465D4902001A40184201D0F82212027A
:100450001F4201D0444622431E4201D0644622433B
:1004600001330A8002314B45ECD1A0235B0000260A
:100470009C46524F39000022F410E4B2D3105800C9
:100480001B18E3180B7001324131FF31F02AF5D10E
:10049000013601376645EDD10222494BA5271A6086
:1004A000A7239B009946474B474E984600239C46FE
:1004B000BF00EB59EFF3108072B61A68002AFCD027
:1004C000BFF35F8F4B464246EB5AAA5AA95B9A1A72
:1004D00001D54C1C1219EC59914252D0A62292001F
:1004E000AA583A4F9E00B7500022160001339BB223
:1004F00099425641A72771420B40BF00EB53BFF30F
:100500005F8F226080F3108840BF2E4BA52698464F
:1005100000239C46B600AB59EFF3108072B61A6800
:10052000002AFCD0BFF35F8F4246EB5BAA5A2649F4
:100530009A1A695A002A01DA4C1C1219AC599142D4
:1005400027D0A6229200AA58214F9E00B750002221
:10055000160001339BB29942564171420B40A721CC
:1005600089006B52BFF35F8F226080F3108840BF19
:10057000184802F05DFB002005B0C0BCB946B0468B
:10058000F0BDBFF35F8F6346236080F3108820BF08
:100590008FE7BFF35F8F6346236080F3108820BF2F
:1005A000B9E7C046D40B0020D8430010BC2300207C
:1005B00000002050E1000020A0260120B0280120EA
:1005C000842600209E020000A2020000401E00209F
:1005D000C0200020C1000020002210B50024064BDE
:1005E0001A80064B1C7000F0E7F8054B054A9C5436
:1005F000054A9C5410BDC046DA560220DE56022041
:100600008826002010D0000012D00000094B1B6A81
:100610001A0E032A06D0084A1B041B0CD25C054B99
:100620001A6170471A0204491B04100E1B0C0200C9
:10063000C854F4E70000305088260020354BF0B550
:10064000C418631E9C41063487B005000E000020CC
:100650002100170000F068F92100012000F064F982
:100660002100022000F060F92100032000F05CF975
:100670002100042000F058F92100052000F054F971
:100680002100062000F050F92100072000F04CF96D
:100690002100082000F048F92100092000F044F969
:1006A00021000A2000F040F92100152000F03CF95B
:1006B000002301243100280000930022083303F0B6
:1006C0005DF83100280003230822009403F056F857
:1006D0003100280001231522009403F04FF88023F5
:1006E0005B0202933B000C33FA011B0313430A4ADB
:1006F000310013408022D20513430393074B3A0085
:100700000593D0231B030493280002AB03F08AF85F
:1007100007B0F0BD0000E0AFFFFFFF9F0055804C29
:10072000F0B5C646D0248026802500B51C2000F0F8
:1007300047F92406760501211C2000F031F92D012E
:1007400066620B2000F03CF90022A56201210B201B
:1007500000F002F9A561144D1449280002F048FF89
:100760000123984642460700114B09201A6011499F
:1007700000F012FA0021092000F01AFB01210920E3
:1007800000F0E4F93A0028000021FFF757FF424645
:100790002B68C82013432B60A66100F085FE6661BC
:1007A00080BCB846F0BDC046000030508445001003
:1007B0002C2130500D0600108022074B074830B521
:1007C000D200074C9D18C01A1978C21892B2013392
:1007D000A154AB42F8D130BDA845001000FCFFFF8A
:1007E00088260020F0B583B005000E00140000F04C
:1007F00005F9002801D003B0F0BD154F01223B00E0
:1008000001210097053001F06BFA33002A000094B3
:100810000121104801F0F2FA21002800714301F093
:10082000A5FC04000C4B002200930221042001F0DF
:1008300057FA2300002201210094052001F050FA0C
:100840003B00022200210097062001F049FAD2E77E
:10085000006CDC0200800240001BB700F0B54E4681
:10086000574645469146DE46284A8A462849E0B51D
:100870001C000600A02310004A46884685B05B0095
:1008800001920294404507D9224A013B94466044B4
:100890000F2BF7D1002027E01F4A072493468344FB
:1008A000A14634005E469B4603904F464D467F432B
:1008B00004E04B46013DFF1A002D1CD039003000EA
:1008C00001F054FCA042F4D10029F2D15B46019A18
:1008D000CB469146114A01205343524613604B4682
:1008E0005A46029C1A60256005B0F0BCBB46B24671
:1008F000A946A046F0BD01235B429C46E1444B461D
:10090000002BD2D15B4626000398BDE750262F006E
:1009100050F80C0020D1FFFFB0710B00001BB70096
:1009200010B502F017F910BD094A10B594464024DD
:10093000830063441A68C0006240803414408022FF
:10094000520113431C60034B9C466044416010BD40
:1009500004C0014000400140074B80009C466044B9
:100960000368C90092000A435A400C231A408023AE
:100970005B0103431A60704704C00140074BC0008D
:100980009C466044036809025940C0239B001940FB
:1009900080235B01034319607047C0460440014057
:1009A000064B80009C46604403680901594080233F
:1009B00030225B010A4003431A60704704C00140C3
:1009C0000123D0228340120693629361094A402199
:1009D0009446830063441A68C0004A408031114045
:1009E0008022520113431960034B9C460523604447
:1009F0004360704704C0014000400140024B18684A
:100A00008007C00F7047C04600C00640EFF310805B
:100A100072B6034A1368002BFCD0BFF35F8F704798
:100A20002C0100D0BFF35F8F0022024B1A6080F3CD
:100A3000108870472C0100D070B5EFF3108C72B69F
:100A40000D4D2B68002BFCD0BFF35F8F0724CB0824
:100A5000C618C05C01230C40A3401C0004400342A4
:100A600007D118433070BFF35F8F2C608CF3108870
:100A700070BD100001F0D4FA2C0100D0F8B5474643
:100A8000CE46884680B5EFF3108C72B6214D2C68A7
:100A9000002CFCD0BFF35F8F9A422CD8D4080727D4
:100AA000055D061901241740BC402C421FD00721C8
:100AB0000127894609E0D408055D06194C4639002E
:100AC0001440A1400C00294211D001329342F2D2CD
:100AD00001204042BFF35F8F00220E4B1A608CF35F
:100AE000108800280FDBC0BCB946B046F8BD2543CE
:100AF00010003570EEE7BFF35F8F00232B608CF39F
:100B00001088012040424346002BECD0089801F0A9
:100B100087FAC0462C0100D00021044B044ABFF3E1
:100B20005F8F02C39342FAD17047C046000100D0E4
:100B3000800100D0044A1078431CDBB2172B00D987
:100B4000102313707047C04608140020012383400F
:100B5000002904D0034A1360034A13607047034A14
:100B60001360FBE780E200E000E100E080E100E0EC
:100B700001228240034B1B6813405A1E9341D8B296
:100B80007047C04600E100E0024B10309B688000D7
:100B9000C058704700ED00E070B50D00EFF310860F
:100BA00072B60F4A1368002BFCD0BFF35F8F0D4B5A
:100BB00010309B6884001B590B4A934203D09D421E
:100BC00001D001F045FA074B9B681D51BFF35F8FC1
:100BD000BFF35F8F0022024B1A6086F3108870BD4E
:100BE000240100D000ED00E0CD010010F0B5DE469C
:100BF00057464E464546E0B50C0083B0EFF31088EB
:100C000072B65D4A1368002BFCD0BFF35F8F5B4B5D
:100C10005B499A68030010339F00D5598D4239D043
:100C2000A5424AD0574EAA1B2F2A33D801229246FA
:100C3000824091464846544A126810400190484606
:100C4000524A1060BFF35F8FEFF305829346002A8C
:100C500035D0934201D001F0FBF92A0053469A4364
:100C60009068844208D175E04B005B189B00F31834
:100C70009868A04234D01A00062151560029F3DAB0
:100C8000844253D0019B002B26D04A46404B1A6029
:100C90003D4B1A60394B9B68DD51BFF35F8FBFF34B
:100CA0005F8F0022344B1A6088F3108803B0F0BCC9
:100CB000BB46B246A946A046F0BD0D00EAE72A00B1
:100CC00053469A4390688442D6D1062010561300AA
:100CD000002809DA0D0031E04A462C4B1A60D9E7AA
:100CE00006201856002822DB4200111889007418CB
:100CF0008A46A1689960E179D97106216156997196
:100D0000002925DBA488F11A640524155444091927
:100D1000E0240905490D24022143998013181D4A36
:100D20009B001178F31899711070ABE713005946C6
:100D3000002914D1FF3191711749918015490A7822
:100D40009A71164A9B1B5B415A43120D0A7099E730
:100D50001349E2E70620105613000028C4DA114AAE
:100D60001149D21A083A5002400D014399800F49A7
:100D700052080A43DA8085E7240100D000ED00E044
:100D8000CD0100100C14002000E100E080E100E043
:100D900080E200E0DF56022001BDFFFFAAAA0000AA
:100DA00001BD00004614002000F0FFFF00F8FFFF27
:100DB000032310B50400074A18409446C0009C4322
:100DC000FC3383406444226881409A4313000B4300
:100DD000236010BD00E400E0F0B5EFF30584C646E3
:100DE000012600B50643EFF3108C72B61C4A136857
:100DF000002BFCD0BFF35F8F1A4FA400BB681A4DC5
:100E00001B590200984619490023521B5241514375
:100E1000090D2A0049B2B04515D0062414578C425A
:100E200015D001330C32042BF7D1114B1A781970FD
:100E30008271BFF35F8F0022094B1A608CF3108818
:100E400080BCB846F0BDBB680A4A1A51EDE75A00AB
:100E5000D3189B00ED18FF23AB71074BAB80E4E781
:100E6000240100D000ED00E00C140020AAAA00002C
:100E7000DF560220CD01001001BDFFFF054B064AE1
:100E80001360064A136053609360D360136153612B
:100E9000936170478080808000E400E004E400E01B
:100EA000024B9C4661448900016070474000003459
:100EB00010B50400FFF73EFE01002000FFF7F0FF31
:100EC000FF232371BFF35F8F10BDC04610B5040030
:100ED000FFF730FE01002000FFF7E2FFFF23A380B1
:100EE000BFF35F8F10BDC04683680B4810B58446C2
:100EF000614462441201090159189B185C684A68F0
:100F00000120944201D802D00020C0B210BD1A685E
:100F10000B689A42F9D8F7E7FFFFFF0F0A4B1968F1
:100F2000EFF3108072B60A68002AFCD0BFF35F8F1F
:100F30001B68BFF35F8F00221A6080F3108840BFE8
:100F4000002000217047C046B4560220F8B50B00BF
:100F500004004168EFF3108572B60A68002AFCD0DD
:100F6000BFF35F8FFF222068D9B2467B1A408E42C2
:100F700007D006685700BF18F619033EB678002E52
:100F800010D0E6681B0AB218013A1278DBB29A4216
:100F90000DD000206368BFF35F8F00221A6085F3D5
:100FA0001088F8BD22699342F3D12661F1E700F081
:100FB0000FFDEFE7F8B557464E464546DE46E0B52D
:100FC00098460CAB1C780DAB1B78070091469A46EF
:100FD0000668002C3BD02300650031682D19033DC5
:100FE0004919374A944663441A01BB689B184A461C
:100FF0001A6042465A600A9A9A600B9ADA60002395
:101000008B704B700B70737B9B46002B3BD0220088
:1010100073685946B06898475B465B005B4432682A
:10102000033B002827D058465519A870D118D35C27
:10103000002B00D06B705B460C7073735C4523D043
:101040002000F0BCBB46B246A946A046F8BDB07B26
:101050000028F6D0450031682D18033D49194A781B
:101060000300B273002A00D1F273002204008A70D8
:101070004A700A70B5E7D3189C705119525D002A66
:1010800018D15B460B7074734A464346387D00F0B6
:1010900055FB051E06D10E9B002BD1D00E9B2000C8
:1010A0001D70CEE75346002BF5D12100386800F0C3
:1010B0008FFCF0E75A705B460B707473E4E7C04630
:1010C000FFFFFF0FF0B5DE4657464E46454600236C
:1010D000E0B58BB00893684B8200D45800239B4640
:1010E000099000F097FA02000B006068EFF3108A95
:1010F00072B6564601680029FCD0B246BFF35F8F36
:1011000021684F7B8C46002F2ED0A5685B49A946ED
:1011100079180901894449460868496805000E00A4
:10112000AD1A9E41002E5FDD02000B00099800F011
:1011300005FB002300229946002306920793002313
:1011400098466368BFF35F8F5A461A608AF3108827
:101150004346002B12D10028C3D10BB0F0BCBB46D4
:10116000B246A946A046F0BD0023002299460023BE
:1011700006920793002300209846E2E7089B494621
:1011800018023843C047626805000E00EFF3108A6A
:1011900072B61368002BFCD0BFF35F8F002E41DBCB
:1011A0002B00334302D02369002B56D12368DA7B0E
:1011B000002A05D01968500082188A18033A57701F
:1011C0009A7B002A00D19F73DF73E268013FD35DF1
:1011D0000133D3555B4623616368BFF35F8F5A4683
:1011E0001A608AF310887CE7002E02D1002D00D00F
:1011F0009AE70021604600F0BFFB4B461A685B6827
:10120000069207934B469B6898464B46DB68994687
:10121000E368DB19013B1B7808931B02034323613E
:1012200000208EE72369002BC0D0069A079B8021FF
:10123000521BB34109068B4202D30122104B52428A
:10124000002104910131039149460191414620005A
:1012500002970091FFF7AEFEBCE700F0DBF92A0031
:10126000330012184B41802109068B42E8D301223A
:10127000034B5242E4E7C046A0280120FFFFFF0FC6
:10128000FFFFFF7F10B5144C6368002B04D00A21C8
:101290001248FFF705FE10BD2300114A10212068F7
:1012A00000F0FEFA032000F0A9F9032000F0AEFAE6
:1012B00003200C4900F0FCF9FFF73CFC0A4B9C466C
:1012C00003232375D0231B061B6860446375074BFB
:1012D00080006060DC60DAE754140020B45602201D
:1012E000E90E0010C510001040000034A0280120B5
:1012F000F0B557464E46DE464546E0B58BB01F007A
:10130000149B80469B46159B16009A4616AB1B788D
:1013100002AA079300239946D37743465A68EFF30E
:10132000108472B61368002BFCD0BFF35F8F02AA43
:1013300094461F23634404934B46039302935346FE
:1013400001935B463200009340463B00FFF732FEBC
:10135000434600280DD15B68BFF35F8F186084F3AC
:10136000108801380BB0F0BCBB46B246A946A04677
:10137000F0BD4246DB6852681B18013B1B78BFF387
:101380005F8F4946116084F3108802AAD27F002A39
:1013900002D11B021843E5E7079B002B1DD05146E5
:1013A0000020D84703000B4317D004000D1E09DAB4
:1013B0008023361BAF411B069F42AED30126084F48
:1013C0007642AAE700F026F98023001969411B063E
:1013D00006000F009942A0D3F0E70020C2E7C04604
:1013E000FFFFFF7FF0B504000D0006267642F717D9
:1013F000C64636196F4100B584B08F4214D811D05B
:1014000000F008F932003B00121A8B41002B15DC6A
:10141000002B3ED02000290000F03AF904B080BC37
:10142000B846F0BD8642EBD90026002700F0F2F85E
:1014300032003B00121A8B41002BE9DD002302939E
:101440000193154B3200009314483B00FFF750FF07
:101450000028DFDB00239846BC46114A114F7B6A07
:101460009C4504D8B96A8E42D4D99C45D2D1116822
:10147000EFF3108072B60B68002BFCD0BFF35F8FC8
:101480001368BFF35F8F4146196080F3108820BF57
:10149000E5E7002ABED0D1E71D0F0010541400204C
:1014A000B45602200040054070B5060000F0B2F8C6
:1014B000FA2204000D00002330000021920001F008
:1014C000D5F88023001969411B06994202D30120F7
:1014D00002494042FFF786FF70BDC046FFFFFF7F15
:1014E00070B5EFF3058305000C0084B0002B0FD01E
:1014F000104A0020536AA34203D3926A0130AA42E1
:1015000001D304B070BD1B1B5A1E9341D8B2F8E73B
:10151000094E02930193094B0200009330000B0027
:10152000FFF7E6FE011EE3DD20BF3000FFF70EFDF2
:10153000DEE7C04600400540541400201D0F001097
:10154000F0B5EFF30582D6464F4646461000C0B5CB
:101550001038EFF3108872B6214C2368002BFCD0B2
:10156000BFF35F8F0123190081401E4D1F00696387
:10157000AA461D4D29601D4D2E78AC463500C5404C
:101580002F402B4215D053465F6A194B8500EB580C
:101590009F4218D36246174B8E43EB581670BFF329
:1015A0005F8F0022226088F31088002B06D09847B6
:1015B00004E0BFF35F8F276088F31088E0BCBA4671
:1015C000B146A846F0BD0C4B92009C46624413689D
:1015D0001360BFF35F8F0023236088F31088EDE76B
:1015E000280100D0004005403C700540E056022034
:1015F000B8560220301E0020D03F054010B5034BE6
:1016000001001800024AFFF717FA10BDDC5602204D
:101610000C440010034B596A0A00986A596A8A42BE
:10162000FAD170470040054070B504000D00174A1C
:10163000536A1900966A536A8B42FAD13000190036
:1016400024184D41AB4216D813D0104A2B00526AD1
:10165000954203D90D494A6A9A42FCD39A4207D16E
:101660000A4A02E0516A994202D1916AA142F9D331
:1016700070BDA642E9D9054B5B6A1C005A1CEFD02D
:10168000012301246442E5175B42E3E70040054083
:10169000064A536A9942FCD807D1044B02E05A6AC1
:1016A000914202D19A6A8242F9D3704700400540C4
:1016B00070B504000D00EFF3108672B61A4A136875
:1016C000002BFCD0BFF35F8F002D1BD02000FFF755
:1016D0005BFA164981420AD02000FFF75DFA01212A
:1016E0002000FFF733FA0123A340114A1360114B86
:1016F000A400E550BFF35F8F00220B4B1A6086F306
:10170000108870BD0121A1400A4BA200D5500A4BA0
:1017100020001A788A4305491A70FFF767FA0021FA
:101720002000FFF713FAE5E7280100D0411500106B
:1017300038600540301E0020E0560220F0B54F46CC
:10174000D6464646C0B507002B4C616A0D00A66A16
:10175000616AA942FAD18B4208D805D00120E0BCC9
:10176000BA46B146A846F0BDB242F7D9EFF3108AA7
:1017700072B6224801680029FCD0BFF35F8F0125B3
:10178000BD401F491C4C8846097889462943C9B287
:101790008C46414660460870391D890065630A51D0
:1017A0001849B8004350216A0020294219D0616AC3
:1017B0000800A66A616A8142FAD18B4219D801D128
:1017C000B24216D8CC450BD00B4B1F221D625D6375
:1017D00001233A4093400C4A136043464A461A702C
:1017E0000120BFF35F8F0022044B1A608AF3108838
:1017F000B5E70020F5E7C04600400540280100D0CD
:10180000E0560220B856022080E200E0EFF3108C90
:1018100072B60A490B68002BFCD0BFF35F8F01231F
:101820008340074A0748136202789A430270BFF365
:101830005F8F00230B608CF310887047280100D065
:1018400000400540E056022070B506000D0014006F
:1018500000291DD0002A12D0736880689847620062
:101860006B0012195B193168033A033B002808D05A
:101870008A189570C818CB5C002B0BD10470280017
:1018800070BDCB189C7088188A5C002A05D1057041
:101890002000F5E753700470F1E75A700570F7E720
:1018A00010B583600023CCB24373013342600473EC
:1018B0008373C4730068421C012C05D90133DBB269
:1018C000137003329C42F9D1FF230B405A00D31806
:1018D000C01800230338437010BDC04670B5040023
:1018E000081E07D0430021681B18033BCB185A7809
:1018F000002A00D170BD5500AD18033D49190025DF
:101900004E784D705D7001002000FFF79DFF3100A3
:1019100005002000FFF7E2FF290002002000FFF78A
:1019200093FFE7E7F8B54D006D180368033D0E001F
:10193000595D17000400FFF7D1FF002F0CD1236879
:10194000002805D00021420012189A18033A91701D
:1019500000225B195A70F8BDE17B2368002904D08E
:101960004A0052189A18033A5670A27B002A00D1F6
:10197000A673E673E4E7C046F8B5467B03687500D6
:10198000AD19033D0F00595D0400FFF7A7FF002FBD
:101990000ED12368002805D00021420012189A18A1
:1019A000033A917000225B195A7060733000F8BDE1
:1019B000E17B2368002904D04A0052189A18033AA0
:1019C0005670A27B002A00D1A673E673E2E7C046F8
:1019D00070B5050000292CD0437B8B422ED04C00E3
:1019E00000686418033C0419A278002A21D053002F
:1019F0009B18033BC25CC6188A4202D11BE0002A36
:101A000008D053009B18033BC3185A788A42F6D17A
:101A100062785A70002301222800A3706370FFF7D8
:101A200081FF697B02002800FFF70EFF6873012029
:101A300000E0002070BD63783370EBE701221900ED
:101A4000FFF770FFF2E7C04670B516000D001900F1
:101A50000400FFF725FA2900701C00F083FE002324
:101A6000E681A5816060A36070BDC046F0B5C64642
:101A7000076B04000E00150000B5FB070CD4E36AE9
:101A800022005E4080232C325B01354013431D60F1
:101A9000276380BCB846F0BD0200C02330329B01F2
:101AA00013430C4A1A60436A826A9B0198460620D7
:101AB000904400F09DF9434607499B02984600F088
:101AC00055FB0100404600F051FB0021FFF7ACFD43
:101AD000D5E7C046010300004E0E000070B50400BB
:101AE00006200D0000F084F92900C00000F03EFB44
:101AF000C30906D0104A934214D900230F4D104950
:101B000001E040250121002261622000A362002142
:101B1000FFF7ACFF062000F06BF92900800000F011
:101B200025FB70BD7F220240013252089D01190041
:101B3000AD181300E7E7C046FEFF0000C0FF3F00FE
:101B4000FFFF000070B5040006200D0000F050F902
:101B5000061E31D0194B1A49E3185A1E93418022B0
:101B6000120494465B429B0D164A9B056344136026
:101B7000154A136018008A689043FBD10F4B134A33
:101B8000E31859424B4180215B00490099522000E3
:101B90002900FFF7A3FF6E22060060212000FFF757
:101BA00065FF220080232C329B01134310221A6010
:101BB000074B23630323A364300070BD0080FCBF88
:101BC00000C0004000E0004000F00040C856022085
:101BD00001030000F0B5DE464E4657464546E0B5E7
:101BE00083B001921A0E93461E0205000023894617
:101BF000300059460C9A00F0F7FA374B6C009C46BF
:101C00006419A400644463680700834200D26060E2
:101C10002B1FDBB29846012B38D9C02380229B01B1
:101C2000234312011A602D4BAD0059599A460029E1
:101C300023D1019B22685B015340E0221A4080239C
:101C40005B0123431A604246012A38D9802380224F
:101C50009B01234312011A6030003A0000235946C9
:101C6000676000F0C1FA53465851012003B0F0BC40
:101C7000BB46B246A946A046F0BD586900F076FAC8
:101C8000013043001B18033BFDD2D2E74B46012B2A
:101C9000C3D1C02303229B0123431A60023AA368E5
:101CA0001A42FCD0019B22685B015340E0221A409B
:101CB00080235B0123431A60084AAD0092464A46DE
:101CC0002168514003220A401A6001224B469A4083
:101CD000A3681A42FCD0B9E70080004048230020E6
:101CE00010B582B0049C9C4204D80094FFF772FFA8
:101CF00002B010BD0020FBE730B50C2083B000F02F
:101D0000DDF8FEF77BFE00280BD02D482D4A0100A0
:101D10000300283104C38B42FCD12B4B436203B038
:101D200030BD2A4CA06700F0D1F80122284B1A6080
:101D3000636C012BFCD10322264B1A60234A936B60
:101D4000012BFCD1013300930121234A23480433A2
:101D500000F054F8052301210093214A214800F0A6
:101D60004DF8214B214D174C0093002202210420F5
:101D7000FFF730FF2B000022012100950520FFF71F
:101D800029FF23000022002100940720FFF722FFF3
:101D900023000022002100940820FFF71BFF0A4BBC
:101DA00000220093002123000920FFF713FF2B00DE
:101DB0000022002100950620FFF70CFFAFE7C04688
:101DC00048230020006CDC021BB7000000800040AC
:101DD0003CB0004030B00040002F68590080024005
:101DE000008C864700C00240001BB70040597307B3
:101DF000014B8000C058704748230020F8B504000C
:101E000022481E0017000D0000F0B0F90100380054
:101E100000F0ACF9069B36041B031E432368002B1D
:101E200022DB1B4B1B49E3185A1E9341802292016F
:101E300094465B421B0B184A1B0363441360174A0A
:101E400013601F008A689743FBD1C022231D9201B3
:101E50001A4321232560A06013602368002BFCDA5D
:101E60000823E6601360F8BD3F2322681340AB42AD
:101E7000D7D1A3681B051B0D8342D2D1EE22E368A4
:101E8000D2021340B342CCD1EDE7C046001BB700ED
:101E90000040FDBF00C0004000E0004000F00040F6
:101EA000044B00011B68044A5840F02303401360B0
:101EB0007047C04600400640005006408023024A5A
:101EC0009B000343D362704700800540AA23064A63
:101ED0001B0113602F230549D360054B196053681C
:101EE000002BFCDA7047C0460040024000B0FA0008
:101EF000006002402B4B2C4A70B51A602B4A2C4BC9
:101F00002C491A6014008B689C43FBD12A4D2B4E40
:101F1000B54208D2013E761BB60808CD984723008B
:101F20000134B342F9D1FFF7E7FE254A204B1A608E
:101F3000204A9368DB43DB01DD09002BF9D1402205
:101F4000204B214C214E9A675A671A67DA66B442D1
:101F500008D223682000002B20D00834FEF7B6FFFB
:101F6000B442F6D31A4C1B4EC022B168200000F0D8
:101F700027FCB460FEF7D0FDFEF780FFFFF782F983
:101F8000154C164EB44208D2013E361BB60808CC9A
:101F900098472B0001359E42F9D170BDFEF788FFAE
:101FA0000834D4E700E00040BFCDFBFEFE7F3C00DC
:101FB00000F0004000C00040041A0020141A002065
:101FC000FFFFFF0100F00140F4190020041A002077
:101FD0000000002000ED00E0141A00201C1A002070
:101FE00000BEFDE7094A03001068002805D0084933
:101FF000C3188B4207D81360704706480449C318BA
:1020000010608B42F7D901204042F5E77C26002082
:1020100000000420E456022010B5FFF7E1FFC0469F
:102020000FB400B5084883B000F09AFC049B002B65
:1020300007D005A91800019100F018F8034800F036
:102040008FFC0120FFF7CCFF30440010404400100B
:1020500010B50148FFF7E4FF4444001010B5002814
:1020600000D110BD00F06EFCFBE7C04610B5094A78
:102070000300146884B0002C08D0012200910648A7
:10208000524203A9A047012004B010BD00F068FC33
:102090000020F9E7802600205D200010014804217F
:1020A000014B184780140020D9200010014B9B6879
:1020B0001847000080140020142310B50100188870
:1020C00004331B88984710BD162310B501001888EB
:1020D00002331B88984710BDF8B54746CE4680B5F9
:1020E0000F1E19D01423994604330400002501263D
:1020F00098464B461888434621681B88984701C478
:10210000431E9841013540420640AF42F1D13000B4
:10211000C0BCB946B046F8BD0126F8E7124A936F35
:102120009B0815D29066D166002905D0FFE7FFE72E
:10213000FFE7516F106F704704B580210906C21781
:102140005140002800D0C84302F02EF9002104BD00
:10215000F0B5146E556E576F166FFFF7E3FF1466F8
:10216000556657671667F0BD000000D0114A936F9F
:102170009B0813D210665166002905D0FFE7FFE7E0
:10218000FFE7516F106F704704B5002801D00020A1
:10219000C04302F009F9002104BDC046F0B5146E39
:1021A000556E576F166FFFF7E5FF14665566576754
:1021B0001667F0BD000000D094464A4A926F92081C
:1021C000624601D228E0C046F0B5464E346E756EC8
:1021D000776F366F00F020F89446424A14665566D1
:1021E000576716676246F0BD94463E4A926F920862
:1021F000624601D254E0C046F0B53A4E346E756E78
:10220000776F366F00F04CF89446364A1466556680
:10221000576716676246F0BD002B24DB11D00029FA
:102220003EDA00B5C943404200D1013100F038F830
:10223000C943404200D10131DB43524200D1013356
:1022400000BD002AEBD1002801D1002905D00020D3
:10225000C90FC90701D1C043410800B502F09CF87D
:102260000022002300BD00B500290ADBDB435242F7
:1022700000D1013300F014F8C943404200D10131CC
:1022800000BDC943404200D10131DB43524200D17D
:10229000013300F005F8DB43524200D1013300BDA9
:1022A000002923D1002B18D1002A0CD0BC460D4F99
:1022B00038667A6600210023FFE7FFE7FFE77A6FC1
:1022C000386F67467047002801D00748010000B505
:1022D00002F062F80022002300BD02000B00002083
:1022E00000217047000000D0FFFFFFFF002B00D04F
:1022F000BFE0130C28D1002AE7D080B4114F396613
:102300007A66FFE7FFE730B4040C7B6F396F1B047C
:1023100023433B667A66FFE7FFE7FFE7C04684B2E8
:102320007B6F3D6F1B0423433B667A66FFE7FFE745
:10233000C04600232C042D0C7A6F386F00196941B8
:10234000B0BC7047000000D0F0B594460025140ED4
:1023500001D112020835140F01D112010435940F76
:1023600001D192000235D40F01D152000135D40BB6
:102370000134254F7C66254C3C660E0C93B2FFE77A
:10238000FFE7FFE73C6F6643360C7703BE467343B7
:10239000DF0B5B04C01AB941130C7343DB18C91A75
:1023A000CE086643360CB64493B273431F0F1B012D
:1023B000C01AB941130C73431F0B1B05C01AB94156
:1023C000860D8F023E436643360C092D24DB520AEC
:1023D0007243801A7703460A6643360C16235B1B4A
:1023E000DE40DF40BF1964466643821B70460435F9
:1023F00006330100D940A840C01900D30131A242E0
:1024000006D20023F0BD0000000000D0FFFFFFFF58
:10241000121B0130F3D3F1E709277F1BFE4064460E
:10242000A2B27243801A00D20139220C7243130CFB
:102430001204821A99410B007046043513370100CB
:10244000F940A840801900D30131002B02D1A242EB
:102450000AD2F0BD013000D30131121BFAD2013B88
:10246000F8D1A24200D2F0BD013000D30131121BDD
:10247000F7E7F0B51C0C00D080E00CB400251C0A76
:1024800004D11B02160E3343120208351C0B04D173
:102490001B01160F3343120104359C0B04D19B0022
:1024A000960F334392000235DC0B02D192185B4148
:1024B00001351C00971864410134464F7C66464C38
:1024C0003C660E0CFFE7FFE7FFE7C0463C6F664344
:1024D000360C7703BE4697B27743C01B00D2013952
:1024E000C01B00D201399FB27743C91BC91B170C0F
:1024F00077437E04FF0B801BB941CE086643360C40
:102500000C2D33DBB644120B1F053A431B0B97B25D
:102510007743C01B00D201399FB27743C91B170C08
:1025200077433E043F0C801BB941860D8F023E432A
:10253000664329277F1BFE400C3D7746AF40BF19FD
:1025400030BCA2B2ABB272437343801A9941220CE1
:102550007243130C1204801A994102000B000137D8
:10256000001BA941F9D2781E0021F0BD0C277F1B6A
:10257000FE4077467F0BAF40FF19E0E700245D1C6B
:1025800007D0144F7D663966FFE7FFE7FFE7FFE7F7
:102590003C6F95B29EB265436643401BB141150C3A
:1025A0001E0C6543664336042F0C3E432D04401B2E
:1025B000B141994204D202000B0020000021F0BD7D
:1025C00001D19042F7D3801A994101349942F2D354
:1025D000F6E70000000000D0FFFFFFFF132370B5F7
:1025E0001C78012C15D010DD1048FFF76DFD104D43
:1025F00001008022280000F0E3F8022C13D00D48DF
:10260000FFF75AFD0C4B186070BD0C4A084DAA64C8
:10261000F5E7074D094A29002B00803104C38B429E
:10262000FCD1AA64EBE7054AAA64E8E7534400003A
:10263000B05402204C330000B05502204126001057
:1026400007B5604601880A0A0230DF2AFAD1C9B20A
:10265000820804D3028840880004104300E0006828
:10266000014A5050039007BDB054022051434343E8
:10267000C9188C46110C83B24B4310B4040C61434F
:1026800092B280B2504362431C041B0C001910BC70
:1026900059411304120CC0185141614470470000A5
:1026A000132310B510481C78FFF70EFD0100012C14
:1026B0000AD003DD80220D4800F082F80C48FFF7B5
:1026C000FBFC0C4B186010BD084C5422200000F09D
:1026D00077F823002100084A5433803104C38B4229
:1026E000FCD12262E261E9E753460000B4550220C2
:1026F0004C330000B0550220FD26001007B560469F
:1027000001880A0A0230DF2AFAD1C9B2820804D34A
:10271000028840880004104300E00068014A5050DD
:10272000039007BDB455022070B504000A4E300076
:1027300001F04AFE200001F029F90500300001F007
:1027400023FE002D05D0054B2C199C4201D82800F2
:1027500070BD0348FFF764FCF4190020000004205A
:102760005044001070B505000C000B4E300001F015
:102770002BFE2800210001F0A9F80500300001F02F
:1027800003FE002D05D0054B2C199C4201D82800D2
:1027900070BD0348FFF744FCF4190020000004203A
:1027A0005044001001480421014B184790140020A8
:1027B000D9200010014B1B6818470000901400201E
:1027C000014B5B681847000090140020030010B50F
:1027D000080011001B68984710BDC046F0B5C646FA
:1027E00000B5437D07000D001600002B38D0002AED
:1027F0002EDD00216A1E90466A5C037D4C1C002081
:102800000A2A0CD0A64216D043461B5D21000D3B80
:102810005A4253416A5CDBB24C1C0A2AF2D1002BAB
:10282000F0D1814217DC022110483B689847A6424C
:1028300007D02000E8E7864203DD311A3B682818FC
:102840009847AD19013D2B780D3B5A4253413B75DA
:1028500080BCB846F0BD091A3B6828189847E2E7E3
:102860000368110028009847F2E7C046CC490010E1
:10287000F0B54546DE464E465746E0B585B0914632
:102880001C0080460D00FEF7C5FE0023264A1218E4
:102890004B41802109068B4202D30122234B524235
:1028A000234908008A4601F087FD01906B1C03D183
:1028B000404601F095FB0500002C2ED01D4F1E4B0D
:1028C0001C68002C1FD00A231C4E9B4602E0246982
:1028D000002C18D02368002BF9D03368002B01D0CE
:1028E0009C42F4D12A0041462000B8474B46002BB9
:1028F000EDD05A4602AB2000DA71D91D0122B8474B
:102900002469002CE6D1019B002B08D105B0F0BC56
:10291000BB46B246A946A046F0BD094FCFE7504698
:1029200001F032FDF2E7C04640420F00FFFFFF7F9B
:10293000FC190020CD270010B823002074260020A9
:10294000DD27001010B582B06B4604000022D81DB0
:10295000012100230470FFF78BFF200002B010BD9F
:1029600070B5040001F03CFB0023010005000122CA
:102970002000FFF77DFF064B1C68002C06D0636823
:10298000002B00D098472469002CF8D1280070BD96
:10299000B82300200A4A1368002B05D10CE01A0066
:1029A0001B691032002B07D09842F8D1002902D1C0
:1029B00003691360016170470029FCD01060FAE7D9
:1029C000B8230020F0B5002915DD0E4B0D271A683D
:1029D0000D4B0E4CD3185D426B41451820215B0016
:1029E0001E5F0478A64207D093691942FCD10130DA
:1029F0001460A842F5D1F0BD93691942FCD117606B
:102A0000F2E7C046CC5602200080FCBFC856022028
:102A1000214B70B504000D1E1E682CDD0020102116
:102A20001E4B013C1A689369194215D10130936914
:102A30001942FCD1136823548542F4D1002E09D0E9
:102A4000502338219363536B3432194080235B0148
:102A50001343196028000DE0002E09D050233821BF
:102A60009363536B3432194080235B011A43116026
:102A700000280ED070BD002E0BD050223821074BFD
:102A80001B689A635A6B34331140802252011343FE
:102A9000196003204042EDE740230020CC5602207D
:102AA000064B10B51B68002B06D00021044A1268A3
:102AB0009163044A1068984710BDC0464023002027
:102AC000CC560220442300201D4BF0B51A68C646A0
:102AD00098461C4B0E00D31859424B411A4F1433E1
:102AE0001C00050000B53B68002807D0002B11D062
:102AF000164B3D601E6080BCB846F0BD002BF7D081
:102B0000906300212000FEF721F820001049FEF715
:102B10006DF8EDE720000E49FEF73EF80121200098
:102B2000FEF714F84346502238211B689A635A6B0B
:102B3000343311408022520113431960D8E7C04654
:102B4000CC5602200080FCBF4023002044230020FC
:102B5000A12A00100C4B10B51B780C4B0C4C1B78A9
:102B60000C4B022100202360FDF7DEFE0221012034
:102B7000FDF7DAFEE12120684902FEF7E3FF0121BB
:102B80000548FFF707FF10BD2C4A0010284A001027
:102B9000CC56022000400340A014002003BDC046D4
:102BA00010B50400FEF76AF9A04710BDF0B50400A7
:102BB00087B00F200E001700FDF7DAFF0021050097
:102BC0000F20FDF7C3FF0023002200920193012391
:102BD0000293D023049605940026002401210220AC
:102BE00003971B06002C14D01A6D1042FCD05C65B4
:102BF00040BF1A6D114203D120BF1A6D1142FBD0A4
:102C00009A6DA2420AD000266C46B200A458E9E7A9
:102C10009A6D1A6D1142FBD140BFE5E70136062ED1
:102C2000F2D129000F20FDF791FF07B0F0BDC0469B
:102C30000D4B0E4A10B5934210D30D4A99181A0045
:102C40000B4C1051FF20C00013500A4B0A48135080
:102C50000A4B0B489A68FFF7A9FF10BD01235B429E
:102C60001A000849ECE7C04600080420640104206B
:102C7000F4070000A12B0010FC07000000ED00E0AD
:102C80009D2B0010F30700003423F0B5DE465746B5
:102C90004E4645469A46E0B505008244504683B00C
:102CA0008946904600F076FA28002E003C302F1D11
:102CB00000F07AF93C004036012000F0D7FB20609C
:102CC000012000F0D3FB606004CEE86B131D9B0075
:102CD000C318A360524BC318591E8B41DB009B18CD
:102CE000E3601034A245E7D19C2200239D2092008E
:102CF000AB50083AAB5080000432AB5004214B4635
:102D000008222818FEF7A0FEA1239B00EC18082239
:102D10004B4604212000FEF797FEA5208000434685
:102D2000082204212818FEF78FFEA92080004346C0
:102D3000082204212818FEF787FE2B000122390003
:102D40002868683300F02AFA2B000022390028682E
:102D5000E83300F023FA2B00802269333900286819
:102D6000FF33920500F0A8FA2B00E933FF3300226D
:102D70003900286800F0A0FA03239846A1239B009D
:102D80009B46002619E04F4660689A0017503200B3
:102D900001339BB299427241524213402381BFF3E7
:102DA0005F8F019B1E608CF3108840BF01235B4244
:102DB0009C46E0444346002B28D02B681B695800F2
:102DC000C01840088000FFF7AFFC8146002824D0DF
:102DD0005B46EA58EFF3108C72B61368002BFCD0F8
:102DE000BFF35F8F23896289E1899A1A01D5481C54
:102DF00012185846285801908A42C4D1BFF35F8FF9
:102E0000019B1E608CF3108820BFE1E703B0F0BC8B
:102E1000BB46B246A946A046F0BD0248FFF700F9FE
:102E20000000E0AFEC440010F0B50E000121836813
:102E300034229940C646944688460024012500B5B0
:102E4000031D84442F001A68290097403A005F68E8
:102E50001033B9400A4314436345F3D1A0224146DD
:102E6000124BD205D1500B2E12D0114B1B6859407A
:102E7000104B0C401C60104B104958600C20FDF7A3
:102E80008BFE30000121FDF761FE80BCB846F0BD2D
:102E90000B4B0C4A1B684B4023401360064B0A49FE
:102EA00018600B20FDF778FEEBE7C0460C0400002D
:102EB0001404005014140050B0230020D108002046
:102EC0000404005004140050F5080020F8B5344BF9
:102ED000DE469B46E823454657464E469846E43B29
:102EE000E0B59C4600252F4F041D8044A02659467E
:102EF000F605B1462368DA023A400A43616889015F
:102F00004944C146002D3CD0012D36D0A024E40513
:102F1000A44604009B0149346344FF341C6059609B
:102F2000042199601A61012211004368140099403C
:102F30000B00416906008C40416A23438A401343D9
:102F40008622614604000125D2008B50C16B4034BB
:102F50004C362A00236810339A404B681A42FCD042
:102F60000434A642F5D101213C3000F0E3F8F0BC76
:102F7000BB46B246A946A046F8BD94267600B146A7
:102F80008144A026F605B2464E469B0153441E607E
:102F9000596061460135996010341A61A6E7C04650
:102FA00039851F00FDFF1FFFF0B5DE464546574639
:102FB0004E46E0B5040087B05749006800F018FBA2
:102FC00003000133C2011B031343544A82461340DA
:102FD000019310239B46A0466062251DA3444346EF
:102FE0002968186800F0ECFA434603241F68EE686D
:102FF0002B68B440994602222300B240380049466B
:1030000000F014FB0122230052423800494600F030
:1030100061FB434B3000FC18631E9C4106342100C9
:10302000FDF782FC2100701CFDF77EFC80235B0213
:103030000293019BB60203938023DB053343059380
:10304000384B380052464946049302AB00F0EAFB85
:10305000494601228A403B6880269343324A3B60BE
:103060002027434694467124E868D95D8300634471
:103070001A687601224033431A60FDF77FFC2A4A22
:1030800043469446E868D95D0130830063441A687A
:10309000334314401C600435FDF770FC5D459ED140
:1030A0004446E5692A07520F93009B181F4A9B006C
:1030B0009446002263441A609A60DA6009321A6109
:1030C00007325A600C3A1A60194ADA606B1C1CD03D
:1030D000154BAF009C4620239946513398466744D0
:1030E00028000421FDF720FC4B464246E15C3B688A
:1030F0002800134032003A431360FDF73FFCE369B8
:10310000013501330437AB42EAD207B0F0BCBB460D
:10311000B246A946A046F0BDE4490010FFFFFF9F5C
:103120000000E0AF00000E6804C001400000054050
:1031300005000500012230B51400436815009C40CD
:1031400023008468A5402B431500C468A5402C00CB
:103150000568C0691C430007400F83001B180C481A
:103160009B0084468020634440011843002907D017
:103170008021890129430C601B689A43026030BD9D
:10318000C021890129430C601B681A400260F6E7E0
:10319000000005400023036003717047F0B55746F7
:1031A0004E464546DE46E0B5067D0124B61A72421B
:1031B00056413C4A0578904685B0760002926C40B4
:1031C00034433543029E8F68A4004444B046BC4655
:1031D00042685F60039252089A604A68324FD20296
:1031E0003A40BA46CF68AD00FF033A432F4F4544FB
:1031F0003A40B9460F686646FF023A432C4F1C60BE
:1032000001971743BB46DF6087681D6165465D61B6
:103210007D089D615D46DD61C5685E626E089E62E7
:10322000244E1C62324099263243DA6202691C63E2
:1032300064465C635C46BC4652089A63DC63039850
:103240001C00604460334519904601201A000300B9
:103250009446029F6D0810314034524648682760FA
:10326000C0021040CA688E68D20310434A4610401C
:103270000A686660D2021043019AA5601043424674
:10328000E06027616661A261E061022B03D06446C1
:1032900002231031E1E705B0F0BCBB46B246A946B7
:1032A000A046F0BDC40B0020FD7F00FFFF87FFFF9D
:1032B00099002000FFFFDFFFF0B557464E46454618
:1032C000DE46012492460278E0B59446027D87B03E
:1032D0006240D2B252009046624654404246E4B246
:1032E00014435B4AA40091460092220045688E6810
:1032F0004A440392B1461A605E606A084E689A605A
:10330000544FCA68F402D203029505940D68274011
:10331000514C1743ED02A3462740504C2F433C43EA
:103320000494DC6084684646019464463443A600F5
:10333000009CB446A046C44466461E614E46019CAD
:103340005E6166089E61C668049CB446039EDC61AB
:103350001E624E465E62664674089C62404C602661
:103360003C4099273C43019FDC62B846029C394FA0
:103370004444644494462A00059D64083D406746E1
:10338000A046B14604693D4300205F4656460831D9
:10339000C2466408994401933D40002837D04F4607
:1033A000012802D1019B40331F00009B15433B6065
:1033B0000B682A4A7B605346BB6010232A43984619
:1033C000FA603A004244002E29D027004743BF004C
:1033D000BC46B444674617600F680130BC46214FB5
:1033E00094603D436746D5605760032829D04A69F9
:1033F0008F68D2039446CD68FA02164FED023D4025
:1034000067463D435F4610313D400028C7D1302319
:10341000019F984615433A004244002ED5D18300BF
:103420009C46114B01309846C444634613600B68B8
:1034300094609C466746094B57601D43D56003283E
:10344000D5D107B0F0BCBB46B246A946A046F0BDF8
:10345000C40B0020FD7F00FFFF87FFFF99002000C5
:10346000FFFFDFFF19002000B80B002010B5064B4E
:10347000064C82B00100009300220B232000FDF7D0
:10348000FDFA02B010BDC0460C450010D85602200F
:1034900003680B6043684B6083688B60C368CB60D4
:1034A00003690B61C36A4B61036B8B617047C04654
:1034B0000B6803604B6843608B688360CB68C360B4
:1034C0000B6903614B69C3628B6903637047C04634
:1034D000F0B54646D6464F460523C0B5CB560E79C5
:1034E000002B01DB9A423AD11E4BC3185C42634168
:1034F0009B0098461C4C2300A24644461B59994603
:103500000123B340013B93404C464D469C461C4032
:103510002B4224D1002E17D080274D780B782D0216
:103520001D438B78BF011B042B43CD782D061D4313
:103530006300E95AB94200D28918131912339B006B
:1035400001341950A642F3D84B4662464146134314
:1035500052465350E0BCBA46B146A846F0BD0348B7
:10356000FEF75EFD0000D0AF281E00202C450010A5
:10357000114B30B5C31858424341104C9B001D59A4
:10358000012420238C40591A013C002A09DB100039
:103590008A4203DC9440254200D130BD01204042E4
:1035A000FBE7002902DAF9E7013903D323008B4056
:1035B0001D42F9D10800F0E70000D0AF281E00201E
:1035C000074B10B5984204D0064A0748FDF734FA75
:1035D00010BD064A04480431FDF72EFAF8E7C0464C
:1035E0000000305064450010DD56022040450010B8
:1035F000F8B50C000600FDF709FA05220700A256EF
:1036000030002179FFF7B4FF051E09DB020021001D
:103610003000FFF75DFF3800FDF704FA2800F8BD21
:103620000148FEF7FDFCC0462C450010F0B5DE4613
:1036300057464E464546E0B51600DC22924685B018
:103640001C004B0002935B18DB00C518AA445246CD
:10365000834628001268CC3000920268C020CC3328
:1036600080015B4403438020800201921860002C9B
:103670001DD08023DB0499460123D83598462B00C2
:10368000E02755469A463F0203912000FEF70EFDC3
:103690004A46430113432B6033004246C340134064
:1036A00052463B431360631E1C40EED10399029BBC
:1036B0005B18DB005B441A000099DC321160019A50
:1036C000CC331A6005B0F0BCBB46B246A946A04652
:1036D000F0BDC046F0B5DE4657464E464546E0B51D
:1036E0001600DC22924685B01C004B0002935B184A
:1036F000DB00C518AA445246834628001268CC3025
:1037000000920268C020CC3380015B4403438020D8
:10371000800201921860002C1CD08023DB049946A3
:103720000123D83598462B0055469A46124F0391EF
:103730002000FEF7BBFC4A46430113432B603300D5
:103740004246C340134052463B431360631E1C4035
:10375000EED10399029B5B18DB005B441A000099D1
:10376000DC321160019ACC331A6005B0F0BCBB4664
:10377000B246A946A046F0BD80E00000F0B557462D
:103780004E464546DE468946E0B583B00CA90D7825
:103790004946490088464944C90046183700340064
:1037A000DC3784463868CC3483462068C024CC316A
:1037B000A401614421438024A4020C6069424D416C
:1037C0001E216D428D43164901908A465544052BB2
:1037D0000CD9A0201F214005D836540104430532DE
:1037E000053B3C600A403560052BF6D852019B062C
:1037F000134342464A44D20062441000DC32136054
:103800000300D8331D605B461360019BCC3003601E
:1038100003B0F0BCBB46B246A946A046F0BDC046C8
:103820009FE00000F0B501258D400468AC430460C2
:10383000002B2ED04D006C18E400041926001F68E0
:10384000C83637605F68DC3477609F68DB68B760D4
:1038500023606B18DB001D008024D03545196401FE
:103860002C4380252D06256025600125124C2E0055
:103870008C4084600C1DA640802408318D401F219F
:10388000A4010443C0180A40D830266025600260B5
:10389000F0BD4D006C18E400041926008027C836DE
:1038A0007F023760F8277F027760C027DC343F0350
:1038B000B7602360CDE7C0460101010110B50100EA
:1038C00000230022002000F0B9FB10BD030010B55A
:1038D0000A0003490868190000F004F810BDC0464A
:1038E000C818002070B50B0C0024150C002B28D133
:1038F000002D3CD18BB291B2594300F051F8051E16
:1039000033D00300083B5A6803239A43043A242A1D
:1039100012D80300132A0AD90460446008331B2A12
:1039200005D98460C460242A2AD003001033002201
:103930001A605A609A6002E00021FEF73BFF2800FF
:1039400070BD002D16D1151C89B292B24A43ADB29A
:103950009BB26B43110C5B18190C0BD1190492B27A
:10396000114300F01DF8051ECBD10025E7E72B1C05
:103970000D1CE9E700F008FB0C2300250360DEE7DF
:103980000300046118334461D1E7C04610B5034B0E
:103990000100186800F004F810BDC046C8180020E7
:1039A000F0B54E464546DE465746E0B50D000B35B0
:1039B000060085B0162D27D8102900D9D0E000F0D8
:1039C000C1FA102518230221BF4FFB181A005C68AA
:1039D000083A944200D136E1032263689343E268D7
:1039E000A168CA6091600121E3185A6830000A4357
:1039F0005A6000F0AFFA2000083005B0F0BCBB46BA
:103A0000B246A946A046F0BD07239D4300D5A7E0D6
:103A1000A94200D9A4E000F095FAFC235B009D4286
:103A200000D28AE1690A00D19EE0042900D93FE171
:103A300038239846A90988443931C800A24F38185C
:103A400044680838A0420ED003239C4604E0002AB4
:103A5000C5DAE468A04206D06246636893435A1B05
:103A60000F2AF4DD41463A003C690832944200D105
:103A7000D8E0032063688343581B0F2800DD60E112
:103A80003A617A610028AEDA7A6890468022920024
:103A9000934200D3DDE0DA08580901238340404611
:103AA00018438046D300DB199A687860E360A2600F
:103AB0009C60D46001208B10984040455CD8434600
:103AC00003420AD103239943434640000431034291
:103AD00003D1400004310342FBD00323B3469C468C
:103AE0000E00B8460190F00040440100B246CB6899
:103AF0000BE064465A681F00A243DB68541B0F2C7E
:103B000000DDEDE0002C00DB07E19942F1D101235B
:103B10009946CA44534608319B07E8D1032205E081
:103B200003680838013E834200D004E23242F7D1F4
:103B30004346019A5B68934342465360019A5200A0
:103B400001929A4216D8002A06D113E00422914627
:103B5000019ACA44520001921342F7D05646C2E776
:103B60000C230020336048E780203F234021984603
:103B7000800063E75E4647460322BC686368934360
:103B80009946AB4202D35B1B0F2B4EDC23004B4408
:103B900002934E4B08201B6810335B19019300F011
:103BA00011FA4B4903900B688B46013306D08446CB
:103BB000019B4242013B6344134001933000019951
:103BC00000F0D0F903008046013300D1D7E0029B1A
:103BD000834200D9D1E0019A3E4B944619689A4637
:103BE0006144039A1960029B0800013A434500D0E2
:103BF000E4E04346134200D0E0E0BB6898466346E9
:103C00004B441A0001231A4343465A60324B18684A
:103C1000884200D21960314B1868884200D219607E
:103C20004446AEE07B68984644E7012229001343EE
:103C30001143651961603000BD606B6000F08AF966
:103C400020000830D9E6DC680231A34200D10AE73F
:103C5000C2E65A0A042A00D888E0142A00D90FE1E3
:103C600010005B3082465C32D2000820404284461D
:103C7000BA189444624692680B308146944500D14C
:103C8000E5E00800A2466146844602E0926891425F
:103C900004D04C465068A0439842F7D8D368614698
:103CA00054469C466346A260E3609C60D46001E792
:103CB000142973D9542900D9EBE06E239846290BB7
:103CC00088446F31C800B9E6C0140020EC1C002005
:103CD000B8140020BC1C0020E41C0020E81C0020BC
:103CE000BA4601205146844649190543504645606D
:103CF000856847466046EB605E469D605346396185
:103D00007961204308374860CF6030008F609C5055
:103D100000F020F9504608306FE6BA4601205E46B2
:103D20005244516801435160BA683000D3609A60D0
:103D300000F010F9380008305FE62B00E90808337E
:103D400042E66119884601218C460D434146656073
:103D500039617961CA608A60624602434A60E05014
:103D6000300000F0F7F82000083046E69A0910000D
:103D7000393238308246D20077E7BC4214D0BC6872
:103D8000626803239A43531BAA4202D30F2B00DD20
:103D90004BE7300000F0DEF800202EE65B2398466B
:103DA00088445C31C80049E6644B9A461868019B18
:103DB0009C46534660441860039B5A1E5B461B6832
:103DC000013371D0434602995B1A51461B180B60B0
:103DD00007234146404619400291184240D00398BB
:103DE000013384465B1A019998444144019163442C
:103DF00011405B1A1A4011003000934600F0B2F8EF
:103E0000431C78D04346C01A03005B4401935346D9
:103E100019680120594419604346019ABB60024366
:103E20005A60BC4200D1F1E64B460F2B40D9072225
:103E30000C3B93436268024005201A436260E2181B
:103E4000506090600F2B4BD843465A68DEE65346CD
:103E5000981001238340404618438046786021E74C
:103E6000019B039943441340CB1A1A4011003000C0
:103E7000934600F077F8431CC4D100239B46C6E765
:103E8000542A18D81A0B10006F326E308246D200B6
:103E9000EBE6AA235B00994218D8DD3B9846E90B74
:103EA00088447831C800C9E55B46414619608FE710
:103EB000434658606DE7AA204000824226D8DA0BBC
:103EC0001000783277308246D200CEE61C4B994201
:103ED00026D87C239846A90C88447D31C800ADE5DE
:103EE00021003000083100F063F953461968BB68BF
:103EF00098465A688AE6019A029B94464246083BD5
:103F000063449B1A019300239B4680E70C4882423E
:103F10000CD89A0C10007D327C308246D200A4E688
:103F2000FE207E237F219846800087E5FE227E20AA
:103F30009200824699E643465B68FFE5BC1C002080
:103F40005405000010B5024800F038F810BDC04616
:103F5000B81C002010B5024800F032F810BDC04671
:103F6000B81C0020002370B5064C05000800236033
:103F7000FEF738F8431C00D070BD2368002BFBD03F
:103F80002B60F9E770260020014B18687047C04687
:103F9000C818002070B5074C074D641BA41005D04D
:103FA000013CA300EB589847002CF9D100F0EAF946
:103FB00070BDC0461C1A00201C1A00207047C04665
:103FC0007047C046802310B55B01082801D1180056
:103FD00010BDFFF7D9FF16230360173BF7E7C04674
:103FE00010B583070AD00300032102E001330B421E
:103FF00005D01A78002AF9D1181A10BD03001968E3
:104000000C4A0D4C8A188A4322420FD15968094A3A
:1040100004338A188A43224208D15968054A043376
:104020008A188A432242F1D000E001331A78002A2C
:10403000FBD1E1E7FFFEFEFE80808080F0B5D64632
:104040004F4646469846244BC0B5060018689A4627
:104050000F009146FFF7B2FF204B1D68002D32D0B4
:1040600053466C6818681F2C30DC002E0CD1631C82
:104070000234A4006B606751FFF7A2FF0020E0BC90
:10408000BA46B146A846F0BD49468822A300EB18BF
:104090009950C42149008C46AC446146873AA240FD
:1040A00009689146114362461160842142464900E5
:1040B0005A50022EDBD129004A468D31FF310B6860
:1040C00013430B60D3E7064D1D60C9E7FFF778FF88
:1040D00001204042D3E7C046F0190020201B0020F9
:1040E000241B0020034B10B5002B02D00248FFF721
:1040F000E5FB10BD00000000953F0010F0B5C6467E
:10410000060000B508200D00FFF75CFF040030003A
:10411000FFF718FF234B210098469B685F68032335
:104120009F4338001138401B0019FEF71FF8451E49
:104130006543AC4208DC00213000FFF713FF434623
:104140009B68DB19984206D03000FFF703FF002080
:1041500080BCB846F0BD30006942FFF703FF013074
:104160000ED0012243467F1B9B6817430E4A5F60B7
:10417000136830005B1B1360FFF7ECFE0120E7E7DC
:1041800000213000FFF7EEFE43469A68831A0F2B9A
:10419000DADD064C04492468001B086001210B434A
:1041A0005360D1E7C0140020BC1C0020B8140020CC
:1041B000F8B5CE46474605000C0080B5002957D01B
:1041C000FFF7C0FE012321009C460839486862467B
:1041D000030003249343CF187A68654EA243B46862
:1041E000BC4200D170E0BC18A14664467A6004422B
:1041F00021D10868091A1B1888688046484640681B
:104200002040340008348146A04551D04046CC6857
:10421000C460A0604846002811D19B185548BA6870
:10422000824200D17FE0F868D060826001221A43A8
:104230004A60CB5007E0484640682042EDD06246D5
:104240001A434A603B6080229200934214D2DA08FB
:10425000580901238340706803437360D3009B199E
:104260009A68CB608A609960D1602800FFF772FE7F
:10427000C0BCB946B046F8BD5C0A042C3DD89C09C8
:10428000200039343830E40034192268083C032710
:10429000944203D140E09268944203D05068B843FE
:1042A0009842F8D8D468CC608A60A160D160DCE71D
:1042B000002858D1B868D218FB68C360986063467C
:1042C00013434B608A50D0E79A186346034206D1E5
:1042D0000B68C91A8868D218CB68C360986001233C
:1042E00013434B60244BB1601B689342BDD8234BF2
:1042F00028001968FFF702FFB7E7142C07D9542CE0
:104300001AD81C0B20006F346E30E400BCE720008C
:104310005C345B30E400B7E70123801083407068B1
:1043200003437360BFE7D1609160CA608A60012275
:104330001A434A60CB5098E7AA225200944205D80B
:10434000DC0B200078347730E4009DE70C4A94427F
:1043500005D89C0C20007D347C30E40094E7FE24DA
:104360007E20A40090E762461A434A603B607CE7E7
:10437000C0140020C8140020BC140020EC1C002035
:1043800054050000F8B5C04601B40248844601BC9B
:10439000604700BF9D03002001B40248844601BC71
:1043A000604700BFA50C002001B40248844601BC50
:1043B000604700BFA50C002001B40248844601BC40
:1043C000604700BF3D03002001B40248844601BCA1
:0843D000604700BF81020020DC
:1043D80053797374656D20636C6F636B206F66200F
:1043E8002575206B487A2063616E6E6F7420626554
:1043F8002065786163746C792061636869657665A6
:1044080064000000486172647761726520616C61C4
:10441800726D20256420616C726561647920636C1B
:1044280061696D65640000000A2A2A2A2050414EFD
:104438004943202A2A2A0A000A00000048617264B7
:1044480020617373657274004F7574206F66206DF8
:10445800656D6F727900000052656C656173650067
:10446800626F6F74325F7732357130383000000018
:10447800312E352E310000007069636F0000000096
:104488006669726D77617265000000004E6F762074
:10449800313920323032330055415254207374641C
:1044A800696E000055415254207374646F7574002E
:1044B8005541525420737464696E202F20737464BC
:1044C8006F757400544D445320667265652071758C
:1044D8006575652066756C6C20696E20495251219E
:1044E80000000000544D44532062756666657220D2
:1044F800616C6C6F636174696F6E206661696C656D
:10450800640000004E6F20444D41206368616E6E68
:10451800656C732061726520617661696C61626C9B
:10452800650000004E6F2070726F6772616D2073B6
:10453800706163650000000050494F203120534DE1
:1045480020282564202D20342920616C726561643F
:104558007920636C61696D656400000050494F20E3
:104568003020534D20256420616C72656164792088
:10457800636C61696D6564004C4544008C450010AE
:104588000DFF000006FF084005E5084003E50C4064
:104598006440EBA08860A0800860E3A088770000F2
:1045A800D858A2FF9AA9FF8581A903202CFCE6818F
:1045B800A5812040FCA90D2062FCA90080EBA00089
:1045C800A20088D0FDCAD0FA3AD0F760A205DA7AFC
:1045D8009818692C2040FC8810F6A92A2040FC6015
:1045E8004848A9202062FC684A4A4A4A2054FC6884
:1045F8002054FC60290FC90A9002690669302062BC
:10460800FC6048AD12D0D0FB68297F8D12D06000C5
:104618000000000000000000000000000000000092
:104628000000000000000000000000000000000082
:104638000000000000000000000000000000000072
:104648000000000000000000000000000000000062
:104998000000000000000000000000FC00FC00FC1B
:1049A80006005250D3F07542604400100600525081
:1049B800E182887F6844001006005250BBFF3CB675
:1049C800804400100D0A00000600525053B4F4A1B0
:1049D800B84400100800525092000000EC49001042
:1049E80002000000A170A1680900525000000002F6
:0C49F80080450010080052501200000022
:104A0400A8490010B449001088020010C0490010E1
:104A140094020010A0020010AC020010FC49001027
:0C4A2400F0490010DC490010D0490010DF
:104A300010B5064C0B21200000F016FE200000F0FF
:104A4000FBFD200000F020FC10BDC046BC23002070
:104A5000AB22F0B557464E464546DE46920092469A
:104A6000584AE0B5A92694460024574B574D83B0C9
:104A7000B6009959EFF3108072B60A68002AFCD08C
:104A8000BFF35F8F5246595B9A5A521A06D5674652
:104A9000DF5BB8460127B946C8444244002A00D02B
:104AA00070E0A92189005958BFF35F8F0A6080F335
:104AB0001088474A01921268D20700D474E0454A30
:104AC0009446A72292009246434AA5279146434A1C
:104AD000BF00904600229346D959EFF3108472B676
:104AE0000A68002AFCD0BFF35F8F52464946404611
:104AF0009A5A595A185A511A01D5461C8919DE5921
:104B0000884237D0A62165468900595897007D50C4
:104B100000210F00013292B290424F417842024090
:104B2000A72080001A52BFF35F8F316084F3108892
:104B300040BF019A136801331360F02B37D09A00FD
:104B4000D2189201DB073BD522492548254C131882
:104B50004130FF3080181A7801335200A25A0A807F
:104B600002318342F7D103B0F0BCBB46B246A9463E
:104B7000A046F0BDBFF35F8F5A46326084F31088C1
:104B800020BFA9E701318AB261462700595A9142F4
:104B9000674179420A405A539A59BFF35F8F1460B4
:104BA00080F3108840BF64E70F4A944689E70F4AB4
:104BB000136801331360019B002219600A49C4E79E
:104BC0000949C2E7B2020000BC230020AE02000087
:104BD00084260020401E00209E020000A202000049
:104BE000B0280120A0260120C02000207826002027
:104BF000D02330B500251B0600245D5706E003686E
:104C0000BFF35F8F1C6081F3108820BF0268EFF351
:104C1000108172B61368002BFCD0BFF35F8F03794D
:104C20007F2BECD905710368BFF35F8F00221A60F8
:104C300081F3108830BDC046F0B54F46D646464693
:104C4000C0B51F00D0231B061B6804009A46002332
:104C5000904699460CE02268BFF35F8F4946116089
:104C600083F310884046390000F0D6FC00281AD1A2
:104C70002668EFF3108372B63568002DFCD0BFF3C1
:104C80005F8F25797F2DE6D9524622712268BFF3C6
:104C90005F8F0021116083F310880120E0BCBA46C9
:104CA000B146A846F0BD0020F8E7C04670B5010047
:104CB0000468EFF3108C72B620680028FCD0BFF3B4
:104CC0005F8F04240C57002C12DB0868BFF35F8F42
:104CD000002505608CF31088D0200025000645577C
:104CE0000020A54200D170BD0800FFF7A5FFFAE73C
:104CF000D0231B061B680B710B68BFF35F8F00226C
:104D00001A608CF310880120EDE7C0460268EFF3CB
:104D1000108172B61368002BFCD0BFF35F8FFF23A6
:104D200003710368BFF35F8F00221A6081F310885C
:104D300040BF7047F0B5DE4657464E464546010037
:104D4000E0B5040083B00068343100F0C1FB9B2360
:104D50009B00E358002B32D0A1239B00E258EFF3D5
:104D6000108572B61368002BFCD0BFF35F8FA123B0
:104D70009B00E1180B894A89C8899A1A00D51AE163
:104D8000A126B600A659B046824200D1B2E19B22CC
:104D90009200A2589F00944666464A680133BE506E
:104DA000002217009BB298425741784203400B8182
:104DB000BFF35F8F43461A6085F3108840BF9A2384
:104DC0009B229B00E1589200A1500022E2502368F0
:104DD000A1681A698E4B89019C46520861440B6890
:104DE0009A42FCD18A4BA1699C46890161440B68B7
:104DF0009A42FCD1864BA16A9C46890161440B68AA
:104E00009342FCD19D229C23920093469B00E35841
:104E1000A344002B00D179E0A1239B0000201E00B9
:104E2000D846E2181CE0AB464D46019757689900FA
:104E3000CD5101005D4601339BB29D424141494243
:104E40000B401381BFF35F8F019B18608CF31088B8
:104E500040BF9C2189006358013B6350002B55D013
:104E60009D239B00E158EFF3108572B60B68002B71
:104E7000FCD0BFF35F8F434641465B890989C91A5D
:104E800006D54746FF89BC460127B946CC44614454
:104E9000002933D0414649689F0079580700894668
:104EA00041460133C9899BB29942474179420B403F
:104EB00041464B819D239B00E358BFF35F8F1860F1
:104EC00085F3108840BFA159EFF3108C72B60B68C0
:104ED000002BFCD0BFF35F8F13895189D589591AF4
:104EE00001D56F1CC919A759A94200D09BE7BFF390
:104EF0005F8F38608CF3108820BFE4E79D239B0010
:104F0000E358BFF35F8F196085F310883823E35CA3
:104F1000032B00D182E0012B2CD0E8239846E43B00
:104F200000259C46A3463B4F3B4E201DA044A02499
:104F3000E405A14603684168DA023A408901494420
:104F40003243C146002D44D0012D3ED0A0205C4606
:104F5000C00584469B0149346344FF341C6059609A
:104F6000042199601A6103B0F0BCBB46B246A94661
:104F7000A046F0BD68239846643B00259C46A346A6
:104F8000244F254E201DA044A024E405A14603681B
:104F90004168DA023A40890149443243C146002D52
:104FA00028D0012D23D0A020C0055C4684469B015B
:104FB0006344C834D2E7461C9219A126B600A6590C
:104FC000B046824200D0E2E694E094246400A14618
:104FD000D944A024E405A2464C469B0153441C60DE
:104FE000596061460135996010301A619FE7A82425
:104FF000A146D944A024E405A2464C469B01534453
:105000001C60596061460135996010301A61BBE738
:1050100004080050FDFF1FFF39851F009D239B00E2
:10502000E358EFF3108072B61A68002AFCD0BFF381
:105030005F8F9D239B009B46A3445B465A891B8937
:105040009B1A00D5CBE09D2189006558002B5AD0D2
:105050005B465B689200D258BFF35F8F00232B60E2
:1050600080F31088636B5E46DB0700D58BE0110090
:105070003823E35C012B00D17CE7032B00D04CE705
:10508000002955D0260025006936FF3601CD3200B3
:1050900000F040FA674B00209C460423A346984644
:1050A000654FA0246146E405A1462B68DA020A4058
:1050B00069683A4389014944002800D1A6E00128E3
:1050C00000D1B2E0A0205C46C005844620009B01D0
:1050D000C9306344FF3018605960042199601A6137
:1050E000636E002B00D13EE7626BD20700D43AE733
:1050F000984738E7BFF35F8F0023336085F310884C
:105100004E4800F091FABFF35F8F2B6080F3108858
:10511000636BDB0704D59C229200A3580133A35094
:105120003823E35C012B00D124E7032B00D0F4E605
:10513000F4235B009846E53BFF3B00259C46A346D5
:105140003C4F3D4E201DA044A024E405A146036829
:105150004168DA023A40890149443243C146002D90
:1051600046D0012D40D0A020C005844692205C4648
:105170009B01800063442018ADE7BFF35F8F2B6075
:1051800080F3108820BF6258EFF3108072B6136866
:10519000002BFCD0BFF35F8F728933899B1A02D535
:1051A000F58901355B196558002BE6D073689100CD
:1051B000C95800231F00B3460132F68992B29642C5
:1051C0005F417E4232405E467281BFF35F8F2B604B
:1051D00080F3108840BF9A239B00E15048E759466E
:1051E000C98901315B182EE78A24A400A146D9445D
:1051F000A024E405A2464C469B0153441C60596020
:1052000061460135996010301A619DE7B146A024CE
:10521000E405A2464C469B0153441C60596041463C
:105220000130996010351A613BE7D4246400A1462F
:10523000D944ECE7FDFF1FFF39851F00CC44001067
:10524000064BA02158680123826810B59340044A98
:10525000C9058B50FFF76EFD10BDC046B02300207E
:105260001C040000064BA02118680123826810B5B9
:105270009340044AC9058B50FFF75CFD10BDC04642
:10528000B02300200C040000A523F0B557464E467D
:10529000DE4645469B009A46103B9946103BE0B5DA
:1052A000C61830339B46834405005F4685B0824470
:1052B0008144A5239B00E958EFF3108272B60B6876
:1052C000002BFCD0BFF35F8F534658891B891B1AF4
:1052D00003D55146C98901315B18A5218900695858
:1052E0008846002B00D1ECE053465B688400E3580D
:1052F00001309B4683B2504600210024C089984269
:105300004C416042034050464381BFF35F8F4346A8
:10531000196082F3108840BFA1239B009C46494638
:105320006346EA58EFF3108872B61368002BFCD07E
:10533000BFF35F8F4A890B899B1A02D5C889013058
:105340001B1860462858002B00D1B3E089464B68F3
:105350009100CC584B460290002100200394DB8939
:10536000013292B2934241414B421A404B465A811C
:10537000BFF35F8F029B186088F3108840BF2B68D3
:1053800021001B6900905B0898465846424604235A
:1053900000F0EEF843469B009C4622001C0062444D
:1053A000052311005846424600930533029100F050
:1053B000DFF8A4460B230299424600935846043373
:1053C000614400F0D5F89D239B0098464346EA5877
:1053D000EFF3108072B61368002BFCD0BFF35F8F21
:1053E00033897289F1899A1A02D54C1CA446624409
:1053F00044462C59A44691424CD0726802910399BC
:105400009C00A15000240022029901339BB29942D2
:105410006241524213403381BFF35F8F63461C6089
:1054200080F3108840BFA9239B0098464346EA5862
:10543000EFF3108172B61368002BFCD0BFF35F8FBF
:1054400038897B89FA89C31A02D5541CA44663445F
:1054500044462C59934225D0030020007C680392D7
:10546000A4469C00A046029164464246594611510A
:1054700000210024039A01339BB29A424C416242BC
:1054800013403B81BFF35F8F029B016083F3108861
:1054900040BF0EE7BFF35F8F0022226080F31088C9
:1054A00020BF93E7BFF35F8F0022226081F3108853
:1054B00020BFBBE7BFF35F8F036088F3108820BF76
:1054C0002EE7BFF35F8F0B6082F3108820BFF0E6FA
:1054D0000B680A7901330B60002A03D1806983428B
:1054E00005D07047012A09D1C0698342F9D103234D
:1054F000013213400B7100230B60F2E7022A03D143
:10550000006A8342EDD1F2E7032AEAD1406A83427E
:10551000E7D1ECE70069116343089B008000CB18DA
:10552000091813651167704700FD070000FD0700AB
:1055300001FA0B0054530D00ABAC020054510500AE
:10554000ABAE0A0000000000100000006000000088
:105550003000000080020000000000000A0000008F
:105560000200000021000000E001000060D80300FC
:10557000F0B5C6461C0000B5234D88B006000F00EC
:10558000280001A9904600F067F80E9A0732E31F41
:1055900023D4F821121B890052010A401F210B401D
:1055A00013431800E0235B010343EB628E230934AD
:1055B000214011435B020B432B63144B4246AB600B
:1055C00039003000EB603FF0D3F90F4801A900F03B
:1055D0003BF808B080BCB846F0BD141BF82264014B
:1055E00092001440E02252012243EA62084A390044
:1055F00022432A63054A3000AA605B42EA604246C1
:105600003FF0CEF9E1E7C046800000D064000420FE
:10561000101C01007047C04601B40248844601BC1A
:10562000604700BFE114001001B40248844601BC89
:10563000604700BF2120001001B40248844601BC2D
:10564000604700BFCD2E001001B40248844601BC63
:10565000604700BFB134001001B40248844601BC69
:10566000604700BF9134001001B40248844601BC79
:10567000604700BF292E001000A8008800A8000085
:105680002070F8702000A850A850A850A8A0E0A052
:1056900070202000E080F8A03020006080E05060A2
:1056A00050008080F02030200020502000000000BA
:1056B0002020F82020F800C0A0A0A0203800A0A042
:1056C0007850101000202020E0000000000000E0D2
:1056D000202020000000382020202020203800003A
:1056E00000202020F8202020F8000000000000000A
:1056F000F80000000000000000F8000000000000BA
:105700000000F800000000000000F82020203820F1
:105710002020202020E0202020202020F800000051
:10572000000000F820202020202020202020102011
:105730004020107000402010204070000000705089
:105740005050000010F020F04000003040E040B029
:105750000000006060000000000000000000002069
:10576000202020002000505050000000000050F881
:1057700050F850000070A070287000809020409079
:1057800010000040A040A050002020200000000099
:105790002040404040200040202020204000005079
:1057A0002070205000002020F82020000000000081
:1057B000302040000000F0000000000000006060A9
:1057C0000000102040800000205050505020002049
:1057D0006020202070006090102040F000F01060E9
:1057E000109060002060A0F0202000F080E0109079
:1057F00060006080E090906000F010202040400049
:105800006090609090600060909070106000006008
:105810006000606000006060006040800010204018
:105820002010000000F000F0000000402010204098
:1058300000205010200020006090B0B08060006018
:105840009090F0909000E090E09090E00060908068
:1058500080906000E090909090E000F080E0808088
:10586000F000F080E080808000609080B090700058
:105870009090F090909000702020202070001010E8
:10588000101090600090A0C0C0A090008080808028
:1058900080F00090F0F09090900090D0D0B0B09058
:1058A0000060909090906000E09090E080800060B8
:1058B000909090D06010E09090E0A09000609040B8
:1058C00020906000702020202020009090909090E8
:1058D000600090909090606000909090F0F0900048
:1058E0009090606090900050505020202000F01068
:1058F000204080F000704040404070000080402018
:1059000010000070101010107000205000000000F7
:10591000000000000000F000402000000000000037
:10592000007090B050008080E09090E00000006037
:105930008080600010107090907000000060B0C017
:105940006000205040E04040000000709060807097
:105950008080E09090900020006020207000100077
:1059600010101050208080A0C0A090006020202047
:105970002070000000A0F09090000000E090909057
:1059800000000060909060000000E09090E08000D7
:105990000070909070100000E09080800000007017
:1059A000C030E0004040E040403000000090909067
:1059B00070000000505050200000009090F0F00067
:1059C0000000906060900000009090502040000027
:1059D000F02040F000102060202010002020202027
:1059E0002020004020302020400050A00000000077
:1059F00000000000000000000000000000000000A7
:105A00000000000000000000000000000000000096
:105A10000000000000000000000000000000000086
:105A20000000000000000000000000000000000076
:105A30000000000000000000000000000000000066
:105A40000000000000000000000000000000000056
:105A50000000000000000000000000000000000046
:105A60000000000000000000000000000000000036
:105A70000000000000000000000000000000000026
:105A80000000000000000000000000000000000016
:105A90000000000000000000000000000000000006
:105AA00000000000000000000000000000000000F6
:105AB00000000000000000000000000000000000E6
:105AC00000000000000000000000000000000000D6
:105AD00000000000000000000000000000000020A6
:105AE000002020202000002070A0A0702000304066
:105AF000E040B00000887050708800505020702046
:105B00002000002020002020003040605030106035
:105B1000500000000000007088A8C8A8887060A02D
:105B2000600000000000004890480000000000F005
:105B3000100000000000700000007088E8C8C888ED
:105B400070F0000000000000205020000000002045
:105B500020F82020F80060204060000000606020F5
:105B600060000000204000000000000000909090C5
:105B7000E08070D0D0505050000000606000000005
:105B8000000000000020402060207000000040A0C5
:105B9000400000000000009048900000808080904D
:105BA000307010808080B0102030C0C040D0307085
:105BB0001020002040502000609090F090900060F5
:105BC0009090F0909000609090F090900060909095
:105BD000F0909000906090F0909000606090F09055
:105BE000900070A0B0E0A0B0006090808090604015
:105BF000F080E08080F000F080E08080F000F080B5
:105C0000E08080F000F080E08080F00070202020B4
:105C10002070007020202020700070202020207034
:105C20000070202020207000E050D05050E000B0E4
:105C300090D0B0B090006090909090600060909094
:105C40009090600060909090906000609090909034
:105C50006000906090909060000000906060900004
:105C600070B0B0D0D0E00090909090906000909094
:105C70009090906000909090909060009000909034
:105C80009060005050502020200080E090E0808004
:105C9000006090A09090A00040207090B050002034
:105CA000407090B0500020507090B0500050A070E4
:105CB00090B0500050007090B0500060607090B094
:105CC0005000000070B0A070000000304040302054
:105CD000402060B0C06000204060B0C0600040A0C4
:105CE00060B0C06000A00060B0C0600040206020D4
:105CF0002070002040602020700020506020207024
:105D00000050006020207000403060909060005093
:105D1000A0E0909090004020609090600020406053
:105D2000909060006000609090600050A060909043
:105D3000600050006090906000006000F000600023
:105D4000000070B0D0E000402090909070002040A3
:105D50009090907000600090909070005000909033
:105D6000907000204090905020400080E09090E0A3
:105D70008050009090502040100000000000000073
:105D80000000010000000000000000000000020010
:105D90000000000000000000000003000000000000
:105DA000000000000000FF000000000001B548688E
:105DB00001318E460047704609380149884701BDC8
:105DC000D90D00106C14002000000000201A0020E3
:105DD000702300200000000000000000802300204D
:105DE00000000000000000001000000000000000A3
:105DF000503300004C330000543300005233000095
:105E00004D5300004D430000533400004334000064
