:020000041000EA
:1000000000B5324B212058609868022188439860DF
:10001000D860186158612E4B002199600221596106
:100020000121F02299502B49196001219960352056
:1000300000F044F80222904214D00621196600F024
:1000400034F8196E01211966002018661A6600F04E
:100050002CF8196E196E196E052000F02FF8012189
:100060000842F9D1002199601B49196000215960AB
:100070001A491B48016001219960EB211966A021F2
:10008000196600F012F800219960164914480160C1
:100090000121996001BC002800D000471248134993
:1000A000086003C880F30888084703B5996A0420EC
:1000B0000142FBD001200142F8D103BD02B5186610
:1000C0001866FFF7F2FF186E186E02BD00000240BE
:1000D000000000180000070000035F00212200005C
:1000E000F4000018222000A00001001008ED00E03C
:1000F00000000000000000000000000074B24E7A12
:1001000000200420F7010010C3010010C5010010F9
:10011000C1010010C1010010C1010010C101001097
:10012000C1010010C1010010C1010010C701001081
:10013000C1010010C1010010C9010010CB01001065
:10014000CD010010CD010010CD010010CD01001037
:10015000CD010010CD010010CD010010CD01001027
:10016000CD010010CD010010CD010010CD01001017
:10017000CD010010CD010010CD010010CD01001007
:10018000CD010010CD010010CD010010CD010010F7
:10019000CD010010CD010010CD010010CD010010E7
:1001A000CD010010CD010010CD010010CD010010D7
:1001B000CD010010CD010010CD010010CD010010C7
:1001C00000BE00BE00BE00BE00BE00BEEFF3058054
:1001D000103800BEF2EB887108CD00102CCD001055
:1001E0003402001090A31AE700201F49086006C8D7
:1001F00081F3088810471D48006800282FD10DA4FE
:100200000ECC002902D000F012F8F9E71849194A7B
:10021000002000E001C19142FCD1174988471749ED
:1002200088471749884700BEFDE701C901C29A42C5
:10023000FBD370472CCD0010C0000020E416002036
:1002400050E300100000042064010420B4E4001016
:10025000001004200010042000000000704709482E
:1002600003F09AFF0047000008ED00E0000000D016
:1002700000000120C05A0320392C0010DD020010BC
:100280005D2D00105756000006005250ABB360536E
:10029000A497001006005250861C0302B497001069
:1002A000060052505422A29DC097001005005250E3
:1002B000DE65F468B4E40010F8B5C046044B10B530
:1002C000002B03D00349044800E000BF10BDC04626
:1002D00000000000045603208096001010B500F0C6
:1002E0000DFE00F0DFFAFCE730B5FC25ED00C90893
:1002F000D2002A40C902034C1143DB0840005B18BE
:10030000035330BD1C560320F0B5CE46474680B59A
:100310000D2085B002F066FC0A2001F067FF5B4DFE
:1003200003ABAC6A02AA200001A900F0B9FF0028C3
:1003300003D12100564802F015FD039A0299019855
:1003400000F072FF534C0021200024224030256031
:1003500004F092FE0E22504B0226E3630123E26476
:1003600004322265023A6265043AA2655032A3540F
:1003700063644A4BA664636601F012F9050001F05C
:100380000FF929000200200005F05EF9444B454FAB
:100390001E80A7239B009846434BA5269C4600231E
:1003A0009946B600A259EFF3108072B61368002B7D
:1003B000FCD0BFF35F8F43466246E35AA25AE15B2B
:1003C0009A1A01D54D1C5219A55991424ED0A62218
:1003D0009200A258354F9E00B750002216000133FC
:1003E0009BB2994256417142A7260B40B600A353D7
:1003F000BFF35F8F2A6080F3108840BF0023A520E1
:100400009846294F80002258EFF3108C72B613687B
:10041000002BFCD0BFF35F8F2249A35BE25B615AE4
:100420009A1A01D54D1C521925588A4226D0A62267
:100430009200A2581E4E98008650002210000133F0
:100440009BB29942504141420B40A721890063521F
:10045000BFF35F8F2A608CF3108840BF154805F00A
:10046000C7F805B0C0BCB946B046F0BDBFF35F8F5A
:100470004B462B6080F3108820BF93E7BFF35F8F5C
:1004800043462B608CF3108820BFBCE7080C00208B
:10049000809600105824022000002050E100002027
:1004A000AE5A0320A20200009E020000D4140220D3
:1004B00054170220C100002010B5064B0269064CFB
:1004C0001A602378002B02D00123237010BDFFF7A0
:1004D0001BFFF9E778580320B85A032070B50400D1
:1004E0000D0007F033FD0138C0B2012803D8290000
:1004F000200007F03BFD70BD7047C046F8B5574679
:100500004E464546DE46E0B588460700914607F070
:100510001DFD01280FD0022807D14146380007F001
:1005200025FD4146380007F021FDF0BCBB46B24630
:10053000A946A046F8BD4146380007F017FD264BF6
:1005400019009A461C00A6311A8852421A800233BA
:100550008B42F9D14B469D1C08234B449B460DE032
:100560003B39C9B20E00534676009B5F002B2CD05E
:100570005346012201359A535D450DD029780B0071
:10058000593B092BECD9642918D04B1E0E00512B76
:10059000E9D901355D45F1D1002503E0013502348B
:1005A000532DBED00022A35E002BF7DA00220020DC
:1005B000E9B200F069FB00232380EFE731265346C0
:1005C00076009B5F3121002BD2D14B4601201A7857
:1005D00000F05AFBCCE7C0465455032010B508F094
:1005E00025FA08F097F8A6220021024804F044FDFD
:1005F00010BDC04654550320012010B500214042D3
:1006000006F02EFF00F0FCFB10BDC04610B501F057
:10061000A3FE830AD2205843C00A10BDF0B5D646C7
:100620004F464646C0B51E00234B80469B6A0D00D0
:1006300099469B02180011039A46170003F006FE24
:100640004B1E994150460C00390003F0FFFD000B92
:100650002418102C00D210244B462100980303F0DC
:10066000F5FD390003F0F2FD4246144B01382340FA
:1006700094004444124AA400A218536003041B0CC3
:100680001361104B64219C467043644403F0DEFD0B
:100690000004000C002D0DD00B4A000423684340D9
:1006A0001A4080235B0123431A60E0BCBA46B1467E
:1006B000A846F0BD054AF1E7080C0020FF0F000036
:1006C000000005400C0005400000FFFFFFFF000098
:1006D000F0B5C646124B00B51B78002B03D10120A4
:1006E00080BCB846F0BD0F4B1F680F4B1B68984687
:1006F0000E4B1D8808F006FD060008F003FD502192
:1007000003F07CFD0A310C003000642103F076FD1B
:10071000323D4A19230041463800FFF77FFFDEE7EC
:10072000B75A0320845A0320D4190220A85A032060
:1007300010B5042184B0142000F014FE022200241D
:100740000C4B1A600C4B1C600C4B1A6801231340B5
:100750000B4A13600B4B1C7001F014FC0A4B0B4A44
:1007600002930B4B01940093002301F089FC0120BC
:1007700004B010BD845A0320D4190220280005407B
:1007800028100540B75A032000010220102700005E
:10079000D106001070B5FF2000F02CFE082000F0FC
:1007A0000BFED024802324065B0063620920636172
:1007B00000F002FE80239B0063620A20636100F068
:1007C000FBFD8023DB0063620B20636100F0F4FD1E
:1007D00080231B01A362152000F0EEFD80238025FD
:1007E0009B03ED0463621A2000F0E6FD65621920A8
:1007F00000F0E2FD80239B0463621B20636100F034
:10080000DBFD8023FA201B05636200216361800009
:10081000A56101F0D7FC656170BDC04670B5D024FC
:100820008025FA20ED042406A5610021800001F056
:10083000C9FC656170BDC046D023FF201B061A6A43
:100840000240DA62802252009A61C046C046C04629
:10085000C046C046C04659685A6108408021890098
:100860009961C046C046C046C046C046C0465A68A8
:1008700059611202104380B27047C046D023FF2254
:100880001B06196A0A40DA628022D2009A61C046C9
:10089000C046C046C046C046C04658685A61C0B24D
:1008A0007047C046F0B5DE4657464E464546E0B571
:1008B00083B0FFF76FFFFFF7B1FF274BD0249846B7
:1008C000264B80269B46264B264F9946264B2406D0
:1008D0000093264BB603019301239A463B885A1C8A
:1008E0003A80002B21D0A661FFF7A6FF434652466F
:1008F000188063680500DB0A13405A46137066616E
:1009000016D04B461A5CFF231800216A8843E06228
:1009100021694A401340E3618023DB00A3616361E6
:100920003B885A1C3A80002BDDD100F0E3FADAE76D
:10093000FFF7A4FF4B465855009B1870019B1A887F
:1009400043461B889342C9D10028C7D04B441800A6
:10095000494600F0F5FAC1E7A65A0320BB5A032026
:1009600000000120AC5A0320B45A0320A810002034
:10097000F8B5CE4647461C4E1C4B80B533601C4B29
:10098000300073601B4B002433811B4B33611B4BC6
:1009900073611B4BF3611B4BB361FFF78DFD80232C
:1009A0005B009946184D0BE023115900C9186A18CD
:1009B0009378695C5278B7690134B8474C450CD0DC
:1009C000E0B20F2CF0DC610009196A189378695CB9
:1009D0005278B769B8470134F2E7300000F048F9BF
:1009E000C0BCB946B046F8BD1429022035001E002F
:1009F0004001F00006080000382902200C1A0220ED
:100A0000B9040010E902001028990010F0B557460B
:100A10004546DE464E46E0B583B00CAC2788314CE7
:100A2000A24624682588854255D965888D4252D9C9
:100A300065698C00641824012C19225454462468DA
:100A4000A588002D47D0657AAB46002D43D0267A85
:100A50006943704384468800411889018946002112
:100A6000203A6A438846204980208A1801925246DB
:100A7000FFB2DBB200924146A025019A6D00525CA4
:100A800021887143691ACD0F6918654649104D4494
:100A9000491925696D180021002E0ED0009CA24630
:100AA0003C00104200D01C006C54013152008CB24A
:100AB00092B2A642F4D852460092012292464032A7
:100AC000D044FF329246424692B2D144934502D975
:100AD000009A1468CFE703B0F0BCBB46B246A94603
:100AE000A046F0BD34290220A80D002070B51C4C92
:100AF00096222368120158690100503108F01CFB4E
:100B000021684A884869013A93009B181B015022CA
:100B1000C018202104F0B0FA23689A88002A00D176
:100B200070BD5D7A18695B88A900013B6B43491968
:100B30009A00D21889019201411808F0FDFA246840
:100B4000637A60889A000138D21843439800C3182A
:100B500020699B01617B9201C01804F08DFADFE7E8
:100B6000342902200300F0B5083B83B0102B03D8D2
:100B70003D4A9B00D3589F460300203B5E2B1CD868
:100B80003A4C82B225682B7BE97AA87A6D7B009576
:100B9000FFF73CFF2268937A0133DBB2937212882D
:100BA0009A420AD1002223689A722268D17A508828
:100BB0004B1CDBB2D372984251D003B0F0BD2B4B2B
:100BC0001A68907A0028F8D0537B0138C0B2D17AE5
:100BD000907220220093FFF719FFEEE70022234CCA
:100BE00023685A819A88002A2DD1A0222021586991
:100BF000120104F041FAE0E700221C4B1B685A8105
:100C0000DBE71A4C2268577A002FD6D0002607253A
:100C1000107AD17A9388794389194B43917A414369
:100C20005B181169C918002809D00023CA5C6A4002
:100C3000CA5422680133107A8342F7DB577A0136AF
:100C4000B742E6DCB9E79622597B1869520204F0F4
:100C500013FA2368C9E7054CA7E7044CA2E7D17251
:100C6000FFF744FFA9E7C046589900103429022035
:100C7000044B10B51860072383810C20FFF772FF27
:100C800010BDC0463429022070B5002832D0292971
:100C90004ED0FF2943D04B1E512B48D807240123A7
:100CA0000C40A3404B48CD08445D234343552220CC
:100CB0000B1F1040192B00D96CE00B00002800D14D
:100CC0007AE03D33DBB21120104201D01F221340E5
:100CD000414A1370414A117041490A783F2A03D8AA
:100CE0004048835401320A70FFF790FC3E4B5A3063
:100CF00018601CE0FF2912D04B1E512B17D8072279
:100D000001240A409440334BCD085A5DA2435A5502
:100D1000324B1B788B420AD12F4B187007E0002210
:100D20002F4B00211A702B480B3204F0A5F970BD2F
:100D300080202E4B2E4C1B8840420333E55C284319
:100D4000E054022423484379234343712D23002593
:100D50000020284C05E00330C0B2235C0500002BC6
:100D600007D09942F7D1002A31D06419A378002B1B
:100D7000AED100245022204805E00233DBB2C25C31
:100D80001C00002AD3D09142F7D100194378002BE0
:100D9000CDD09DE70B001E3B092BD7D827290ED0BD
:100DA0000B001333DBB2002800D191E713481B5C22
:100DB000002B00D08CE7C9E75D33DBB283E703008B
:100DC0005A1E934106225B429343303380E76419F5
:100DD0006378CCE748550320B25A0320B35A032066
:100DE000B95A03202C58032000560320A8100020D5
:100DF00000000120BC9900109C99001084960010FE
:100E000070B50C4C2378002B00D170BDFFF7FEFBB2
:100E1000094D2B689842F8D3084A13783F2B04D821
:100E200007492078C85401331370FFF7EFFB0C30EB
:100E30002860EAE7B25A032000560320B95A03207B
:100E40002C580320024B1878431E9841C0B27047BB
:100E5000B95A032070B5074D2C78002C08D00648ED
:100E600022000678013C411C08F066F92C70340021
:100E7000200070BDB95A03202C5803208022144B47
:100E8000144870B5D200144C9D18C01A1978C218B5
:100E900092B20133A1549D42F8D1E0231B02E01825
:100EA0000E490F4A04F0EEF88023DB00E0180D49EC
:100EB0000D4A04F0E7F8C0231B02E0180B490C4A66
:100EC00004F0E0F8FF2300221B02E25470BDC0468C
:100ED000E499001000FCFFFF00000120E49D0010D9
:100EE00013100000F8AD0010741800006CC600105C
:100EF000ED03000010B5FFF77FFB10BD10B590B0FB
:100F00003E220E49684604F0BDF8FFF7B7FF002007
:100F1000FFF72EFDFFF762FB0022FF210020FFF705
:100F2000B3FE6C46FFF704FC2A200134FFF71AFEDB
:100F300020780028F9D110B010BDC046C09600102E
:100F4000002310B5837003780400022B1BD0042B00
:100F50000DD0012B02D00023237010BD4378002B4D
:100F60002BD0012BF7D1FFF751FB6060F3E7043082
:100F700000F0E0F86378102B10D0202BEBD120008C
:100F800000F0EAF8E7E74378012B19D0022B1BD0D9
:100F9000002BE0D10079FFF7E5FDDCE700F0C2F8B7
:100FA000002816D0002000F03BF880231B069C464A
:100FB0000021604400F080F8CDE7FFF79FFFCAE70B
:100FC000FFF748FF2071C6E7FFF73CFF4042207162
:100FD000C1E7002000F04AF80021404200F082F80A
:100FE000B9E7C04610B50B4B0B4C1B785843820039
:100FF000121820688018094A01701178C1545900EC
:101000004018517801709178C0180170D278C2549C
:1010100010BDC046BA5A03207058032074580320EC
:1010200070B50F4B0F4A1B7812685843810009189E
:101030005218590051180878D55CCC18C95C0002C8
:1010400009042843E35C084300021B06000A184316
:10105000054B186013785B0601D403F033FF70BDB5
:10106000BA5A0320705803207458032070B50F4BF0
:101070000F4A1B781268584381000918521859000A
:1010800051180878D55CCC18C95C000209042843C3
:10109000E35C084300021B06000A1843054B186076
:1010A00013785B0601D503F035FF70BDBA5A0320F3
:1010B0007058032074580320084B10B5041C080016
:1010C00040211C60FFF78EFF201C03F029FF020067
:1010D0000B00034804F050F910BDC04674580320BB
:1010E0000097001010B50C4B0C4C18600C4B1B7883
:1010F00059438A0052182168891800220A705A0040
:10110000C85489180204120E0A700202C918120E7D
:10111000000E0A70C85410BD745803207058032084
:10112000BA5A0320024B1B6818784006C00F70475C
:1011300070580320437801781B020B430349044A8B
:101140005B181360034B82781A707047000001200F
:1011500070580320BA5A0320F8B52E4B04001968C2
:101160002D4B1B785A008A181578D018CE5CD25CAB
:101170002D0212043543C05C15432D020B78000686
:101180002D0A28435B0601D403F09CFE617A237A82
:1011900009021943214B051CC9180B7801240020B2
:1011A0000F261F090F2F06D0820012185200B81800
:1011B000A2001419640033400F2B0ED082001218C5
:1011C000520098180131A3001C190B7864001F0904
:1011D0000F2FE9D133400F2BF0D103F073FE061C23
:1011E000200003F06FFE011C301C03F050FE291C90
:1011F00003F04AFE0A4B041C186040210020FFF750
:10120000F1FE201C03F08CFE02000B00054804F0E8
:10121000B3F8F8BD70580320BA5A0320000001202B
:101220007458032000970010F0B583B005000E003D
:10123000140000F019F9002801D003B0F0BD154FDB
:1012400001223B0001210097053001F0EBFB330048
:101250002A0000940121104801F072FC21002800AE
:10126000714302F0F3FF04000C4B002200930221B3
:10127000042001F0D7FB2300002201210094052067
:1012800001F0D0FB3B00022200210097062001F074
:10129000C9FBD2E7006CDC0200800240001BB700F3
:1012A000F0B54E46574645469146DE46284A8A46A0
:1012B0002849E0B51C000600A02310004A468846D5
:1012C00085B05B0001920294404507D9224A013B58
:1012D000944660440F2BF7D1002027E01F4A0724D3
:1012E00093468344A14634005E469B4603904F4696
:1012F0004D467F4304E04B46013DFF1A002D1CD0B4
:101300003900300002F0A2FFA042F4D10029F2D14E
:101310005B46019ACB469146114A012053435246FF
:1013200013604B465A46029C1A60256005B0F0BC1B
:10133000BB46B246A946A046F0BD01235B429C468F
:10134000E1444B46002BD2D15B4626000398BDE713
:1013500050262F0050F80C0020D1FFFFB0710B0079
:10136000001BB700094A10B594464024830063442B
:101370001A68C00062408034144080225201134336
:101380001C60034B9C466044416010BD04C001409A
:1013900000400140074BC0009C46604403680902BE
:1013A0005940C0239B00194080235B01034319600F
:1013B0007047C046044001400123D02283401206FA
:1013C00093629361094A40219446830063441A68FA
:1013D000C0004A40803111408022520113431960FD
:1013E000034B9C46052360444360704704C00140A2
:1013F00000400140F0B5D6464F4646464021D02534
:10140000C0B58027884680318C46BB390023012433
:101410008A46134A2D067F0104E001334008043256
:101420001E2B18D00442F8D0210099404646A962EC
:10143000A961116840087140664631403E0016437C
:101440003160084ED900B1465646494401330E601A
:1014500004321E2BE6D1E0BCBA46B146A846F0BD28
:1014600004C0014004400140024B18688007C00FCF
:101470007047C04600C00640EFF3108072B6034AC2
:101480001368002BFCD0BFF35F8F70472C0100D096
:10149000BFF35F8F0022024B1A6080F31088704701
:1014A0002C0100D070B5EFF3108C72B60D4D2B6887
:1014B000002BFCD0BFF35F8F0724CB08C618C05C9D
:1014C00001230C40A3401C000440034207D11843F1
:1014D0003070BFF35F8F2C608CF3108870BD1000EC
:1014E00001F040FC2C0100D0F8B54746CE468846B6
:1014F00080B5EFF3108C72B6214D2C68002CFCD017
:10150000BFF35F8F9A422CD8D4080727055D0619D0
:1015100001241740BC402C421FD0072101278946D7
:1015200009E0D408055D06194C4639001440A14075
:101530000C00294211D001329342F2D201204042E4
:10154000BFF35F8F00220E4B1A608CF310880028C7
:101550000FDBC0BCB946B046F8BD2543100035705E
:10156000EEE7BFF35F8F00232B608CF31088012020
:1015700040424346002BECD0089801F0F3FBC046F4
:101580002C0100D00021044B044ABFF35F8F02C33B
:101590009342FAD17047C046000100D0800100D0CC
:1015A000044A1078431CDBB2172B00D910231370A8
:1015B0007047C046AA10002010B5064B064C82B0FA
:1015C0000100009318221F232000FFF78DFF02B0B7
:1015D00010BDC04604970010E0190220012383408B
:1015E000002904D0034A1360034A13607047034A7A
:1015F0001360FBE780E200E000E100E080E100E052
:1016000001228240034B1B6813405A1E9341D8B2FB
:101610007047C04600E100E0024B10309B6880003C
:10162000C058704700ED00E070B50D00EFF3108674
:1016300072B60F4A1368002BFCD0BFF35F8F0D4BBF
:1016400010309B6884001B590B4A934203D09D4283
:1016500001D001F09FFB074B9B681D51BFF35F8FCB
:10166000BFF35F8F0022024B1A6086F3108870BDB3
:10167000240100D000ED00E0CD010010F0B5574688
:101680004E46DE464546E0B585B00600009117009F
:10169000EFF3108B72B66A4A1368002BFCD0BFF3CD
:1016A0005F8F0025674B5D579A46002D00DAA9E051
:1016B0006B00654C01935B199B009846A146C144A1
:1016C0004B4652469B7910361370604BB6009B68B0
:1016D00099590B1B2F2B33D95D4B994200D0ACE0AD
:1016E000019B42469C465B4B6544AD0063535A4B9D
:1016F0000232A218043B9B1A1B05584A5B0D651960
:1017000013436B80564B0121AB80FF23AB71009BD1
:10171000EF71AB604B460B4319004C4B9B689951E2
:10172000BFF35F8FBFF35F8F0022454B1A608BF3CF
:10173000108805B0F0BCBB46B246A946A046F0BD35
:1017400001200A008243D3798C46BB4231D84546FA
:10175000130044491B1B5B415943090D3D4B635327
:101760003D4B02356519043B5B1B1B053B4D5B0D77
:101770002B43AA464D466B800425AC465546E044B3
:10178000131F44441B1B1B055B0D1D434B469971E6
:1017900000999D8099604946DF71334B0143136086
:1017A000BBE75800C01880002018C179B9422FD972
:1017B00002000623D356002BF3DA02932B4B61462B
:1017C0000393131D9A4604235B429C46E144504612
:1017D0004B461B1A1B055B0D9C46204B957198468A
:1017E0006346404603439380019B5A199200039B32
:1017F000A418A380029B1C4AA371009B2260E7717E
:10180000A3608AE701F0C6FA002553465D574FE70B
:10181000908802934005131D9A46031561469C4625
:101820004046D444634604302018181AE0230005CB
:10183000400D1B0218430390C5E701F0ABFA4FE7D8
:10184000240100D0B65A0320AC10002000ED00E0C7
:10185000CD01001000A1FFFFDC10002000E0FFFF21
:1018600001BDFFFFAAAA00000148804701BD00009A
:10187000F0B5DE4657464E464546E0B50C0083B00F
:10188000EFF3108872B65D4A1368002BFCD0BFF3EB
:101890005F8F5B4B5B499A68030010339F00D559FB
:1018A0008D4239D0A5424AD0574EAA1B2F2A33D891
:1018B00001229246824091464846544A126810409E
:1018C00001904846524A1060BFF35F8FEFF30582E4
:1018D0009346002A35D0934201D001F05BFA2A00EA
:1018E00053469A439068844208D175E04B005B18D8
:1018F0009B00F3189868A04234D01A000621515674
:101900000029F3DA844253D0019B002B26D04A46AB
:10191000404B1A603D4B1A60394B9B68DD51BFF359
:101920005F8FBFF35F8F0022344B1A6088F31088FB
:1019300003B0F0BCBB46B246A946A046F0BD0D00C0
:10194000EAE72A0053469A4390688442D6D106209B
:1019500010561300002809DA0D0031E04A462C4BDE
:101960001A60D9E706201856002822DB4200111819
:10197000890074188A46A1689960E179D9710621B5
:1019800061569971002925DBA488F11A6405241594
:1019900054440919E0240905490D24022143998082
:1019A00013181D4A9B001178F31899711070ABE75A
:1019B00013005946002914D1FF31917117499180C4
:1019C00015490A789A71164A9B1B5B415A43120DBE
:1019D0000A7099E71349E2E7062010561300002821
:1019E000C4DA114A1149D21A083A5002400D014393
:1019F00099800F4952080A43DA8085E7240100D014
:101A000000ED00E0CD010010AC10002000E100E08E
:101A100080E100E080E200E0B65A032001BDFFFF54
:101A2000AAAA000001BD0000E610002000F0FFFFA0
:101A300000F8FFFFF0B5EFF30584C646012600B5B8
:101A40000643EFF3108C72B61C4A1368002BFCD0CF
:101A5000BFF35F8F1A4FA400BB681A4D1B590200D9
:101A6000984619490023521B52415143090D2A003F
:101A700049B2B04515D0062414578C4215D0013315
:101A80000C32042BF7D1114B1A7819708271BFF305
:101A90005F8F0022094B1A608CF3108880BCB84617
:101AA000F0BDBB680A4A1A51EDE75A00D3189B00F3
:101AB000ED18FF23AB71074BAB80E4E7240100D0A6
:101AC00000ED00E0AC100020AAAA0000B65A0320E6
:101AD000CD01001001BDFFFF054B064A1360064A09
:101AE000136053609360D3601361536193617047D7
:101AF0008080808000E400E004E400E0024B9C462B
:101B000061448900016070474000003410B5040052
:101B1000FFF746FD01002000FFF7F0FFFF232371D0
:101B2000BFF35F8F10BDC04610B50400FFF738FD4E
:101B300001002000FFF7E2FFFF23A380BFF35F8FC8
:101B400010BDC04610B504000120FFF735FD034B62
:101B5000C3189B002360BFF35F8F10BD40000034AB
:101B600083680B4810B58446614462441201090140
:101B700059189B185C684A680120944201D802D029
:101B80000020C0B210BD1A680B689A42F9D8F7E776
:101B9000FFFFFF0F10B508000B690C0098470028E5
:101BA00002D02068616810BDE06000210020FAE7E3
:101BB0000A4B1968EFF3108072B60A68002AFCD04D
:101BC000BFF35F8F1B68BFF35F8F00221A6080F343
:101BD000108840BF002000217047C046805A032073
:101BE000F8B50B0004004168EFF3108572B60A687F
:101BF000002AFCD0BFF35F8FFF222068D9B2467B5A
:101C00001A408E4207D006685700BF18F619033EE7
:101C1000B678002E10D0E6681B0AB218013A127886
:101C2000DBB29A420DD000206368BFF35F8F0022C1
:101C30001A6085F31088F8BD22699342F3D12661BA
:101C4000F1E700F067FDEFE7F8B557464E46454629
:101C5000DE46E0B598460CAB1C780DAB1B78070050
:101C600091469A460668002C3BD0230065003168F7
:101C70002D19033D4919374A944663441A01BB683C
:101C80009B184A461A6042465A600A9A9A600B9A12
:101C9000DA6000238B704B700B70737B9B46002BBC
:101CA0003BD0220073685946B06898475B465B009A
:101CB0005B443268033B002827D058465519A8706A
:101CC000D118D35C002B00D06B705B460C70737323
:101CD0005C4523D02000F0BCBB46B246A946A046D6
:101CE000F8BDB07B0028F6D0450031682D18033DC3
:101CF00049194A780300B273002A00D1F273002216
:101D000004008A704A700A70B5E7D3189C705119A4
:101D1000525D002A18D15B460B7074734A464346E5
:101D2000387D00F0ADFB051E06D10E9B002BD1D0F7
:101D30000E9B20001D70CEE75346002BF5D12100ED
:101D4000386800F0E7FCF0E75A705B460B7074737C
:101D5000E4E7C046FFFFFF0FF0B5DE4657464E46AC
:101D600045460023E0B58BB00893684B8200D458F9
:101D700000239B46099000F0EFFA02000B00606818
:101D8000EFF3108A72B6564601680029FCD0B246BD
:101D9000BFF35F8F21684F7B8C46002F2ED0A56844
:101DA0005B49A94679180901894449460868496888
:101DB00005000E00AD1A9E41002E5FDD02000B00F3
:101DC000099800F05DFB002300229946002306924B
:101DD0000793002398466368BFF35F8F5A461A60E3
:101DE0008AF310884346002B12D10028C3D10BB0D0
:101DF000F0BCBB46B246A946A046F0BD0023002277
:101E00009946002306920793002300209846E2E7B4
:101E1000089B494618023843C047626805000E0017
:101E2000EFF3108A72B61368002BFCD0BFF35F8FFC
:101E3000002E41DB2B00334302D02369002B56D107
:101E40002368DA7B002A05D01968500082188A18A6
:101E5000033A57709A7B002A00D19F73DF73E268C0
:101E6000013FD35D0133D3555B4623616368BFF304
:101E70005F8F5A461A608AF310887CE7002E02D1E1
:101E8000002D00D09AE70021604600F017FC4B4679
:101E90001A685B68069207934B469B6898464B46C8
:101EA000DB689946E368DB19013B1B7808931B024A
:101EB0000343236100208EE72369002BC0D0069ADC
:101EC000079B8021521BB34109068B4202D301229A
:101ED000104B524200210491013103914946019176
:101EE0004146200002970091FFF7AEFEBCE700F0EC
:101EF00033FA2A00330012184B41802109068B4225
:101F0000E8D30122034B5242E4E7C0461C580320A9
:101F1000FFFFFF0FFFFFFF7F10B5144C6368002B1E
:101F200004D00A211248FFF7E9FD10BD2300114A31
:101F30001021206800F056FB032000F001FA032076
:101F400000F006FB03200C4900F054FAFFF728FBD1
:101F50000A4B9C4603232375D0231B061B68604451
:101F60006375074B80006060DC60DAE7F4100020E6
:101F7000805A0320611B0010591D001040000034DE
:101F80001C58032000487047F4100020F0B5574655
:101F90004E46DE464546E0B58BB01F00149B80469A
:101FA0009B46159B16009A4616AB1B7802AA079310
:101FB00000239946D37743465A68EFF3108472B6EC
:101FC0001368002BFCD0BFF35F8F02AA94461F2337
:101FD000634404934B4603930293534601935B4639
:101FE0003200009340463B00FFF72EFE4346002898
:101FF0000DD15B68BFF35F8F186084F310880138E0
:102000000BB0F0BCBB46B246A946A046F0BD424666
:10201000DB6852681B18013B1B78BFF35F8F494692
:10202000116084F3108802AAD27F002A02D11B0219
:102030001843E5E7079B002B1DD051460020D847E9
:1020400003000B4317D004000D1E09DA8023361B52
:10205000AF411B069F42AED30126084F7642AAE746
:1020600000F07AF98023001969411B0606000F0071
:102070009942A0D3F0E70020C2E7C046FFFFFF7FF0
:10208000F0B5C646110000B584B080460C9C1943DB
:102090002DD0D817050055402E0005005D400100E9
:1020A0002F00361A8F4141466360A1600B9B0A994D
:1020B00022606361216100F04FF90B000200802172
:1020C00092197B4109068B4202D301220A4B5242EC
:1020D000012102910949404601940091FFF756FF02
:1020E000E060C043C00F04B080BCB846F0BD01261C
:1020F000002701220023D6E7FFFFFF7F951B00107A
:10210000F0B504000D0006267642F717C6463619CC
:102110006F4100B584B08F4214D811D000F01CF983
:1021200032003B00121A8B41002B15DC002B3ED0F5
:102130002000290000F04EF904B080BCB846F0BD84
:102140008642EBD90026002700F006F932003B005A
:10215000121A8B41002BE9DD002302930193154BEA
:102160003200009314483B00FFF710FF0028DFDB2C
:1021700000239846BC46114A114F7B6A9C4504D8FF
:10218000B96A8E42D4D99C45D2D11168EFF3108040
:1021900072B60B68002BFCD0BFF35F8F1368BFF3E0
:1021A0005F8F4146196080F3108820BFE5E7002A61
:1021B000BED0D1E7B11B0010F4100020805A0320DC
:1021C0000040054070B504000D0000F0C5F8802304
:1021D000001969411B06994202D30120024940427D
:1021E000FFF78EFF70BDC046FFFFFF7F70B5060092
:1021F00000F0B2F8FA2204000D00002330000021A4
:10220000920002F021FE8023001969411B069942C9
:1022100002D3012002494042FFF772FF70BDC04661
:10222000FFFFFF7F70B5EFF3058305000C0084B05E
:10223000002B0FD0104A0020536AA34203D3926AA6
:102240000130AA4201D304B070BD1B1B5A1E93413A
:10225000D8B2F8E7094E02930193094B02000093AC
:1022600030000B00FFF792FE011EE3DD20BF3000BF
:10227000FFF7B6FCDEE7C04600400540F410002042
:10228000B11B0010F0B5EFF30582D6464F46464627
:102290001000C0B51038EFF3108872B6214C2368D7
:1022A000002BFCD0BFF35F8F0123190081401E4D2E
:1022B0001F006963AA461D4D29601D4D2E78AC464E
:1022C0003500C5402F402B4215D053465F6A194B4D
:1022D0008500EB589F4218D36246174B8E43EB584C
:1022E0001670BFF35F8F0022226088F31088002BE6
:1022F00006D0984704E0BFF35F8F276088F310880B
:10230000E0BCBA46B146A846F0BD0C4B92009C46D4
:10231000624413681360BFF35F8F0023236088F368
:102320001088EDE7280100D0004005403C700540D2
:10233000BC5A0320885A0320C4140220D03F054011
:1023400010B5034B01001800024AFFF7ABF810BDAF
:10235000B05A032020970010034B596A0A00986A6C
:10236000596A8A42FAD170470040054070B50400AE
:102370000D00174A536A1900966A536A8B42FAD1C4
:102380003000190024184D41AB4216D813D0104A22
:102390002B00526A954203D90D494A6A9A42FCD3EE
:1023A0009A4207D10A4A02E0516A994202D1916ADF
:1023B000A142F9D370BDA642E9D9054B5B6A1C0066
:1023C0005A1CEFD0012301246442E5175B42E3E786
:1023D00000400540064A536A9942FCD807D1044B95
:1023E00002E05A6A914202D19A6A8242F9D3704756
:1023F0000040054070B504000D00EFF3108672B682
:102400001A4A1368002BFCD0BFF35F8F002D1BD03E
:102410002000FFF701F9164981420AD02000FFF79A
:1024200003F901212000FFF7D9F80123A340114A45
:102430001360114BA400E550BFF35F8F00220B4BDC
:102440001A6086F3108870BD0121A1400A4BA200DA
:10245000D5500A4B20001A788A4305491A70FFF7B5
:1024600007FA00212000FFF7B9F8E5E7280100D0BE
:102470008522001038600540C4140220BC5A032095
:10248000F0B54F46D6464646C0B507002B4C616AAC
:102490000D00A66A616AA942FAD18B4208D805D01C
:1024A0000120E0BCBA46B146A846F0BDB242F7D919
:1024B000EFF3108A72B6224801680029FCD0BFF3FE
:1024C0005F8F0125BD401F491C4C8846097889460D
:1024D0002943C9B28C46414660460870391D8900BF
:1024E00065630A511849B8004350216A0020294207
:1024F00019D0616A0800A66A616A8142FAD18B42EA
:1025000019D801D1B24216D8CC450BD00B4B1F22A3
:102510001D625D6301233A4093400C4A13604346B9
:102520004A461A700120BFF35F8F0022044B1A60E5
:102530008AF31088B5E70020F5E7C0460040054063
:10254000280100D0BC5A0320885A032080E200E012
:10255000EFF3108C72B60A490B68002BFCD0BFF366
:102560005F8F01238340074A0748136202789A432A
:102570000270BFF35F8F00230B608CF310887047ED
:10258000280100D000400540BC5A032070B5060069
:102590000D00140000291DD0002A12D07368806835
:1025A000984762006B0012195B193168033A033BCC
:1025B000002808D08A189570C818CB5C002B0BD166
:1025C0000470280070BDCB189C7088188A5C002AA3
:1025D00005D105702000F5E753700470F1E75A70DB
:1025E0000570F7E710B583600023CCB24373013365
:1025F000426004738373C4730068421C012C05D9C4
:102600000133DBB2137003329C42F9D1FF230B403C
:102610005A00D318C01800230338437010BDC046B9
:1026200070B50400081E07D0430021681B18033B47
:10263000CB185A78002A00D170BD5500AD18033D63
:10264000491900254E784D705D7001002000FFF79C
:102650009DFF310005002000FFF7E2FF2900020086
:102660002000FFF793FFE7E7F8B54D006D1803680A
:10267000033D0E00595D17000400FFF7D1FF002F46
:102680000CD12368002805D00021420012189A18A6
:10269000033A917000225B195A70F8BDE17B236800
:1026A000002904D04A0052189A18033A5670A27BA7
:1026B000002A00D1A673E673E4E7C046F8B5467B6E
:1026C00003687500AD19033D0F00595D0400FFF765
:1026D000A7FF002F0ED12368002805D0002142005B
:1026E00012189A18033A917000225B195A7060739D
:1026F0003000F8BDE17B2368002904D04A0052185D
:102700009A18033A5670A27B002A00D1A673E6738A
:10271000E2E7C04670B5050000292CD0437B8B4210
:102720002ED04C0000686418033C0419A278002ADB
:1027300021D053009B18033BC25CC6188A4202D1C9
:102740001BE0002A08D053009B18033BC3185A789B
:102750008A42F6D162785A70002301222800A370C1
:102760006370FFF781FF697B02002800FFF70EFF0F
:102770006873012000E0002070BD63783370EBE7E0
:1027800001221900FFF770FFF2E7C04670B516008E
:102790000D0019000400FFF7B1F92900701C02F0C8
:1027A00043FC0023E681A5816060A36070BDC04644
:1027B000F0B5C646076B04000E00150000B5FB0718
:1027C0000CD4E36A22005E4080232C325B0135404A
:1027D00013431D60276380BCB846F0BD0200C023D0
:1027E00030329B0113430C4A1A60436A826A9B0190
:1027F00098460620904400F09DF9434607499B0205
:10280000984601F023FD0100404601F01FFD002124
:10281000FFF7ACFDD5E7C046010300004E0E0000F7
:1028200070B5040006200D0000F084F92900C000F6
:1028300001F00CFDC30906D0104A934214D90023BD
:102840000F4D104901E04025012100226162200066
:10285000A3620021FFF7ACFF062000F06BF929000E
:10286000800001F0F3FC70BD7F220240013252086B
:102870009D011900AD181300E7E7C046FEFF0000F8
:10288000C0FF3F00FFFF000070B5040006200D00F0
:1028900000F050F9061E31D0194B1A49E3185A1EA0
:1028A00093418022120494465B429B0D164A9B057D
:1028B00063441360154A136018008A689043FBD183
:1028C0000F4B134AE31859424B4180215B004900EA
:1028D000995220002900FFF7A3FF6E220600602115
:1028E0002000FFF765FF220080232C329B01134359
:1028F00010221A60074B23630323A364300070BDCA
:102900000080FCBF00C0004000E0004000F000403C
:10291000985A032001030000F0B5DE464E465746A4
:102920004546E0B583B001921A0E93461E0205009B
:1029300000238946300059460C9A01F0C5FC374BFC
:102940006C009C466419A4006444636807008342D9
:1029500000D260602B1FDBB29846012B38D9C02310
:1029600080229B01234312011A602D4BAD0059595F
:102970009A46002923D1019B22685B015340E02243
:102980001A4080235B0123431A604246012A38D94A
:10299000802380229B01234312011A6030003A00F9
:1029A00000235946676001F08FFC534658510120BF
:1029B00003B0F0BCBB46B246A946A046F0BD58697C
:1029C00001F044FC013043001B18033BFDD2D2E769
:1029D0004B46012BC3D1C02303229B0123431A6022
:1029E000023AA3681A42FCD0019B22685B01534063
:1029F000E0221A4080235B0123431A60084AAD009D
:102A000092464A462168514003220A401A60012238
:102A10004B469A40A3681A42FCD0B9E700800040B8
:102A2000E419022010B582B0049C9C4204D80094A2
:102A3000FFF772FF02B010BD0020FBE730B50C209D
:102A400083B000F0DDF8FEF70FFD00280BD02D4815
:102A50002D4A01000300283104C38B42FCD12B4BCB
:102A6000436203B030BD2A4CA06700F0D1F80122C8
:102A7000284B1A60636C012BFCD10322264B1A6091
:102A8000234A936B012BFCD1013300930121234A8C
:102A90002348043300F054F8052301210093214A10
:102AA000214800F04DF8214B214D174C0093002296
:102AB00002210420FFF730FF2B00002201210095A6
:102AC0000520FFF729FF23000022002100940720A2
:102AD000FFF722FF23000022002100940820FFF7C7
:102AE0001BFF0A4B00220093002123000920FFF75F
:102AF00013FF2B000022002100950620FFF70CFF9A
:102B0000AFE7C046E4190220006CDC021BB70000EE
:102B1000008000403CB0004030B00040002F6859B9
:102B200000800240008C864700C00240001BB700B6
:102B300040597307014B8000C0587047E4190220C8
:102B4000F8B5040022481E0017000D0001F07EFBBE
:102B50000100380001F07AFB069B36041B031E437C
:102B60002368002B22DB1B4B1B49E3185A1E9341A1
:102B70008022920194465B421B0B184A1B0363445C
:102B80001360174A13601F008A689743FBD1C02265
:102B9000231D92011A4321232560A060136023683E
:102BA000002BFCDA0823E6601360F8BD3F2322689F
:102BB0001340AB42D7D1A3681B051B0D8342D2D172
:102BC000EE22E368D2021340B342CCD1EDE7C04617
:102BD000001BB7000040FDBF00C0004000E0004007
:102BE00000F00040044B00011B68044A5840F023E9
:102BF000034013607047C046004006400050064046
:102C00008023024A9B000343D36270470080054043
:102C1000AA23064A1B0113602F230549D360054BE5
:102C200019605368002BFCDA7047C0460040024030
:102C300000B0FA00006002402B4B2C4A70B51A60BD
:102C40002B4A2C4B2C491A6014008B689C43FBD1F7
:102C50002A4D2B4EB54208D2013E761BB60808CD50
:102C6000984723000134B342F9D1FFF7E7FE254A24
:102C7000204B1A60204A9368DB43DB01DD09002BFF
:102C8000F9D14022204B214C214E9A675A671A678E
:102C9000DA66B44208D223682000002B20D0083422
:102CA000FEF742FFB442F6D31A4C1B4EC022B16865
:102CB000200002F0E7F9B460FEF764FCFEF70CFFB9
:102CC000FFF72AF9154C164EB44208D2013E361BC6
:102CD000B60808CC98472B0001359E42F9D170BD4B
:102CE000FEF714FF0834D4E700E00040BFCDFBFE40
:102CF000FE7F3C0000F0004000C00040CC160020E9
:102D0000DC160020FFFFFF0100F00140BC16002090
:102D1000CC1600200000002000ED00E0DC160020B2
:102D2000E416002000BEFDE7094A030010680028F1
:102D300005D00849C3188B4207D81360704706486E
:102D40000449C31810608B42F7D901204042F5E7CF
:102D50003855032000000420C05A032010B5FFF7A7
:102D6000E1FFC0460FB400B5084883B002F08EFA08
:102D7000049B002B07D005A91800019101F0E6F98A
:102D8000034802F083FA0120FFF7CCFF44970010BC
:102D90005497001010B50148FFF7E4FF5897001052
:102DA0007047C046F8B55746DE464E464546E0B544
:102DB00099460A9B07009A460D9B884693460B9CB2
:102DC0009B073CD10C9B9C423ED20C9B0B941E1B40
:102DD00015000C005E442A004B46013521002020DE
:102DE000B847B542F7D1A0460B9C002C20D04546F1
:102DF00036195346321B013C185D29004B46B84733
:102E0000002CF6D12B00350098460D9B9B070FD563
:102E10005B46EC1A0C9BA3420AD9464698462A0008
:102E20004B46310020200134B8470135A045F6D883
:102E30002800F0BCBB46B246A946A046F8BD160025
:102E40001500002CD3D1E0E71600002CCFD11500DF
:102E5000EEE7C046F0B54F464646D646C0B584B00C
:102E600098460EAB1B7894469946129B0D9C109F7A
:102E7000119E9A0725D4002E67D1BC4221D201228F
:102E80001A409246202C00D1EDE00C9A551E3022BB
:102E900002E0202C00D17DE001342A55A742F8D869
:102EA0005246002A0DD0B4420BD20C9A551E302245
:102EB000202C02D173E0202C2ED001342A55B442AC
:102EC000F9D1DA063ED55A052FD4002C29D10F9A14
:102ED000102A00D1BAE00F9A022A00D1BFE03022B6
:102EE0000C9C227001244A46002A66D15A0700D45D
:102EF0009CE02B220C9D2A55013403930C9B6246C7
:102F00000093029643460194FFF74CFF04B0E0BCE7
:102F1000BA46B146A846F0BD2024DA06EDD55A05DA
:102F200003D4A74269D0B44267D00F9A102A74D054
:102F30000F9A022A57D0202CDFD0220001343025EE
:102F40000C9FBD54202CD8D0CDE7012215001D4088
:102F5000AA461A4236D04A46002A4CD10C321A42AE
:102F600049D1BC429FD2202C00D08EE7202E16D80B
:102F70002024DA06C1D55A051AD4202F01D0202EDC
:102F8000D3D11F220F9D102D70D00F9C022C75D015
:102F9000541CD4E75246002A7DD0202EBCD92024D0
:102FA000DA06AAD55A0503D4202FEAD0202EE8D07D
:102FB0000F9A102AA1D120249FE72D220C9D2A557B
:102FC00001349AE7BC4200D37BE7202C00D05CE7B9
:102FD000DA06F0D55A05EED4202F66D0202EEAD19D
:102FE00034001F22CEE7202C00D186E762220C9D00
:102FF0002A5501349FE7013EB3E7621E012CC1D17F
:103000000F9A102A00D066E79A063DD558220C9CEC
:103010002270283A6270022465E79A060ED4202CAA
:10302000C9D078220C9D2A55013484E71A0700D4B0
:1030300063E720220C9D2A5501345EE7202CBAD08C
:1030400058250C9A12191570013474E79A0608D5A0
:1030500058220C9C227030226270022443E76032B6
:10306000F7E77822F5E7002A82D1B1E7A21E013CFA
:103070009D0605D478250C9FBD545EE71400B5E786
:1030800058250C9FBD5458E778220C9C2270483A72
:103090006270022427E7DA0600D42EE75A0587D4A7
:1030A000202F00D03FE71F226CE73C001F2269E77A
:1030B000F0B557464546DE464E46E0B593B09B46D2
:1030C0001CAB80CB80461B78894692461E9D099397
:1030D000002F08D11023219A00249A431300219A2B
:1030E0002193520524D4219B61229B0639D4D3B26B
:1030F00002AA1F2694460A3B00246644089308E06F
:103100003033DBB201343355AF4211D3202C0FD012
:1031100007002900380001F099F8CBB20929EFD94E
:10312000089A013494466344DBB23355AF42EDD282
:10313000219B52460693209B494605931F9B404680
:103140000493099B039502930AAB009301945B4699
:10315000FFF780FE13B0F0BCBB46B246A946A046BE
:10316000F0BD4122C3E7C046F0B54546DE465746AE
:103170004E46E0B595B09B461E9B1F9D9A4620ABE0
:103180001B78239E0B93229B0890984653460991E7
:103190000A922B4308D1269A10339A431300269A99
:1031A00000242693520529D4269A612392063FD4FF
:1031B00004AA94460A2252421F279146DBB20024F9
:1031C000674499440BE03032D2B201343A55AE42F2
:1031D00014D8AE422ED0202C10D082460D0042468C
:1031E00033005046290001F06FF8D2B2092AEAD91B
:1031F0004A44D2B201343A55AE42EAD9269B0A9AE1
:103200000693259B09990593249B089804934346AC
:1032100003930B9B019402930CAB00935B46FFF767
:1032200019FE15B0F0BCBB46B246A946A046F0BD9B
:103230004123BDE7D045CED9E0E7C046F0B55746BB
:103240004E464546DE46E0B58FB0814688469246FA
:103250000893189A199B1000190001F0B8FA002879
:1032600000D0ADE0189819990122D84B524201F0D4
:10327000A9FA002800D0A3E0189819990122D44B8C
:10328000524201F091FA002800D099E0189819995B
:103290000022002301F088FA002800D0CAE1189E1D
:1032A000199F80231C9ADB001A400B921C9A1A4229
:1032B00001D106231A9380231C9A1B011A40330064
:1032C0000696079709923B4300D092E0002A00D06F
:1032D0006AE104249B461B9B00259C4200D21D1BD7
:1032E00002231C9A1A4009921C9A134203D063428B
:1032F00063415B421D405B46002B07D0069A079B4B
:103300003000390001F0EFF906000F001898199904
:103310000022002301F048FA002803D0802109068A
:103320007B181F001C9AAB4B009601971340089F17
:1033300004931A9B0395029352463B00414648462C
:1033400000F084F90500002C4BD020221C996E1C43
:1033500011400B0059424B41584210403B002A009B
:1033600041464530C8470523059300235A46594630
:1033700003930A330293D30FD21701938B18534050
:10338000013C3200009341463B0048460494FFF75D
:103390008FFE099ABB460500002A22D05246841AA5
:1033A0001B9AA2421DD94F461600D9462A004B4609
:1033B000414620200134B8470135B442F6D310E02D
:1033C0001C9B524604931B9B414603931A9B484601
:1033D0000293189B199C00930194089B00F036F906
:1033E000050028000FB0F0BCBB46B246A946A04677
:1033F000F0BD794B78009C46400D604401F0FAF92D
:10340000764A774B01F08DF9764A774B01F062F9F5
:10341000764A3B031B0B1A4304000D00069811006B
:10342000734B002201F04DF9724A734B01F079F9A8
:1034300002000B002000290001F04CF901F0F2F924
:10344000834601F0D7F96D4A6D4B04000D0001F081
:1034500068F900226B4B01F03DF901F0E3F96A4A8B
:103460006A4B29000A90200001F05BF904000A98D9
:103470000D0001F0BFF9664A664B01F052F90200F7
:103480000B002000290001F01CF904000D000200CF
:103490000B000694079501F044F904000D0006980E
:1034A000079902000B0001F015F900220C900D9114
:1034B000594B2000290001F016F90022574B01F06A
:1034C00009F902000B002000290001F00CF900228C
:1034D000534B01F0FFF802000B002000290001F01F
:1034E00002F9069A079B0D0080210400C9050020FF
:1034F00001F0E7F802000B002000290001F0EAF8D3
:1035000002000B000C980D9901F0EDF80022374BEA
:1035100001F0E0F8434B0A9C9C46644423050022DA
:1035200001F0FFF832003B0004000D0001F04AF901
:1035300000282CD1069407955B46C62463339C4231
:10354000A441099B64420434002B00D1C3E6069ACF
:10355000079B1100194329D030003900324A334B00
:1035600001F028F9002807D0002230003900304B44
:1035700001F01AF9002819D11A9B002B00D1AAE6F4
:103580000B9B5A1E93411A9AD31A1A93A3E601234E
:103590005B429C46002220002900204BE34401F0BE
:1035A000A2F806900791C7E700239B461A9B5B454C
:1035B00049DD5A469B1A013B1A9380231C9ADB0073
:1035C0001A43002300249B461C9284E6FFFFEF7FF2
:1035D000FFFFEFFFFFF7FFFF01FCFFFFFB799F50AD
:1035E0001344D33FB3C8608B288AC63F0000F03F26
:1035F0000000F83F61436F63A787D23F71A3790949
:103600004F930A400000E03F1655B5BBB16B024036
:10361000EF39FAFE422EE63F00002C400000244025
:1036200000001840FF0300002D431CEBE2361A3F58
:1036300080842E41802212069446189B1E00199BFE
:1036400063441F002DE600231A93B6E7F0B5454604
:10365000DE464E465746E0B595B08B4690469946B5
:103660001E9A1F9B0A9019001000209D01F0AFF8D0
:10367000002800D0B0E11E981F990122C74B52428A
:1036800001F092F8002800D037E11E981F9901221E
:10369000C34B524201F096F8002800D0A7E01E98D4
:1036A0001F990022BF4B01F08DF8002800D088E060
:1036B0001E981F990022BC4B01F076F8002800D01C
:1036C0007FE01E981F990022002301F06DF800286A
:1036D00000D0FAE000230B938023229C229ADB0087
:1036E0001C401A4200D102E1092D00D87CE106A954
:1036F0008C462C00172200233021093C6244013300
:10370000D154EF1A202B00D132E1A342F7D100228D
:10371000A44B069207931E981F9901F083F80500A9
:1037200001F068F802000B001E981F9900F0C9FF15
:10373000069A079B00F0F5FF0890099101F096F8B2
:10374000060001F053F802000B000898099900F0F8
:10375000B8FF0022954B0890099101F033F800283A
:1037600000D1D2E00136300001F040F8069A079B04
:1037700001F020F8002801D000260135AA46002FCC
:1037800000D098E0280001F035F802000B001E98E8
:103790001F9900F096FF854B002206000F0001F0F4
:1037A00003F80CAB9A46002845D1002230003900BE
:1037B0007E4B01F007F800283DD1EB073BD50135E2
:1037C00039E0229B42460493219B594603930A9871
:1037D0001E9B1F9C0295009301944B46FFF72EFD04
:1037E00015B0F0BCBB46B246A946A046F0BD229B30
:1037F0005B0767D403226E4B2299019203912199B2
:103800000291009342464B4659460A98FFF7CAFA7E
:10381000E6E706AA94461723280063440A210134E8
:103820001E1900F0EBFC3031280031700A2100F045
:10383000E5FC051E76D0202CEBD10323229A134001
:10384000012B1DD1219B002B1AD00B9B002B00D0EC
:10385000BBE0229A0C33134200D0B6E0219B9C427D
:1038600000D387E006AB9C4617223023624404E075
:10387000219901341355A14259D0202CF8D120248C
:10388000229B01940393219B02935346B9E706AA16
:10389000944617230A216344300001341D1900F0B7
:1038A000D5FC3031297030000A21013F00F0CEFCF8
:1038B000092E46D90600202CE9D155460CAB202410
:1038C0009A46B8E704223B4B96E71E9A1F9B0020BE
:1038D000002100F0F6FE01230B938023229C229A04
:1038E000DB001E901F911C401A4200D0FCE6002213
:1038F000314B0627069207930DE7229B0393219BEA
:103900000293042301932D4B7BE700220898099929
:10391000264B00F049FF002800D02FE7002E4FD1A2
:1039200001362BE70323229A1340012B66D0202C6B
:10393000A6D00B9B002B1FD02D23524613550134CC
:103940009EE75546202CB9D030233A19002F08D0D5
:10395000172006A9013409180B55202CAED094422B
:10396000F6D10CAB9A462E2352461355013462E72A
:103970002024CCE6202C83D0229B5B0708D4229BFA
:103980001B0700D47CE7202352461355013477E708
:103990002B2352461355013472E7C046FFFFEFFF59
:1039A000FFFFEF7F65CDCD4165CDCDC10000E03F8C
:1039B0006C9700106497001080842E41749700105B
:1039C000F30700D4DAE60136D8E6219B013B2193C8
:1039D0009C4200D246E7AAE7229B0393219B0293D5
:1039E00003230193074B0CE7074BEA009B185C6825
:1039F0001B682F000693079400248CE6219B002B64
:103A000095D022E770970010F8CB001010B5002871
:103A100000D110BD01F02CFCFBE7C0460B0010B537
:103A2000002802D049681B68984710BDF0B5DE46F3
:103A300057464E464546E0B597B01C00209B92463F
:103A40000C93C34AC34B834689461A60002900D1B0
:103A5000CEE120780025002800D1D0E1BE4B5F46A2
:103A60000B93BE4BCB460E9308E02A0053465946B3
:103A70006E1CB84735002078002878D001342528FE
:103A8000F3D108239946043B9846023B00269C4606
:103A90002078611C0300203BDBB2102B03D80B9A6B
:103AA0009B00D3589F460300303B092B38D9002395
:103AB00098462A2800D19EE000230D932E2844D05A
:103AC0000200683AD2B2122A1CD80E9B92009A5871
:103AD000974601230C001E43DAE763460C001E43A1
:103AE000D6E743460C001E43D2E710230C001E43CA
:103AF000CEE74B460C001E43CAE780226078520096
:103B0000164301310C00672845D82428ADD902009E
:103B1000253AD2B2422AA8D8914992008A589746AB
:103B200000231A0000E0013193009B185B001A1873
:103B300008780C000300303B303A092BF3D90023FE
:103B4000904601310D932E28BAD18020303B9C46FF
:103B5000C000064360780A0084446346092B00D8FD
:103B60004FE12A2800D166E10C000131A8E7D946CF
:103B70002C00BB46AA4501D853465D1E53462A0079
:103B800049460020D847200017B0F0BCBB46B246DB
:103B9000A946A046F0BD0200693AD2B20F2A00D968
:103BA00063E701216F4B91409C460B400F936346A6
:103BB000194200D035E10A2A27D0072A00D054E75D
:103BC00021220C9B32439846059208220D9B0492B9
:103BD00003931023424602930F9B5946019308CA50
:103BE0003800904600932A005346FFF761FA434697
:103BF00005000C933FE70C9B04CB9046002A65DB45
:103C000060780C930C00013156E70C9B0D9A02CBA7
:103C100011930B7818000C93002A00D016E10C9B2E
:103C2000002B17D002225242013294460A000D9B0B
:103C30008C440F9199466146944602E0914200D12E
:103C40005AE153780132002BF8D14B4661460D936F
:103C5000531A0F9380223300D20013409946164224
:103C600004D00F9B0D9A934200D90F9202221300A9
:103C700033401093324200D153E10C9B002B00D112
:103C80009BE143460C9323002A004D1B4C46A8465B
:103C900099460D9D00E03200002C04D06B1E002DD3
:103CA00000D139E11D0053465946561CB8474346DA
:103CB000985D0028EFD10C9B4C469846109B002B3A
:103CC00000D079E1119B35000C93D4E60222164313
:103CD00042465242607890460C000C930131EBE66C
:103CE00060786C2800D1FCE080225200164301313C
:103CF00008E78022920060781643013102E760787D
:103D0000682800D1F3E0802201311643FAE66728E3
:103D100000D1A0E0472800D1DDE0452800D1DDE05A
:103D20000C9A07210732130042468B431900039275
:103D30000D9A049602920CC93800009201930C91DE
:103D40002A0053465946FFF779FA050093E6C04624
:103D50002D3A0010FC5503205CCA0010A0CA0010C8
:103D6000ECCA001041900000462878D00C9A072138
:103D70000732130042468B43190003920D9A0496B2
:103D800002920CC93800009201930C912A0053460C
:103D90005946FFF75BFC05006DE62A00534659467D
:103DA00025206E1CB847350065E66B1C99460C9BB8
:103DB00004330D93B60700D4DDE00C9B2A0018787D
:103DC00059465346B84743464544012B00D80FE1B6
:103DD000A0464E465C463200534601362100202064
:103DE000B847B542F7D1A34644460D9B0C9342E633
:103DF000CD4B20789B460025002800D02EE60024DD
:103E0000B8E600218B005B185B00013219181078AE
:103E100030390300303B092BF4D90D911400511CAB
:103E20004EE66F281ED000D8FDE0102278281AD068
:103E30009643063A17E00C9AA07808CA0234D94390
:103E4000C9170B400D930C92611C39E6002B00D171
:103E500000E7013AE8E680221201164360E72022DB
:103E6000164383E7082271054FD40C218E4380212D
:103E70003000890008400E4200D0BBE00C9B0433A8
:103E80009946F10500D536E10C9B710600D5A7E0F7
:103E9000310600D43FE11988434604930D9B0596F3
:103EA0000393002302920193009153462A0059463E
:103EB0003800FFF7FDF84B4605000C93DBE558286A
:103EC00026D002226228CED0720500D5B3E010229F
:103ED00096433200B2E0802212011643202216439C
:103EE0001EE7C0229200A0781643E11C0AE6C02219
:103EF000A0781643E11C05E663468C46190063462C
:103F00004A465B1A0D920F93A4E60D218E43AEE74D
:103F100020221643103AA6E70C9B4C469846160002
:103F2000CCE60F9B984500D8F7E042465619F61AA2
:103F30004B460C930D9B0F91994623005C469B4684
:103F40002A005346013521002020B847AE42F7D160
:103F50004B460D930C9B0F9999465B46A3461C005C
:103F6000434601330F930B780C930C98002800D034
:103F700087E62E00A6E64346012B33D96B1E434449
:103F8000994623002E004C46A9465D469B463200CA
:103F90005346013629002020B847B442F7D15B468A
:103FA000AB464D46A1461C000C9B4A461878594624
:103FB00053464544B84718E735000F9B9845D8D974
:103FC0004246A0465C465619F61A2A005346013569
:103FD00021002020B847AE42F7D1A346444671E6FF
:103FE000197859E70C9B2A00187859465346B84768
:103FF0004D46FAE6434607930D9B072006930023A0
:104000000C990896073181430492059302930CC9D9
:104010000C910092019359462A0053463800FFF74D
:10402000A3F8050027E51022330093431A006928FE
:1040300077D1710502D511229643320091051BD428
:104040000C9B1E1DD10547D40C9B51063BD51978FE
:104050000800434604930D9BC90F03930A2305925E
:104060000293019100902A00534659463800FFF709
:104070001FF80C960500FEE4082307209C460C99C7
:10408000073181438C44634603C90C93434607932D
:104090000D9B089206930A22002304920593CB0FEE
:1040A0000293CB1712931393129A139B1600464058
:1040B000180048401496159014981599801A994143
:1040C00002000B00A5E7110620D50021595ECB1791
:1040D000C818584080B2BCE71968434604930D9B4A
:1040E000059203930A230293CB0F0193CB17C918B0
:1040F00059400091B7E7434604930D9B05960393FF
:104100000C9B029201901B680093CEE61968CB17B6
:10411000C81858409DE71968BEE60F9B01330F93FE
:1041200023E71E000A229EE6A12D001000B585B0EF
:104130000391012102900093034813004A4202A90F
:10414000FFF774FC05B000BD1D3A001010B5094A18
:104150000300146884B0002C08D0012200910648A6
:10416000524203A9A047012004B010BD01F08EF80F
:104170000020F9E7FC5503200D3A00100148042106
:10418000014B184720110020B9410010014B9B68DA
:104190001847000020110020142310B501001888D2
:1041A00004331B88984710BD162310B501001888EA
:1041B00002331B88984710BDF8B54746CE4680B5F8
:1041C0000F1E19D01423994604330400002501263C
:1041D00098464B461888434621681B88984701C477
:1041E000431E9841013540420640AF42F1D13000B4
:1041F000C0BCB946B046F8BD0126F8E7124A936F35
:104200009B0815D29066D166002905D0FFE7FFE72D
:10421000FFE7516F106F704704B580210906C21780
:104220005140002800D0C84305F002FA002104BD27
:10423000F0B5146E556E576F166FFFF7E3FF1466F7
:10424000556657671667F0BD000000D0114A936F9E
:104250009B0813D210665166002905D0FFE7FFE7DF
:10426000FFE7516F106F704704B5002801D00020A0
:10427000C04305F0DDF9002104BDC046F0B5146E61
:10428000556E576F166FFFF7E5FF14665566576753
:104290001667F0BD000000D094464A4A926F92081B
:1042A000624601D228E0C046F0B5464E346E756EC7
:1042B000776F366F00F020F89446424A14665566D0
:1042C000576716676246F0BD94463E4A926F920861
:1042D000624601D254E0C046F0B53A4E346E756E77
:1042E000776F366F00F04CF89446364A1466556680
:1042F000576716676246F0BD002B24DB11D00029FA
:104300003EDA00B5C943404200D1013100F038F82F
:10431000C943404200D10131DB43524200D1013355
:1043200000BD002AEBD1002801D1002905D00020D2
:10433000C90FC90701D1C043410800B505F070F9A4
:104340000022002300BD00B500290ADBDB435242F6
:1043500000D1013300F014F8C943404200D10131CB
:1043600000BDC943404200D10131DB43524200D17C
:10437000013300F005F8DB43524200D1013300BDA8
:10438000002923D1002B18D1002A0CD0BC460D4F98
:1043900038667A6600210023FFE7FFE7FFE77A6FC0
:1043A000386F67467047002801D00748010000B504
:1043B00005F036F90022002300BD02000B000020AA
:1043C00000217047000000D0FFFFFFFF002B00D04E
:1043D000BFE0130C28D1002AE7D080B4114F396612
:1043E0007A66FFE7FFE730B4040C7B6F396F1B047C
:1043F00023433B667A66FFE7FFE7FFE7C04684B2E8
:104400007B6F3D6F1B0423433B667A66FFE7FFE744
:10441000C04600232C042D0C7A6F386F00196941B7
:10442000B0BC7047000000D0F0B594460025140ED3
:1044300001D112020835140F01D112010435940F75
:1044400001D192000235D40F01D152000135D40BB5
:104450000134254F7C66254C3C660E0C93B2FFE779
:10446000FFE7FFE73C6F6643360C7703BE467343B6
:10447000DF0B5B04C01AB941130C7343DB18C91A74
:10448000CE086643360CB64493B273431F0F1B012C
:10449000C01AB941130C73431F0B1B05C01AB94155
:1044A000860D8F023E436643360C092D24DB520AEB
:1044B0007243801A7703460A6643360C16235B1B49
:1044C000DE40DF40BF1964466643821B70460435F8
:1044D00006330100D940A840C01900D30131A242DF
:1044E00006D20023F0BD0000000000D0FFFFFFFF58
:1044F000121B0130F3D3F1E709277F1BFE4064460E
:10450000A2B27243801A00D20139220C7243130CFA
:104510001204821A99410B007046043513370100CA
:10452000F940A840801900D30131002B02D1A242EA
:104530000AD2F0BD013000D30131121BFAD2013B87
:10454000F8D1A24200D2F0BD013000D30131121BDC
:10455000F7E7F0B51C0C00D080E00CB400251C0A75
:1045600004D11B02160E3343120208351C0B04D172
:104570001B01160F3343120104359C0B04D19B0021
:10458000960F334392000235DC0B02D192185B4147
:1045900001351C00971864410134464F7C66464C37
:1045A0003C660E0CFFE7FFE7FFE7C0463C6F664343
:1045B000360C7703BE4697B27743C01B00D2013951
:1045C000C01B00D201399FB27743C91BC91B170C0E
:1045D00077437E04FF0B801BB941CE086643360C3F
:1045E0000C2D33DBB644120B1F053A431B0B97B25D
:1045F0007743C01B00D201399FB27743C91B170C08
:1046000077433E043F0C801BB941860D8F023E4329
:10461000664329277F1BFE400C3D7746AF40BF19FC
:1046200030BCA2B2ABB272437343801A9941220CE0
:104630007243130C1204801A994102000B000137D7
:10464000001BA941F9D2781E0021F0BD0C277F1B69
:10465000FE4077467F0BAF40FF19E0E700245D1C6A
:1046600007D0144F7D663966FFE7FFE7FFE7FFE7F6
:104670003C6F95B29EB265436643401BB141150C39
:104680001E0C6543664336042F0C3E432D04401B2D
:10469000B141994204D202000B0020000021F0BD7C
:1046A00001D19042F7D3801A994101349942F2D353
:1046B000F6E70000000000D0FFFFFFFF4840414048
:1046C000484018B41B4B5B68FC46019308BD04DFEF
:1046D0001B49001018B4174B1B68FC46019308BD1A
:1046E00000DF254900109446134A926F920809D2C0
:1046F000624618B40F4BDB68FC46019308BD0CDF23
:10470000DD4B00100C4AF0B5146E556E576F166FE6
:104710006246FFF7EEFF084A14665566576716674C
:10472000F0BD18B4034B9B68FC46019308BD08DF3D
:10473000814A00107C580320000000D0FFB5504093
:104740004240504059404B40594000E0FFB5154FA2
:104750004C00640D03D0BC4204D10C0314D80020DB
:10476000090D09055C00640D03D0BC4204D11C0393
:104770000AD800221B0D1B0501264B4009D44B40D3
:1047800003D58B4200D18242FFBD9942FCD19042B9
:10479000FFBD0B43DB1803431343F5D0C94349184E
:1047A000FFBD0000FF07000000B5FFF7CFFF80410D
:1047B00000BDC04600B5FFF7C1FF01D9002000BD14
:1047C000012000BD00B5FFF7B9FF804100BD012009
:1047D00040054A00121804D85A00121801D80020C7
:1047E000704701207047002070470000002100281A
:1047F00005D17047C1174840401AFAD0C90713B510
:10480000064B1B6898470CBC441CA2401005120BB9
:104810000349091B09051943114310BD7C590320A5
:104820001F04000010B54C00620D8023D218DB007D
:10483000D21A5B057E2A10DD9E3A13DACC170903E3
:10484000490819435242D140640001341532202AEC
:1048500005DAD0400843604310BD002010BD084673
:10486000604310BDC80FC018013810BD18B4044B08
:104870005B6AFC46019308BD24DF8D4D00100000EB
:104880007C580320132370B51C78012C15D010DD43
:104890001048FFF789FC104D01008022280000F02D
:1048A000F1FB022C13D00D48FFF776FC0C4B18607F
:1048B00070BD0C4A084DAA64F5E7074D094A290066
:1048C0002B00803104C38B42FCD1AA64EBE7054A7C
:1048D000AA64E8E7534400007C5803204C330000EE
:1048E0007C590320E948001007B5604601880A0A90
:1048F0000230DF2AFAD1C9B2820804D30288408884
:104900000004104300E00068014A5050039007BDC6
:104910007C5803200FB403BC0CBCF0B50124E407A1
:10492000634000E0F0B50C0DCF0F661E3605891B05
:10493000640503D3C943404200D30131640D03D061
:10494000661CF60A07D0E41B00207F00791C89074B
:104950008912803C24031D0DDF0F6E1E36059B1B44
:104960006D0503D3DB43524200D301336D0D03D0F9
:104970006E1CF60A07D0ED1B00227F007B1C9B07F4
:104980009B12803D2D032F1B661B58D4A446202E5E
:1049900046DA20371400BC401D00BD40F2403341D0
:1049A0002A4380185941CB0F05D0C943C043002288
:1049B00064425041514162464D0D28D10D0D07D141
:1049C00000281FD0241940414941013A0D0DF9D06A
:1049D000640006D3013000D30131002C01D140081E
:1049E0004000013A0BD4941CE40A04D1120511448E
:1049F000DB071944F0BDD907204B194300E0D90764
:104A00000020F0BD0029DDD1002CDBD1F0BD01324A
:104A1000C6074008CD0728434908002EE1D0D9E752
:104A20003C2E29DA203E40371400BC4000D001243F
:104A3000F24014431A00BB401C43D317ACE7AC460A
:104A4000202F08DA20360400B4400D00B540F840AD
:104A500039412843A5E73C2F0CDA203F40360400BB
:104A6000B44000D00124F84004430800B1400C4396
:104A7000C117EAE710001900002494E70000F07F56
:104A8000F0B50C0D661E3605891BE60A6405640D3B
:104A900002D0651CED0A04D0002001210905803CEC
:104AA0002403A4461C0D671E3F05DB1BE70A6405B3
:104AB000640D02D0651CED0A04D0002201231B0501
:104AC000803C24037740644497B484B296B2744324
:104AD000070C7E43150C6F4380B26843361802D32F
:104AE000012000043F183004350C00197D41844634
:104AF00088B29AB250430C0C62431F0C7C438EB2B6
:104B00007E43921902D301263604A4191604170C09
:104B10003618674101BC81B29AB25143040C62431A
:104B20001B0C5C4380B25843121802D301200004CE
:104B300024181004130C401863412D185E41002006
:104B4000474106BC88B293B258430C0C6343120C25
:104B5000544389B251435B1802D3012109046418FC
:104B600019041A0C091862416D185641002047417A
:104B700018BCF902720D1143F0026A0D1043ED02E8
:104B80000A0D03D16D1940414941013B124E9B1B57
:104B90007600B3420ED26D0007D30130002671417A
:104BA0006646354301D1400840001B05C918E4079B
:104BB0002144F0BD0BDA013306D1013004D10131BB
:104BC0004F0D01D04908F2E7E1070020F0BD0136A2
:104BD00031050020EBE70000FF030000F0B51C0DDD
:104BE000671E3F05DB1BE70A6405640D02D0661CE7
:104BF000F60A04D0002201231B05803C2403D025A3
:104C00002D060026F6432E661E096E66CE0FF61997
:104C1000B44649004F0D02D07E1CF60A03D0002096
:104C20000021403F3F033E1BB600B444013F7F05D7
:104C3000C91B49082E6F013676089C02950D254345
:104C40007543ED137543AD1301356D10F603761BF7
:104C50000CB4CC02450D2C43A2B2B3B25A43270C7C
:104C60007B43350C6F43A4B26C431B1902D3012460
:104C700024043F191C041D0CA4187D4124196D4106
:104C8000009A91B2ACB26143170C7C432B0C5F438A
:104C900092B25A43A41802D301221204BF1822046C
:104CA000230C52187B41019C6C431B19520ED901F5
:104CB0000A434401A01A81B2B2B2514303145A43C9
:104CC000360C734387B27743D617D21900277E413B
:104CD00036049B191704160C7F185E417316ED18E5
:104CE000F301002680337541A90F06D16400690ADB
:104CF000E8055B0A184309D22FE00422944480336C
:104D00007541A90AA8059B0A184326D34041494189
:104D10002404009A019B0D005543641B4343E41A8D
:104D200095B286B27543170C7E43030C5F4392B273
:104D30005A43B61802D301221204BF183204330CAE
:104D400052197B4152429C41002C02D40022013076
:104D500051414008CA071043490802B06246D707CC
:104D60009210084BD218084B9A4203D212058918A8
:104D7000C919F0BD0020002A01DC3900F0BD013363
:104D80001905F5E7FD030000FE070000002200B54D
:104D9000203200F004F8080000BD000000220B15CE
:104DA0000AD410B5944600F031F81414013400DA36
:104DB0000021CB17144C204700200021704762448B
:104DC000343A0CD40C2A07DA040091409040524245
:104DD0002032D440214310BDD843D94310BD2032E6
:104DE00007D40C469440524220321141D040204317
:104DF00010BD0800C917203203D45242203210419E
:104E000010BD1800190010BDBF4D00100A0DCC0FC9
:104E1000531E1B05C91A520503D3C943404200D390
:104E20000131520D03D0531CDB0A07D0121B0020A6
:104E30006400611C89078912803A1203014BD21A5F
:104E400070470000FF03000051434343C9188C46DC
:104E5000110C83B24B4310B4040C614392B280B284
:104E6000504362431C041B0C001910BC594113042D
:104E7000120CC01851416144704700004840414045
:104E800048400E4B5B6818470C4B1B6818470C4A90
:104E9000936F9B0802D2094BDB681847F0B5146E7C
:104EA000556E576F166FFFF7F6FF054A1466556685
:104EB00057671667F0BD014B9B6818478059032060
:104EC000000000D0491A002808D1084670470000A9
:104ED000C10FC90700D54042002817D0F44603B4DB
:104EE0000B4B1B68984706BC81409E38404280317E
:104EF00007D20B0607D04900490AC00510430843F2
:104F000060470130F8E7490A8902F5E77047000079
:104F10007C590320014B5B6A18470000805903202D
:104F2000034BDB6FFC4618477CDFBD4F00100000D1
:104F300080590320132310B510481C78FFF734F96B
:104F40000100012C0AD003DD80220D4800F09AF800
:104F50000C48FFF721F90C4B186010BD084C542287
:104F6000200000F08FF823002100084A54338031DC
:104F700004C38B42FCD12262E261E9E753460000A0
:104F8000805903204C3300007C590320914F0010BE
:104F900007B5604601880A0A0230DF2AFAD1C9B291
:104FA000820804D3028840880004104300E00068AF
:104FB000014A5050039007BD80590320C30FDB07FF
:104FC00041000A0E07D0FF2A08D00909054A8918AE
:104FD0001943400770471900002070470249C9185B
:104FE000FAE70000000000380000F07F70B5040010
:104FF0000A4E300004F03CFB200003F097FD050052
:10500000300004F005FB002D05D0054B2C199C4207
:1050100001D8280070BD0348FDF7A4FEBC1600208F
:10502000000004207C97001070B505000C000B4EAA
:10503000300004F01DFB2800210003F017FD0500DF
:10504000300004F0E5FA002D05D0054B2C199C42E8
:1050500001D8280070BD0348FDF784FEBC1600206F
:10506000000004207C97001001480421014B1847E0
:1050700030110020B9410010014B1B681847000097
:1050800030110020014B5B681847000030110020F0
:10509000030010B5080011001B68984710BDC046FA
:1050A000F0B5C64600B5437D07000D001600002B85
:1050B00038D0002A2EDD00216A1E90466A5C037DEE
:1050C0004C1C00200A2A0CD0A64216D043461B5D79
:1050D00021000D3B5A4253416A5CDBB24C1C0A2A48
:1050E000F2D1002BF0D1814217DC022110483B683D
:1050F0009847A64207D02000E8E7864203DD311A30
:105100003B6828189847AD19013D2B780D3B5A4252
:1051100053413B7580BCB846F0BD091A3B6828185E
:105120009847E2E70368110028009847F2E7C04675
:105130006CCC0010F8B50F4B05001C68002C15D086
:105140000D4E071D02E02469002C0FD02368002BB0
:10515000F9D03368002B01D0A342F4D120003900EC
:105160002A68FFF79DFF2469002CEFD100232B60F4
:10517000F8BDC04654240220102902200B6870B5E7
:1051800005000C00802B04D05A1C2260E418257105
:1051900070BD0800FFF7CEFF2368F5E7F0B5454680
:1051A000DE464E465746E0B585B091461C00804627
:1051B0000D00FDF7D1F80023264A12184B4180213B
:1051C00009068B4202D30122234B52422349080095
:1051D0008A4604F03DFA01906B1C03D1404604F06E
:1051E00041F80500002C2ED01D4F1E4B1C68002CD2
:1051F0001FD00A231C4E9B4602E02469002C18D0C5
:105200002368002BF9D03368002B01D09C42F4D1E5
:105210002A0041462000B8474B46002BEDD05A46A5
:1052200002AB2000DA71D91D0122B8472469002C95
:10523000E6D1019B002B08D105B0F0BCBB46B246BD
:10524000A946A046F0BD094FCFE7504604F0E0F96B
:10525000F2E7C04640420F00FFFFFF7FC416002068
:10526000915000105424022010290220A150001057
:1052700010B582B06B4604000022D81D0121002326
:105280000470FFF78BFF200002B010BD70B5040062
:1052900003F0E8FF00230100050001222000FFF7D2
:1052A0007DFF064B1C68002C06D06368002B00D0E5
:1052B00098472469002CF8D1280070BD542402209E
:1052C0000A4A1368002B05D10CE01A001B69103242
:1052D000002B07D09842F8D1002902D1036913604E
:1052E000016170470029FCD01060FAE754240220C5
:1052F000F0B5A3B004000D00FDF72EF80023194A05
:1053000012184B41802109068B4202D30122164B11
:105310005242164E300004F09BF90023070001931F
:1053200022002B00124801A9FEF700FF019B050097
:10533000002B02D001A8FFF7FDFE0E4B1C68002CCD
:1053400006D06368002B00D098472469002CF8D160
:10535000002F02D1280023B0F0BD300004F058F92E
:10536000F8E7C04640420F00FFFFFF7FC416002051
:105370007D510010542402200FB400B583B004A95D
:1053800001C90191FFF7B4FF03B008BC04B018478E
:10539000F0B5002915DD0E4B0D271A680D4B0E4C8C
:1053A000D3185D426B41451820215B001E5F0478D5
:1053B000A64207D093691942FCD101301460A8427B
:1053C000F5D1F0BD93691942FCD11760F2E7C046F0
:1053D000A05A03200080FCBF985A0320214B70B5CF
:1053E00004000D1E1E682CDD002010211E4B013C08
:1053F0001A689369194215D1013093691942FCD199
:10540000136823548542F4D1002E09D0502338214B
:105410009363536B3432194080235B01134319604B
:1054200028000DE0002E09D0502338219363536BE0
:105430003432194080235B011A43116000280ED0DA
:1054400070BD002E0BD050223821074B1B689A6389
:105450005A6B3433114080225201134319600320E8
:105460004042EDE7D8190220A05A0320064B10B5A0
:105470001B68002B06D00021044A12689163044A7D
:105480001068984710BDC046D8190220A05A0320C2
:10549000DC1902201D4BF0B51A68C64698461C4B15
:1054A0000E00D31859424B411A4F14331C0005000B
:1054B00000B53B68002807D0002B11D0164B3D608B
:1054C0001E6080BCB846F0BD002BF7D09063002171
:1054D0002000FCF783F820001049FCF7C9F9EDE73C
:1054E00020000E49FCF7A0F801212000FCF776F817
:1054F0004346502238211B689A635A6B343311405B
:105500008022520113431960D8E7C046A05A0320F5
:105510000080FCBFD8190220DC1902206D54001055
:1055200070B50C4E0D001C003060002A03DB022118
:105530001000FBF717FF002C03DB02212000FBF714
:1055400011FF29003068FDF79FF901210248FFF79C
:10555000B7FE70BDA05A03204011002003BDC04615
:1055600010B50400FCF7B8FAA04710BDF0B5040070
:1055700087B00F200E001700FCF742F8002105004D
:105580000F20FCF72BF80023002200920193012347
:105590000293D023049605940026002401210220C2
:1055A00003971B06002C14D01A6D1042FCD05C65CA
:1055B00040BF1A6D114203D120BF1A6D1142FBD0BA
:1055C0009A6DA2420AD000266C46B200A458E9E7C0
:1055D0009A6D1A6D1142FBD140BFE5E70136062EE8
:1055E000F2D129000F20FBF7F9FF07B0F0BDC0464C
:1055F0000D4B0E4A10B5934210D30D4A99181A005C
:105600000B4C1051FF20C00013500A4B0A48135096
:105610000A4B0B489A68FFF7A9FF10BD01235B42B4
:105620001A000849ECE7C046000804206401042081
:10563000F407000061550010FC07000000ED00E0D9
:105640005D550010F30700003423F0B5DE465746E1
:105650004E4645469A46E0B505008244504683B022
:105660008946904600F076FA28002E003C302F1D27
:1056700000F07AF93C004036012000F0D7FB2060B2
:10568000012000F0D3FB606004CEE86B131D9B008B
:10569000C318A360524BC318591E8B41DB009B18E3
:1056A000E3601034A245E7D19C2200239D209200A4
:1056B000AB50083AAB5080000432AB5004214B464B
:1056C00008222818FDF762F8A1239B00EC18082295
:1056D0004B4604212000FDF759F8A52080004346E1
:1056E000082204212818FDF751F8A920800043461C
:1056F000082204212818FDF749F82B00012239005F
:105700002868683300F02AFA2B0000223900286844
:10571000E83300F023FA2B0080226933390028682F
:10572000FF33920500F0A8FA2B00E933FF33002283
:105730003900286800F0A0FA03239846A1239B00B3
:105740009B46002619E04F4660689A0017503200C9
:1057500001339BB299427241524213402381BFF3FD
:105760005F8F019B1E608CF3108840BF01235B425A
:105770009C46E0444346002B28D02B681B69580008
:10578000C01840088000FFF731FC8146002824D073
:105790005B46EA58EFF3108C72B61368002BFCD00E
:1057A000BFF35F8F23896289E1899A1A01D5481C6A
:1057B00012185846285801908A42C4D1BFF35F8F0F
:1057C000019B1E608CF3108820BFE1E703B0F0BCA2
:1057D000BB46B246A946A046F0BD0248FDF7C2FA54
:1057E0000000E0AFEC970010F0B50E0001218368D7
:1057F00034229940C646944688460024012500B5C7
:10580000031D84442F001A68290097403A005F68FE
:105810001033B9400A4314436345F3D1A0224146F3
:10582000124BD205D1500B2E12D0114B1B68594090
:10583000104B0C401C60104B104958600C20FBF7BB
:10584000F3FE30000121FBF7C9FE80BCB846F0BD75
:105850000B4B0C4A1B684B4023401360064B0A4914
:1058600018600B20FBF7E0FEEBE7C0460C040000DD
:1058700014040050141400504C2402200509002088
:10588000040400500414005029090020F8B5344BDA
:10589000DE469B46E823454657464E469846E43B3F
:1058A000E0B59C4600252F4F041D8044A026594694
:1058B000F605B1462368DA023A400A436168890175
:1058C0004944C146002D3CD0012D36D0A024E4052A
:1058D000A44604009B0149346344FF341C605960B2
:1058E000042199601A610122110043681400994053
:1058F0000B00416906008C40416A23438A401343F0
:105900008622614604000125D2008B50C16B4034D1
:105910004C362A00236810339A404B681A42FCD058
:105920000434A642F5D101213C3000F0E3F8F0BC8C
:10593000BB46B246A946A046F8BD94267600B146BD
:105940008144A026F605B2464E469B0153441E6094
:10595000596061460135996010341A61A6E7C04666
:1059600039851F00FDFF1FFFF0B5DE46454657464F
:105970004E46E0B5040087B05749006800F018FBB8
:1059800003000133C2011B031343544A82461340F0
:10599000019310239B46A0466062251DA344434605
:1059A0002968186800F0ECFA434603241F68EE6883
:1059B0002B68B440994602222300B2403800494681
:1059C00000F014FB0122230052423800494600F047
:1059D00061FB434B3000FC18631E9C4106342100E0
:1059E000FBF7C0FC2100701CFBF7BCFC80235B02B2
:1059F0000293019BB60203938023DB053343059397
:105A0000384B380052464946049302AB00F096FBEF
:105A1000494601228A403B6880269343324A3B60D4
:105A20002027434694467124E868D95D8300634487
:105A30001A687601224033431A60FBF7ABFC2A4A0E
:105A400043469446E868D95D0130830063441A6890
:105A5000334314401C600435FBF79CFC5D459ED12C
:105A60004446E5692A07520F93009B181F4A9B0082
:105A70009446002263441A609A60DA6009321A611F
:105A800007325A600C3A1A60194ADA606B1C1CD053
:105A9000154BAF009C4620239946513398466744E6
:105AA00028000421FBF75EFC4B464246E15C3B6864
:105AB0002800134032003A431360FBF76BFCE369A4
:105AC000013501330437AB42EAD207B0F0BCBB4624
:105AD000B246A946A046F0BD70CC0010FFFFFF9F64
