:020000041000EA
:1000000000B5324B212058609868022188439860DF
:10001000D860186158612E4B002199600221596106
:100020000121F02299502B49196001219960352056
:1000300000F044F80222904214D00621196600F024
:1000400034F8196E01211966002018661A6600F04E
:100050002CF8196E196E196E052000F02FF8012189
:100060000842F9D1002199601B49196000215960AB
:100070001A491B48016001219960EB211966A021F2
:10008000196600F012F800219960164914480160C1
:100090000121996001BC002800D000471248134993
:1000A000086003C880F30888084703B5996A0420EC
:1000B0000142FBD001200142F8D103BD02B5186610
:1000C0001866FFF7F2FF186E186E02BD00000240BE
:1000D000000000180000070000035F00212200005C
:1000E000F4000018222000A00001001008ED00E03C
:1000F00000000000000000000000000074B24E7A12
:1001000000200420F7010010C3010010C5010010F9
:10011000C1010010C1010010C1010010C101001097
:10012000C1010010C1010010C1010010C701001081
:10013000C1010010C1010010C9010010CB01001065
:10014000CD010010CD010010CD010010CD01001037
:10015000CD010010CD010010CD010010CD01001027
:10016000CD010010CD010010CD010010CD01001017
:10017000CD010010CD010010CD010010CD01001007
:10018000CD010010CD010010CD010010CD010010F7
:10019000CD010010CD010010CD010010CD010010E7
:1001A000CD010010CD010010CD010010CD010010D7
:1001B000CD010010CD010010CD010010CD010010C7
:1001C00000BE00BE00BE00BE00BE00BEEFF3058054
:1001D000103800BEF2EB8871807E0010A47E001003
:1001E0003402001090A31AE700201F49086006C8D7
:1001F00081F3088810471D48006800282FD10DA4FE
:100200000ECC002902D000F012F8F9E71849194A7B
:10021000002000E001C19142FCD1174988471749ED
:1002200088471749884700BEFDE701C901C29A42C5
:10023000FBD37047A47E0010C0000020E41600200D
:10024000C894001000000420640104202C960010C3
:10025000001004200010042000000000704709482E
:1002600002F03AFC0047000008ED00E0000000D07A
:1002700000000120B85A032015290010DD020010EB
:10028000392A00105756000006005250ABB3605395
:10029000C477001006005250861C0302D477001069
:1002A000060052505422A29DE077001005005250E3
:1002B000DE65F4682C960010F8B5C046044B10B506
:1002C000002B03D00349044800E000BF10BDC04626
:1002D0000000000000560320D076001010B500F09A
:1002E000D1FD00F0DFFAFCE730B5FC25ED00C908D0
:1002F000D2002A40C902034C1143DB0840005B18BE
:10030000035330BD18560320F0B5CE46474680B59E
:100310000D2085B002F0D4FA0A2001F0D5FD5B4D26
:1003200003ABAC6A02AA200001A900F027FE002856
:1003300003D12100564802F083FB039A02990198E9
:1003400000F0E0FD534C00212000242240302560C5
:1003500002F040FF0E22504B0226E3630123E264C9
:1003600004322265023A6265043AA2655032A3540F
:1003700063644A4BA664636600F080FF050000F0EA
:100380007DFF29000200200003F088F9444B454F0F
:100390001E80A7239B009846434BA5269C4600231E
:1003A0009946B600A259EFF3108072B61368002B7D
:1003B000FCD0BFF35F8F43466246E35AA25AE15B2B
:1003C0009A1A01D54D1C5219A55991424ED0A62218
:1003D0009200A258354F9E00B750002216000133FC
:1003E0009BB2994256417142A7260B40B600A353D7
:1003F000BFF35F8F2A6080F3108840BF0023A520E1
:100400009846294F80002258EFF3108C72B613687B
:10041000002BFCD0BFF35F8F2249A35BE25B615AE4
:100420009A1A01D54D1C521925588A4226D0A62267
:100430009200A2581E4E98008650002210000133F0
:100440009BB29942504141420B40A721890063521F
:10045000BFF35F8F2A608CF3108840BF154803F00C
:10046000F1F805B0C0BCB946B046F0BDBFF35F8F30
:100470004B462B6080F3108820BF93E7BFF35F8F5C
:1004800043462B608CF3108820BFBCE7080C00208B
:10049000D07600105824022000002050E1000020F7
:1004A000A45A0320A20200009E020000D4140220DD
:1004B00054170220C100002010B5064B064C1960ED
:1004C0002378002B02D00123237010BDFFF71CFFFF
:1004D000F9E7C0466C580320B25A032070B50400F7
:1004E0000D0005F05DFD0138C0B2012803D82900D8
:1004F000200005F065FD70BD7047C046F8B5574651
:100500004E464546DE46E0B588460700914605F072
:1005100047FD01280FD0022807D14146380005F0D9
:100520004FFD4146380005F04BFDF0BCBB46B246DE
:10053000A946A046F8BD4146380005F041FD264BCE
:1005400019009A461C00A6311A8852421A800233BA
:100550008B42F9D14B469D1C08234B449B460DE032
:100560003B39C9B20E00534676009B5F002B2CD05E
:100570005346012201359A535D450DD029780B0071
:10058000593B092BECD9642918D04B1E0E00512B76
:10059000E9D901355D45F1D1002503E0013502348B
:1005A000532DBED00022A35E002BF7DA00220020DC
:1005B000E9B200F075FB00232380EFE731265346B4
:1005C00076009B5F3121002BD2D14B4601201A7857
:1005D00000F066FBCCE7C0465055032010B506F08E
:1005E0004FFA06F0C1F8A6220021024802F0F2FDFF
:1005F00010BDC04650550320012010B500214042D7
:1006000004F058FF00F0FAFB10BDC04610B501F031
:1006100011FD830AD2205843C00A10BDF0B5D6465A
:100620004F464646C0B51E00234B80469B6A0D00D0
:1006300099469B02180011039A46170002F0A6FA89
:100640004B1E994150460C00390002F09FFA000BF6
:100650002418102C00D210244B462100980302F0DD
:1006600095FA390002F092FA4246144B01382340C1
:1006700094004444124AA400A218536003041B0CC3
:100680001361104B64219C467043644402F07EFA6F
:100690000004000C002D0DD00B4A000423684340D9
:1006A0001A4080235B0123431A60E0BCBA46B1467E
:1006B000A846F0BD054AF1E7080C0020FF0F000036
:1006C000000005400C0005400000FFFFFFFF000098
:1006D000F0B5C646124B00B51B78002B03D10120A4
:1006E00080BCB846F0BD0F4B1F680F4B1B68984687
:1006F0000E4B1D8806F030FD060006F02DFD502142
:1007000002F01CFA0A310C003000642102F016FAE3
:10071000323D4A19230041463800FFF77FFFDEE7EC
:10072000B15A0320785A0320D41902209E5A03207C
:1007300010B5042184B0142000F082FC02220024B1
:100740000C4B1A600C4B1C600C4B1A6801231340B5
:100750000B4A13600B4B1C7001F082FA0A4B0B4AD8
:1007600002930B4B01940093002301F0F7FA012050
:1007700004B010BD785A0320D41902202800054087
:1007800028100540B15A0320000102201027000064
:10079000D106001070B5FF2000F09AFC082000F090
:1007A00079FCD024802324065B0063620920636106
:1007B00000F070FC80239B0063620A20636100F0FC
:1007C00069FC8023DB0063620B20636100F062FC44
:1007D00080231B01A362152000F05CFC8023802590
:1007E0009B03ED0463621A2000F054FC656219203B
:1007F00000F050FC80239B0463621B20636100F0C7
:1008000049FC8023FA201B0563620021636180009C
:10081000A56101F045FB656170BDC04670B5D0248F
:100820008025FA20ED042406A5610021800001F056
:1008300037FB656170BDC046D023FF201B061A6AD6
:100840000240DA62802252009A61C046C046C04629
:10085000C046C046C04659685A6108408021890098
:100860009961C046C046C046C046C046C0465A68A8
:1008700059611202104380B27047C046D023FF2254
:100880001B06196A0A40DA628022D2009A61C046C9
:10089000C046C046C046C046C04658685A61C0B24D
:1008A0007047C046F0B5DE4657464E464546E0B571
:1008B00083B0FFF76FFFFFF7B1FF274BD0249846B7
:1008C000264B80269B46264B264F9946264B2406D0
:1008D0000093264BB603019301239A463B885A1C8A
:1008E0003A80002B21D0A661FFF7A6FF434652466F
:1008F000188063680500DB0A13405A46137066616E
:1009000016D04B461A5CFF231800216A8843E06228
:1009100021694A401340E3618023DB00A3616361E6
:100920003B885A1C3A80002BDDD100F0A7FADAE7A9
:10093000FFF7A4FF4B465855009B1870019B1A887F
:1009400043461B889342C9D10028C7D04B441800A6
:10095000494600F0B9FAC1E79A5A0320B45A032075
:1009600000000120A25A0320AE5A0320AC10002040
:10097000F8B5CE4647461C4E1C4B80B533601C4B29
:100980001C4973601C4B1D4833811D4BF160B361E2
:100990001C4B30617361FFF78FFD80235B000024E7
:1009A0009946194D0BE023115900C9186A1893781C
:1009B000695C527877690134B8474C450CD0E0B295
:1009C0000F2CF0DC610009196A189378695C527881
:1009D0007769B8470134F2E7300000F039F9C0BC5C
:1009E000B946B046F8BDC0461429022035001E00A5
:1009F0004001F00034290220060800000C1A0220F1
:100A0000B9040010E90200104879001070B51D4CBF
:100A100096222368120118690100503106F0B6FBD6
:100A200021684A880869013A93009B181B015022EB
:100A3000C018202102F0CEFB23689A88002A00D13A
:100A400070BD5D7AD8685B88A900013B6B4349198A
:100A50009A00D21889019201411806F097FB246888
:100A60000949637A60889A000138D2184343980094
:100A7000C318E0689B0109889201C01802F0AAFB24
:100A8000DEE7C046302902209C5A0320F0B5DE463E
:100A900057464E464546E0B585B00D2832D007DDB5
:100AA000142834D10022644B1A80644B1A8014E05D
:100AB0000A2819D00C2810D100225F4B604C1A80F4
:100AC0005E4B1A8023689A88002A00D0A7E0A022F3
:100AD00020211869120102F07DFB05B0F0BCBB4675
:100AE000B246A946A046F0BD554D534A2868118824
:100AF0004B1C9BB2138040889842EED11180FFF7C7
:100B000085FFEAE74E4D4D4F00233B80EDE7202364
:100B10005B429846804443465E2BDED8484D474FA3
:100B200029683C880E88B44272D2434B1B889C468D
:100B30004B8863456CD90E69614689006144414B1D
:100B4000414A090171181B8812880855296889468D
:100B5000898800296CD04946497A8B4649460E88D7
:100B60005946002953D04946097A404600915946D2
:100B700048430099DBB24C435946019464464C43C8
:100B8000A1008A465444A1018A4600219C46884619
:100B90002B002E4C45462118039780246746984623
:100BA0000291D0B200990096A022009E52004E43BE
:100BB000961BF20F92195610019A029B5244B218DA
:100BC0004E46F6685B5DB218002915D0AC4600268B
:100BD000050010002A001C4200D03A008255013660
:100BE0005B00B2B29BB29142F4D8434628006546FE
:100BF0001B6899461B880093A0235B009C46013527
:100C0000ABB2E2449B45CFD84546009E039F3C884B
:100C10000134A3B23B80B34200D175E75DE70A4AD5
:100C2000D86811889622520202F0D4FA23684EE75F
:100C30004B463C881E88EBE7A85A0320A65A03209F
:100C400030290220A80D00209C5A0320AC0D002062
:100C50000722064B10B51860054B0C201A800022A5
:100C6000044B1A80FFF712FF10BDC0463029022046
:100C7000A80D00209C5A032070B5042504002020F4
:100C8000FFF704FF054E230B013DF05C2401ADB2DC
:100C9000FFF7FCFEA4B2002DF5D170BD0477001063
:100CA00070B50C001600FF2913D04B1E512B0FD826
:100CB000072201230A409340474DC9086A5CDBB212
:100CC00000280FD19A43454B6A541B78A34233D076
:100CD00070BD0022424B00211A703F480B3202F0D7
:100CE00079FAF5E713436B5423003A3B092B26D9D5
:100CF0002223221F3340192A52D82500002B3BD033
:100D00003D35EDB21123334234D01F231D4028005E
:100D1000FFF7B2FF324A13783F2B03D83149CD5445
:100D200001331370304B1D702C4B1C70FFF76EFCA1
:100D30002E4B5A301860CBE72B4B1870C8E7462073
:100D4000FFF7A4FE20000938C0B2FFF79FFE2D2553
:100D500000210023264A05E00333DBB2D55C1900ED
:100D6000002D0CD0AC42F7D1002E2FD05218957820
:100D7000002D04D02800CBE75D35EDB2C2E700219D
:100D800050231C4A05E00235EDB2535D2900002BCB
:100D90009ED09C42F7D152185578002D98D0E9E7A3
:100DA00022001E3A0A2AD2D8272C0AD02500133551
:100DB000EDB2002BDED0104BED5C002DC7D028002B
:100DC000A6E7002B05D130203025A1E75218557831
:100DD000CEE7292029259BE744550320AD5A03205F
:100DE000B35A032028580320AC5A0320FC55032093
:100DF0009879001078790010E876001070B50E4CE4
:100E00002378002B00D170BDFFF700FC0B4D2B6841
:100E10009842F8D324782000FFF72EFF084A137871
:100E20003F2B03D80749CC5401331370FFF7EEFB77
:100E30000C302860E7E7C046AC5A0320FC5503207D
:100E4000B35A0320285803208022094B094830B5A3
:100E5000D200094C9D18C01A1978C21892B20133F9
:100E6000A154AB42F8D1FF2300221B02E25430BD53
:100E7000C079001000FCFFFF0000012010B5FFF753
:100E8000BBFB10BD30B587B06C4622000D4B23CBA9
:100E900023C223CB23C2FFF7D7FF0020FFF768FD53
:100EA000FFF79CFB0022FF210020FFF7F9FEFFF770
:100EB0003FFC4E200134FFF7E9FD20780028F9D1EE
:100EC00007B030BD2477001010B503780400002B64
:100ED0000BD0012B02D00023237010BD4378002BD0
:100EE000F9D10079FFF7D2FDF5E74378002B05D063
:100EF000012BF0D1FFF78AFB6060ECE7FFF7C2FF40
:100F0000E9E7C046F0B583B005000E00140000F01C
:100F100019F9002801D003B0F0BD154F01223B00A4
:100F200001210097053001F0EBFB33002A0000940B
:100F30000121104801F072FC21002800714301F0EA
:100F400025FE04000C4B002200930221042001F036
:100F5000D7FB2300002201210094052001F0D0FBE3
:100F60003B00022200210097062001F0C9FBD2E7D6
:100F7000006CDC0200800240001BB700F0B54E465A
:100F8000574645469146DE46284A8A462849E0B5F6
:100F90001C000600A02310004A46884685B05B006E
:100FA00001920294404507D9224A013B944660448D
:100FB0000F2BF7D1002027E01F4A072493468344D4
:100FC000A14634005E469B4603904F464D467F4304
:100FD00004E04B46013DFF1A002D1CD039003000C3
:100FE00001F0D4FDA042F4D10029F2D15B46019A70
:100FF000CB469146114A01205343524613604B465B
:101000005A46029C1A60256005B0F0BCBB46B24649
:10101000A946A046F0BD01235B429C46E1444B46F5
:10102000002BD2D15B4626000398BDE750262F0047
:1010300050F80C0020D1FFFFB0710B00001BB7006F
:10104000094A10B594464024830063441A68C000DE
:101050006240803414408022520113431C60034BD1
:101060009C466044416010BD04C001400040014006
:10107000074BC0009C466044036809025940C023E6
:101080009B00194080235B01034319607047C046F1
:10109000044001400123D0228340120693629361F1
:1010A000094A40219446830063441A68C0004A40BC
:1010B000803111408022520113431960034B9C463A
:1010C000052360444360704704C001400040014074
:1010D000F0B5D6464F4646464021D025C0B58027BC
:1010E000884680318C46BB39002301248A46134A46
:1010F0002D067F0104E00133400804321E2B18D076
:101100000442F8D0210099404646A962A9611168BD
:1011100040087140664631403E0016433160084E3B
:10112000D900B1465646494401330E6004321E2BA5
:10113000E6D1E0BCBA46B146A846F0BD04C00140C5
:1011400004400140024B18688007C00F7047C0463A
:1011500000C00640EFF3108072B6034A1368002BFC
:10116000FCD0BFF35F8F70472C0100D0BFF35F8FBF
:101170000022024B1A6080F3108870472C0100D0C7
:1011800070B5EFF3108C72B60D4D2B68002BFCD0B0
:10119000BFF35F8F0724CB08C618C05C01230C4047
:1011A000A3401C000440034207D118433070BFF332
:1011B0005F8F2C608CF3108870BD100001F040FC34
:1011C0002C0100D0F8B54746CE46884680B5EFF3EF
:1011D000108C72B6214D2C68002CFCD0BFF35F8FB1
:1011E0009A422CD8D4080727055D06190124174018
:1011F000BC402C421FD007210127894609E0D408B2
:10120000055D06194C4639001440A1400C002942E6
:1012100011D001329342F2D201204042BFF35F8FDE
:1012200000220E4B1A608CF3108800280FDBC0BC24
:10123000B946B046F8BD254310003570EEE7BFF360
:101240005F8F00232B608CF31088012040424346BF
:10125000002BECD0089801F0F3FBC0462C0100D025
:101260000021044B044ABFF35F8F02C39342FAD1BB
:101270007047C046000100D0800100D0044A1078B9
:10128000431CDBB2172B00D9102313707047C046E4
:10129000AE10002010B5064B064C82B00100009342
:1012A00018221F232000FFF78DFF02B010BDC0469B
:1012B0003C770010E019022001238340002904D06C
:1012C000034A1360034A13607047034A1360FBE745
:1012D00080E200E000E100E080E100E001228240E5
:1012E000034B1B6813405A1E9341D8B27047C04647
:1012F00000E100E0024B10309B688000C05870474E
:1013000000ED00E070B50D00EFF3108672B60F4AE5
:101310001368002BFCD0BFF35F8F0D4B10309B6820
:1013200084001B590B4A934203D09D4201D001F027
:101330009FFB074B9B681D51BFF35F8FBFF35F8F10
:101340000022024B1A6086F3108870BD240100D081
:1013500000ED00E0CD010010F0B557464E46DE46E8
:101360004546E0B585B0060000911700EFF3108BFD
:1013700072B66A4A1368002BFCD0BFF35F8F00255A
:10138000674B5D579A46002D00DAA9E06B00654C6B
:1013900001935B199B009846A146C1444B465246B7
:1013A0009B7910361370604BB6009B6899590B1BE4
:1013B0002F2B33D95D4B994200D0ACE0019B4246C4
:1013C0009C465B4B6544AD0063535A4B0232A218F6
:1013D000043B9B1A1B05584A5B0D651913436B8030
:1013E000564B0121AB80FF23AB71009BEF71AB60CB
:1013F0004B460B4319004C4B9B689951BFF35F8FD1
:10140000BFF35F8F0022454B1A608BF3108805B045
:10141000F0BCBB46B246A946A046F0BD01200A007A
:101420008243D3798C46BB4231D8454613004449A8
:101430001B1B5B415943090D3D4B63533D4B02352B
:101440006519043B5B1B1B053B4D5B0D2B43AA46FB
:101450004D466B800425AC465546E044131F44447A
:101460001B1B1B055B0D1D434B46997100999D800D
:1014700099604946DF71334B01431360BBE7580065
:10148000C01880002018C179B9422FD90200062364
:10149000D356002BF3DA02932B4B61460393131DB3
:1014A0009A4604235B429C46E14450464B461B1A35
:1014B0001B055B0D9C46204B957198466346404644
:1014C00003439380019B5A199200039BA418A380A5
:1014D000029B1C4AA371009B2260E771A3608AE70C
:1014E00001F0C6FA002553465D574FE790880293F6
:1014F0004005131D9A46031561469C464046D44458
:10150000634604302018181AE0230005400D1B0222
:1015100018430390C5E701F0ABFA4FE7240100D070
:10152000B05A0320B010002000ED00E0CD01001003
:1015300000A1FFFFE010002000E0FFFF01BDFFFF62
:10154000AAAA00000148804701BD0000F0B5DE46B0
:1015500057464E464546E0B50C0083B0EFF3108881
:1015600072B65D4A1368002BFCD0BFF35F8F5B4BF4
:101570005B499A68030010339F00D5598D4239D0DA
:10158000A5424AD0574EAA1B2F2A33D80122924691
:10159000824091464846544A12681040019048469D
:1015A000524A1060BFF35F8FEFF305829346002A23
:1015B00035D0934201D001F05BFA2A0053469A439A
:1015C0009068844208D175E04B005B189B00F318CB
:1015D0009868A04234D01A00062151560029F3DA47
:1015E000844253D0019B002B26D04A46404B1A60C0
:1015F0003D4B1A60394B9B68DD51BFF35F8FBFF3E2
:101600005F8F0022344B1A6088F3108803B0F0BC5F
:10161000BB46B246A946A046F0BD0D00EAE72A0047
:1016200053469A4390688442D6D106201056130040
:10163000002809DA0D0031E04A462C4B1A60D9E740
:1016400006201856002822DB420011188900741861
:101650008A46A1689960E179D9710621615699712C
:10166000002925DBA488F11A6405241554440919BE
:10167000E0240905490D24022143998013181D4ACD
:101680009B001178F31899711070ABE7130059465D
:10169000002914D1FF3191711749918015490A78B9
:1016A0009A71164A9B1B5B415A43120D0A7099E7C7
:1016B0001349E2E70620105613000028C4DA114A45
:1016C0001149D21A083A5002400D014399800F493E
:1016D00052080A43DA8085E7240100D000ED00E0DB
:1016E000CD010010B010002000E100E080E100E03A
:1016F00080E200E0B05A032001BDFFFFAAAA00006B
:1017000001BD0000EA10002000F0FFFF00F8FFFF1D
:10171000F0B5EFF30584C646012600B50643EFF3A6
:10172000108C72B61C4A1368002BFCD0BFF35F8F7D
:101730001A4FA400BB681A4D1B590200984619495C
:101740000023521B52415143090D2A0049B2B045B2
:1017500015D0062414578C4215D001330C32042BBB
:10176000F7D1114B1A7819708271BFF35F8F002285
:10177000094B1A608CF3108880BCB846F0BDBB687A
:101780000A4A1A51EDE75A00D3189B00ED18FF23BF
:10179000AB71074BAB80E4E7240100D000ED00E023
:1017A000B0100020AAAA0000B05A0320CD010010FA
:1017B00001BDFFFF054B064A1360064A13605360E4
:1017C0009360D36013615361936170478080808020
:1017D00000E400E004E400E0024B9C466144890020
:1017E000016070474000003410B50400FFF746FD6B
:1017F00001002000FFF7F0FFFF232371BFF35F8F8D
:1018000010BDC04610B50400FFF738FD01002000F0
:10181000FFF7E2FFFF23A380BFF35F8F10BDC04639
:1018200010B504000120FFF735FD034BC3189B00E2
:101830002360BFF35F8F10BD4000003483680B4806
:1018400010B58446614462441201090159189B187D
:101850005C684A680120944201D802D00020C0B2DE
:1018600010BD1A680B689A42F9D8F7E7FFFFFF0F1F
:1018700010B508000B690C009847002802D02068BA
:10188000616810BDE06000210020FAE70A4B19688A
:10189000EFF3108072B60A68002AFCD0BFF35F8FA6
:1018A0001B68BFF35F8F00221A6080F3108840BF6F
:1018B000002000217047C046745A0320F8B50B0081
:1018C00004004168EFF3108572B60A68002AFCD064
:1018D000BFF35F8FFF222068D9B2467B1A408E4249
:1018E00007D006685700BF18F619033EB678002ED9
:1018F00010D0E6681B0AB218013A1278DBB29A429D
:101900000DD000206368BFF35F8F00221A6085F35B
:101910001088F8BD22699342F3D12661F1E700F007
:1019200067FDEFE7F8B557464E464546DE46E0B55B
:1019300098460CAB1C780DAB1B78070091469A4675
:101940000668002C3BD02300650031682D19033D4B
:101950004919374A944663441A01BB689B184A46A2
:101960001A6042465A600A9A9A600B9ADA6000231B
:101970008B704B700B70737B9B46002B3BD022000F
:1019800073685946B06898475B465B005B443268B1
:10199000033B002827D058465519A870D118D35CAE
:1019A000002B00D06B705B460C7073735C4523D0CA
:1019B0002000F0BCBB46B246A946A046F8BDB07BAD
:1019C0000028F6D0450031682D18033D49194A78A2
:1019D0000300B273002A00D1F273002204008A705F
:1019E0004A700A70B5E7D3189C705119525D002AED
:1019F00018D15B460B7074734A464346387D00F03D
:101A0000ADFB051E06D10E9B002BD1D00E9B2000F6
:101A10001D70CEE75346002BF5D12100386800F049
:101A2000E7FCF0E75A705B460B707473E4E7C0465E
:101A3000FFFFFF0FF0B5DE4657464E4645460023F2
:101A4000E0B58BB00893684B8200D45800239B46C6
:101A5000099000F0EFFA02000B006068EFF3108AC3
:101A600072B6564601680029FCD0B246BFF35F8FBC
:101A700021684F7B8C46002F2ED0A5685B49A94674
:101A800079180901894449460868496805000E002B
:101A9000AD1A9E41002E5FDD02000B00099800F098
:101AA0005DFB002300229946002306920793002342
:101AB00098466368BFF35F8F5A461A608AF31088AE
:101AC0004346002B12D10028C3D10BB0F0BCBB465B
:101AD000B246A946A046F0BD002300229946002345
:101AE00006920793002300209846E2E7089B4946A8
:101AF00018023843C047626805000E00EFF3108AF1
:101B000072B61368002BFCD0BFF35F8F002E41DB51
:101B10002B00334302D02369002B56D12368DA7B94
:101B2000002A05D01968500082188A18033A5770A5
:101B30009A7B002A00D19F73DF73E268013FD35D77
:101B40000133D3555B4623616368BFF35F8F5A4609
:101B50001A608AF310887CE7002E02D1002D00D095
:101B60009AE70021604600F017FC4B461A685B6854
:101B7000069207934B469B6898464B46DB6899460E
:101B8000E368DB19013B1B7808931B0203432361C5
:101B900000208EE72369002BC0D0069A079B802186
:101BA000521BB34109068B4202D30122104B524211
:101BB00000210491013103914946019141462000E1
:101BC00002970091FFF7AEFEBCE700F033FA2A005F
:101BD000330012184B41802109068B42E8D30122C1
:101BE000034B5242E4E7C04618580320FFFFFF0FA3
:101BF000FFFFFF7F10B5144C6368002B04D00A214F
:101C00001248FFF7E9FD10BD2300114A102120689A
:101C100000F056FB032000F001FA032000F006FB61
:101C200003200C4900F054FAFFF728FB0A4B9C46AE
:101C300003232375D0231B061B6860446375074B81
:101C400080006060DC60DAE7F8100020745A03203E
:101C50003D180010351A00104000003418580320B9
:101C600000487047F8100020F0B557464E46DE4653
:101C70004546E0B58BB01F00149B80469B46159BE4
:101C800016009A4616AB1B7802AA079300239946C2
:101C9000D37743465A68EFF3108472B61368002B6B
:101CA000FCD0BFF35F8F02AA94461F2363440493C2
:101CB0004B4603930293534601935B4632000093D5
:101CC00040463B00FFF72EFE434600280DD15B68DF
:101CD000BFF35F8F186084F3108801380BB0F0BC3D
:101CE000BB46B246A946A046F0BD4246DB685268F4
:101CF0001B18013B1B78BFF35F8F4946116084F3CB
:101D0000108802AAD27F002A02D11B021843E5E7FD
:101D1000079B002B1DD051460020D84703000B43E2
:101D200017D004000D1E09DA8023361BAF411B06B5
:101D30009F42AED30126084F7642AAE700F07AF917
:101D40008023001969411B0606000F009942A0D3A9
:101D5000F0E70020C2E7C046FFFFFF7FF0B5C646B0
:101D6000110000B584B080460C9C19432DD0D817C3
:101D7000050055402E0005005D4001002F00361A79
:101D80008F4141466360A1600B9B0A9922606361A9
:101D9000216100F04FF90B000200802192197B4174
:101DA00009068B4202D301220A4B524201210291C1
:101DB0000949404601940091FFF756FFE060C04397
:101DC000C00F04B080BCB846F0BD01260027012238
:101DD0000023D6E7FFFFFF7F71180010F0B5040065
:101DE0000D0006267642F717C64636196F4100B534
:101DF00084B08F4214D811D000F01CF932003B009F
:101E0000121A8B41002B15DC002B3ED0200029003C
:101E100000F04EF904B080BCB846F0BD8642EBD964
:101E20000026002700F006F932003B00121A8B4111
:101E3000002BE9DD002302930193154B3200009340
:101E400014483B00FFF710FF0028DFDB0023984613
:101E5000BC46114A114F7B6A9C4504D8B96A8E4230
:101E6000D4D99C45D2D11168EFF3108072B60B68BB
:101E7000002BFCD0BFF35F8F1368BFF35F8F414629
:101E8000196080F3108820BFE5E7002ABED0D1E7B3
:101E90008D180010F8100020745A032000400540EF
:101EA00070B504000D0000F0C5F8802300196941E9
:101EB0001B06994202D3012002494042FFF78EFFE0
:101EC00070BDC046FFFFFF7F70B5060000F0B2F89E
:101ED000FA2204000D00002330000021920001F0DE
:101EE000D5F88023001969411B06994202D30120CD
:101EF00002494042FFF772FF70BDC046FFFFFF7FFF
:101F000070B5EFF3058305000C0084B0002B0FD0F3
:101F1000104A0020536AA34203D3926A0130AA42B6
:101F200001D304B070BD1B1B5A1E9341D8B2F8E711
:101F3000094E02930193094B0200009330000B00FD
:101F4000FFF792FE011EE3DD20BF3000FFF7B6FC75
:101F5000DEE7C04600400540F81000208D18001054
:101F6000F0B5EFF30582D6464F4646461000C0B5A1
:101F70001038EFF3108872B6214C2368002BFCD088
:101F8000BFF35F8F0123190081401E4D1F0069635D
:101F9000AA461D4D29601D4D2E78AC463500C54022
:101FA0002F402B4215D053465F6A194B8500EB58E2
:101FB0009F4218D36246174B8E43EB581670BFF3FF
:101FC0005F8F0022226088F31088002B06D098478C
:101FD00004E0BFF35F8F276088F31088E0BCBA4647
:101FE000B146A846F0BD0C4B92009C466244136873
:101FF0001360BFF35F8F0023236088F31088EDE741
:10200000280100D0004005403C700540B55A03202F
:102010007C5A0320C4140220D03F054010B5034B66
:1020200001001800024AFFF7ABF810BDAA5A0320BE
:1020300058770010034B596A0A00986A596A8A4215
:10204000FAD170470040054070B504000D00174AF2
:10205000536A1900966A536A8B42FAD1300019000C
:1020600024184D41AB4216D813D0104A2B00526AA7
:10207000954203D90D494A6A9A42FCD39A4207D144
:102080000A4A02E0516A994202D1916AA142F9D307
:1020900070BDA642E9D9054B5B6A1C005A1CEFD003
:1020A000012301246442E5175B42E3E70040054059
:1020B000064A536A9942FCD807D1044B02E05A6A97
:1020C000914202D19A6A8242F9D37047004005409A
:1020D00070B504000D00EFF3108672B61A4A13684B
:1020E000002BFCD0BFF35F8F002D1BD02000FFF72B
:1020F00001F9164981420AD02000FFF703F90121B6
:102100002000FFF7D9F80123A340114A1360114BB7
:10211000A400E550BFF35F8F00220B4B1A6086F3DB
:10212000108870BD0121A1400A4BA200D5500A4B76
:1021300020001A788A4305491A70FFF707FA002130
:102140002000FFF7B9F8E5E7280100D0611F001073
:1021500038600540C4140220B55A0320F0B54F463C
:10216000D6464646C0B507002B4C616A0D00A66AEC
:10217000616AA942FAD18B4208D805D00120E0BC9F
:10218000BA46B146A846F0BDB242F7D9EFF3108A7D
:1021900072B6224801680029FCD0BFF35F8F012589
:1021A000BD401F491C4C8846097889462943C9B25D
:1021B0008C46414660460870391D890065630A51A6
:1021C0001849B8004350216A0020294219D0616A99
:1021D0000800A66A616A8142FAD18B4219D801D1FE
:1021E000B24216D8CC450BD00B4B1F221D625D634B
:1021F00001233A4093400C4A136043464A461A7002
:102200000120BFF35F8F0022044B1A608AF310880D
:10221000B5E70020F5E7C04600400540280100D0A2
:10222000B55A03207C5A032080E200E0EFF3108CC3
:1022300072B60A490B68002BFCD0BFF35F8F0123F5
:102240008340074A0748136202789A430270BFF33B
:102250005F8F00230B608CF310887047280100D03B
:1022600000400540B55A032070B506000D0014006B
:1022700000291DD0002A12D0736880689847620038
:102280006B0012195B193168033A033B002808D030
:102290008A189570C818CB5C002B0BD104702800ED
:1022A00070BDCB189C7088188A5C002A05D1057017
:1022B0002000F5E753700470F1E75A700570F7E7F6
:1022C00010B583600023CCB24373013342600473C2
:1022D0008373C4730068421C012C05D90133DBB23F
:1022E000137003329C42F9D1FF230B405A00D318DC
:1022F000C01800230338437010BDC04670B50400F9
:10230000081E07D0430021681B18033BCB185A78DE
:10231000002A00D170BD5500AD18033D49190025B4
:102320004E784D705D7001002000FFF79DFF310079
:1023300005002000FFF7E2FF290002002000FFF760
:1023400093FFE7E7F8B54D006D180368033D0E00F5
:10235000595D17000400FFF7D1FF002F0CD123684F
:10236000002805D00021420012189A18033A9170F3
:1023700000225B195A70F8BDE17B2368002904D064
:102380004A0052189A18033A5670A27B002A00D1CC
:10239000A673E673E4E7C046F8B5467B03687500AC
:1023A000AD19033D0F00595D0400FFF7A7FF002F93
:1023B0000ED12368002805D00021420012189A1877
:1023C000033A917000225B195A7060733000F8BDB7
:1023D000E17B2368002904D04A0052189A18033A76
:1023E0005670A27B002A00D1A673E673E2E7C046CE
:1023F00070B5050000292CD0437B8B422ED04C00B9
:1024000000686418033C0419A278002A21D0530004
:102410009B18033BC25CC6188A4202D11BE0002A0B
:1024200008D053009B18033BC3185A788A42F6D150
:1024300062785A70002301222800A3706370FFF7AE
:1024400081FF697B02002800FFF70EFF68730120FF
:1024500000E0002070BD63783370EBE701221900C3
:10246000FFF770FFF2E7C04670B516000D001900C7
:102470000400FFF7B1F92900701C00F083FE00236F
:10248000E681A5816060A36070BDC046F0B5C64618
:10249000076B04000E00150000B5FB070CD4E36ABF
:1024A00022005E4080232C325B01354013431D60C7
:1024B000276380BCB846F0BD0200C02330329B01C8
:1024C00013430C4A1A60436A826A9B0198460620AD
:1024D000904400F09DF9434607499B02984600F05E
:1024E00055FB0100404600F051FB0021FFF7ACFD19
:1024F000D5E7C046010300004E0E000070B5040091
:1025000006200D0000F084F92900C00000F03EFB19
:10251000C30906D0104A934214D900230F4D104925
:1025200001E040250121002261622000A362002118
:10253000FFF7ACFF062000F06BF92900800000F0E7
:1025400025FB70BD7F220240013252089D01190017
:10255000AD181300E7E7C046FEFF0000C0FF3F00D4
:10256000FFFF000070B5040006200D0000F050F9D8
:10257000061E31D0194B1A49E3185A1E9341802286
:10258000120494465B429B0D164A9B0563441360FC
:10259000154A136018008A689043FBD10F4B134A09
:1025A000E31859424B4180215B00490099522000B9
:1025B0002900FFF7A3FF6E22060060212000FFF72D
:1025C00065FF220080232C329B01134310221A60E6
:1025D000074B23630323A364300070BD0080FCBF5E
:1025E00000C0004000E0004000F000408C5A032092
:1025F00001030000F0B5DE464E4657464546E0B5BD
:1026000083B001921A0E93461E02050000238946EC
:10261000300059460C9A00F0F7FA374B6C009C4694
:102620006419A400644463680700834200D26060B8
:102630002B1FDBB29846012B38D9C02380229B0187
:10264000234312011A602D4BAD0059599A460029B7
:1026500023D1019B22685B015340E0221A40802372
:102660005B0123431A604246012A38D98023802225
:102670009B01234312011A6030003A00002359469F
:10268000676000F0C1FA53465851012003B0F0BC16
:10269000BB46B246A946A046F0BD586900F076FA9E
:1026A000013043001B18033BFDD2D2E74B46012B00
:1026B000C3D1C02303229B0123431A60023AA368BB
:1026C0001A42FCD0019B22685B015340E0221A4071
:1026D00080235B0123431A60084AAD0092464A46B4
:1026E0002168514003220A401A6001224B469A4059
:1026F000A3681A42FCD0B9E700800040E419022028
:1027000010B582B0049C9C4204D80094FFF772FF7D
:1027100002B010BD0020FBE730B50C2083B000F004
:10272000DDF8FEF70FFD00280BD02D482D4A0100E3
:102730000300283104C38B42FCD12B4B436203B00E
:1027400030BD2A4CA06700F0D1F80122284B1A6056
:10275000636C012BFCD10322264B1A60234A936B36
:10276000012BFCD1013300930121234A2348043378
:1027700000F054F8052301210093214A214800F07C
:102780004DF8214B214D174C0093002202210420CB
:10279000FFF730FF2B000022012100950520FFF7F5
:1027A00029FF23000022002100940720FFF722FFC9
:1027B00023000022002100940820FFF71BFF0A4B92
:1027C00000220093002123000920FFF713FF2B00B4
:1027D0000022002100950620FFF70CFFAFE7C0465E
:1027E000E4190220006CDC021BB7000000800040EE
:1027F0003CB0004030B00040002F685900800240DB
:10280000008C864700C00240001BB7004059730788
:10281000014B8000C0587047E4190220F8B504004D
:1028200022481E0017000D0000F0B0F9010038002A
:1028300000F0ACF9069B36041B031E432368002BF3
:1028400022DB1B4B1B49E3185A1E93418022920145
:1028500094465B421B0B184A1B0363441360174AE0
:1028600013601F008A689743FBD1C022231D920189
:102870001A4321232560A06013602368002BFCDA33
:102880000823E6601360F8BD3F2322681340AB4283
:10289000D7D1A3681B051B0D8342D2D1EE22E3687A
:1028A000D2021340B342CCD1EDE7C046001BB700C3
:1028B0000040FDBF00C0004000E0004000F00040CC
:1028C000044B00011B68044A5840F0230340136086
:1028D0007047C04600400640005006408023024A30
:1028E0009B000343D362704700800540AA23064A39
:1028F0001B0113602F230549D360054B19605368F2
:10290000002BFCDA7047C0460040024000B0FA00DD
:10291000006002402B4B2C4A70B51A602B4A2C4B9E
:102920002C491A6014008B689C43FBD12A4D2B4E16
:10293000B54208D2013E761BB60808CD9847230061
:102940000134B342F9D1FFF7E7FE254A204B1A6064
:10295000204A9368DB43DB01DD09002BF9D14022DB
:10296000204B214C214E9A675A671A67DA66B442A7
:1029700008D223682000002B20D00834FEF742FF45
:10298000B442F6D31A4C1B4EC022B168200000F0AE
:1029900027FCB460FEF764FCFEF70CFFFFF72AF992
:1029A000154C164EB44208D2013E361BB60808CC70
:1029B00098472B0001359E42F9D170BDFEF714FFF8
:1029C0000834D4E700E00040BFCDFBFEFE7F3C00B2
:1029D00000F0004000C00040CC160020DC160020B3
:1029E000FFFFFF0100F00140BC160020CC160020C4
:1029F0000000002000ED00E0DC160020E4160020BE
:102A000000BEFDE7094A03001068002805D0084908
:102A1000C3188B4207D81360704706480449C3188F
:102A200010608B42F7D901204042F5E7345503206E
:102A300000000420B85A032010B5FFF7E1FFC0469C
:102A40000FB400B5084883B000F09AFC049B002B3B
:102A500007D005A91800019100F018F8034800F00C
:102A60008FFC0120FFF7CCFF7C7700108C770010E3
:102A700010B50148FFF7E4FF9077001010B500286B
:102A800000D110BD00F06EFCFBE7C04610B5094A4E
:102A90000300146884B0002C08D00122009106487D
:102AA000524203A9A047012004B010BD00F068FC09
:102AB0000020F9E7F85503207D2A00100148042181
:102AC000014B184720110020F92A0010014B9B6888
:102AD0001847000020110020142310B501001888A9
:102AE00004331B88984710BD162310B501001888C1
:102AF00002331B88984710BDF8B54746CE4680B5CF
:102B00000F1E19D014239946043304000025012612
:102B100098464B461888434621681B88984701C44D
:102B2000431E9841013540420640AF42F1D130008A
:102B3000C0BCB946B046F8BD0126F8E7124A936F0B
:102B40009B0815D29066D166002905D0FFE7FFE704
:102B5000FFE7516F106F704704B580210906C21757
:102B60005140002800D0C84304F08AFD002104BD74
:102B7000F0B5146E556E576F166FFFF7E3FF1466CE
:102B8000556657671667F0BD000000D0114A936F75
:102B90009B0813D210665166002905D0FFE7FFE7B6
:102BA000FFE7516F106F704704B5002801D0002077
:102BB000C04304F065FD002104BDC046F0B5146EAD
:102BC000556E576F166FFFF7E5FF1466556657672A
:102BD0001667F0BD000000D094464A4A926F9208F2
:102BE000624601D228E0C046F0B5464E346E756E9E
:102BF000776F366F00F020F89446424A14665566A7
:102C0000576716676246F0BD94463E4A926F920837
:102C1000624601D254E0C046F0B53A4E346E756E4D
:102C2000776F366F00F04CF89446364A1466556656
:102C3000576716676246F0BD002B24DB11D00029D0
:102C40003EDA00B5C943404200D1013100F038F806
:102C5000C943404200D10131DB43524200D101332C
:102C600000BD002AEBD1002801D1002905D00020A9
:102C7000C90FC90701D1C043410800B504F0F8FCF1
:102C80000022002300BD00B500290ADBDB435242CD
:102C900000D1013300F014F8C943404200D10131A2
:102CA00000BDC943404200D10131DB43524200D153
:102CB000013300F005F8DB43524200D1013300BD7F
:102CC000002923D1002B18D1002A0CD0BC460D4F6F
:102CD00038667A6600210023FFE7FFE7FFE77A6F97
:102CE000386F67467047002801D00748010000B5DB
:102CF00004F0BEFC0022002300BD02000B000020F7
:102D000000217047000000D0FFFFFFFF002B00D024
:102D1000BFE0130C28D1002AE7D080B4114F3966E8
:102D20007A66FFE7FFE730B4040C7B6F396F1B0452
:102D300023433B667A66FFE7FFE7FFE7C04684B2BE
:102D40007B6F3D6F1B0423433B667A66FFE7FFE71B
:102D5000C04600232C042D0C7A6F386F001969418E
:102D6000B0BC7047000000D0F0B594460025140EAA
:102D700001D112020835140F01D112010435940F4C
:102D800001D192000235D40F01D152000135D40B8C
:102D90000134254F7C66254C3C660E0C93B2FFE750
:102DA000FFE7FFE73C6F6643360C7703BE4673438D
:102DB000DF0B5B04C01AB941130C7343DB18C91A4B
:102DC000CE086643360CB64493B273431F0F1B0103
:102DD000C01AB941130C73431F0B1B05C01AB9412C
:102DE000860D8F023E436643360C092D24DB520AC2
:102DF0007243801A7703460A6643360C16235B1B20
:102E0000DE40DF40BF1964466643821B70460435CE
:102E100006330100D940A840C01900D30131A242B5
:102E200006D20023F0BD0000000000D0FFFFFFFF2E
:102E3000121B0130F3D3F1E709277F1BFE406446E4
:102E4000A2B27243801A00D20139220C7243130CD1
:102E50001204821A99410B007046043513370100A1
:102E6000F940A840801900D30131002B02D1A242C1
:102E70000AD2F0BD013000D30131121BFAD2013B5E
:102E8000F8D1A24200D2F0BD013000D30131121BB3
:102E9000F7E7F0B51C0C00D080E00CB400251C0A4C
:102EA00004D11B02160E3343120208351C0B04D149
:102EB0001B01160F3343120104359C0B04D19B00F8
:102EC000960F334392000235DC0B02D192185B411E
:102ED00001351C00971864410134464F7C66464C0E
:102EE0003C660E0CFFE7FFE7FFE7C0463C6F66431A
:102EF000360C7703BE4697B27743C01B00D2013928
:102F0000C01B00D201399FB27743C91BC91B170CE4
:102F100077437E04FF0B801BB941CE086643360C15
:102F20000C2D33DBB644120B1F053A431B0B97B233
:102F30007743C01B00D201399FB27743C91B170CDE
:102F400077433E043F0C801BB941860D8F023E4300
:102F5000664329277F1BFE400C3D7746AF40BF19D3
:102F600030BCA2B2ABB272437343801A9941220CB7
:102F70007243130C1204801A994102000B000137AE
:102F8000001BA941F9D2781E0021F0BD0C277F1B40
:102F9000FE4077467F0BAF40FF19E0E700245D1C41
:102FA00007D0144F7D663966FFE7FFE7FFE7FFE7CD
:102FB0003C6F95B29EB265436643401BB141150C10
:102FC0001E0C6543664336042F0C3E432D04401B04
:102FD000B141994204D202000B0020000021F0BD53
:102FE00001D19042F7D3801A994101349942F2D32A
:102FF000F6E70000000000D0FFFFFFFF132370B5CD
:103000001C78012C15D010DD1048FFF76DFD104D18
:1030100001008022280000F0E3F8022C13D00D48B4
:10302000FFF75AFD0C4B186070BD0C4A084DAA649E
:10303000F5E7074D094A29002B00803104C38B4274
:10304000FCD1AA64EBE7054AAA64E8E75344000010
:10305000705803204C330000705903206130001079
:1030600007B5604601880A0A0230DF2AFAD1C9B2E0
:10307000820804D3028840880004104300E00068FE
:10308000014A5050039007BD7058032051434343F9
:10309000C9188C46110C83B24B4310B4040C614325
:1030A00092B280B2504362431C041B0C001910BC46
:1030B00059411304120CC01851416144704700007B
:1030C000132310B510481C78FFF70EFD0100012CEA
:1030D0000AD003DD80220D4800F082F80C48FFF78B
:1030E000FBFC0C4B186010BD084C5422200000F073
:1030F00077F823002100084A5433803104C38B42FF
:10310000FCD12262E261E9E75346000074590320D2
:103110004C330000705903201D31001007B5604684
:1031200001880A0A0230DF2AFAD1C9B2820804D320
:10313000028840880004104300E00068014A5050B3
:10314000039007BD7459032070B504000A4E300087
:1031500004F0B6FA200003F013FD0500300004F07F
:103160007FFA002D05D0054B2C199C4201D8280070
:1031700070BD0348FFF764FCBC160020000004206B
:103180009C77001070B505000C000B4E300004F069
:1031900097FA2800210003F093FC0500300004F0AA
:1031A0005FFA002D05D0054B2C199C4201D8280050
:1031B00070BD0348FFF744FCBC160020000004204B
:1031C0009C77001001480421014B18473011002062
:1031D000F92A0010014B1B6818470000301100202D
:1031E000014B5B681847000030110020030010B548
:1031F000080011001B68984710BDC046F0B5C646D0
:1032000000B5437D07000D001600002B38D0002AC2
:103210002EDD00216A1E90466A5C037D4C1C002056
:103220000A2A0CD0A64216D043461B5D21000D3B56
:103230005A4253416A5CDBB24C1C0A2AF2D1002B81
:10324000F0D1814217DC022110483B689847A64222
:1032500007D02000E8E7864203DD311A3B682818D2
:103260009847AD19013D2B780D3B5A4253413B75B0
:1032700080BCB846F0BD091A3B6828189847E2E7B9
:103280000368110028009847F2E7C046E47D00106B
:10329000F0B54546DE464E465746E0B585B0914608
:1032A0001C0080460D00FEF7C5FE0023264A1218BA
:1032B0004B41802109068B4202D30122234B52420B
:1032C000234908008A4604F0EBF901906B1C03D1F6
:1032D000404603F0F1FF0500002C2ED01D4F1E4B81
:1032E0001C68002C1FD00A231C4E9B4602E0246958
:1032F000002C18D02368002BF9D03368002B01D0A4
:103300009C42F4D12A0041462000B8474B46002B8E
:10331000EDD05A4602AB2000DA71D91D0122B84720
:103320002469002CE6D1019B002B08D105B0F0BC2C
:10333000BB46B246A946A046F0BD094FCFE750466E
:1033400004F08EF9F2E7C04640420F00FFFFFF7F16
:10335000C4160020ED310010542402201029022050
:10336000FD31001010B582B06B4604000022D81D5C
:10337000012100230470FFF78BFF200002B010BD75
:1033800070B5040003F098FF00230100050001223E
:103390002000FFF77DFF064B1C68002C06D06368F9
:1033A000002B00D098472469002CF8D1280070BD6C
:1033B000542402200A4A1368002B05D10CE01A009D
:1033C0001B691032002B07D09842F8D1002902D196
:1033D00003691360016170470029FCD01060FAE7AF
:1033E00054240220F0B5002915DD0E4B0D271A6874
:1033F0000D4B0E4CD3185D426B41451820215B00EC
:103400001E5F0478A64207D093691942FCD10130AF
:103410001460A842F5D1F0BD93691942FCD1176040
:10342000F2E7C046945A03200080FCBF8C5A032068
:10343000214B70B504000D1E1E682CDD00201021EC
:103440001E4B013C1A689369194215D101309369EA
:103450001942FCD1136823548542F4D1002E09D0BF
:10346000502338219363536B3432194080235B011E
:103470001343196028000DE0002E09D05023382195
:103480009363536B3432194080235B011A431160FC
:1034900000280ED070BD002E0BD050223821074BD3
:1034A0001B689A635A6B34331140802252011343D4
:1034B000196003204042EDE7D8190220945A0320F6
:1034C000064B10B51B68002B06D00021044A126879
:1034D0009163044A1068984710BDC046D81902206D
:1034E000945A0320DC1902201D4BF0B51A68C64619
:1034F00098461C4B0E00D31859424B411A4F1433B7
:103500001C00050000B53B68002807D0002B11D037
:10351000164B3D601E6080BCB846F0BD002BF7D056
:10352000906300212000FDF7C7FE20001049FEF740
:103530000DF8EDE720000E49FDF7E4FE0121200023
:10354000FDF7BAFE4346502238211B689A635A6B36
:10355000343311408022520113431960D8E7C0462A
:10356000945A03200080FCBFD8190220DC190220E5
:10357000C134001070B50C4E0D001C003060002AE4
:1035800003DB02211000FDF75BFD002C03DB0221B1
:103590002000FDF755FD29003068FEF7E3FF01210B
:1035A0000248FFF707FF70BD945A03204011002026
:1035B00003BDC04610B50400FEF7FCF8A04710BDDF
:1035C000F0B5040087B00F200E001700FDF786FE4F
:1035D000002105000F20FDF76FFE0023002200925E
:1035E000019301230293D02304960594002600241E
:1035F0000121022003971B06002C14D01A6D1042E3
:10360000FCD05C6540BF1A6D114203D120BF1A6D1A
:103610001142FBD09A6DA2420AD000266C46B2003D
:10362000A458E9E79A6D1A6D1142FBD140BFE5E756
:103630000136062EF2D129000F20FDF73DFE07B01E
:10364000F0BDC0460D4B0E4A10B5934210D30D4A43
:1036500099181A000B4C1051FF20C00013500A4B50
:103660000A4813500A4B0B489A68FFF7A9FF10BD90
:1036700001235B421A000849ECE7C0460008042019
:1036800064010420F4070000B5350010FC070000B9
:1036900000ED00E0B1350010F30700003423F0B571
:1036A000DE4657464E4645469A46E0B505008244FA
:1036B000504683B08946904600F076FA28002E00E6
:1036C0003C302F1D00F07AF93C004036012000F01C
:1036D000D7FB2060012000F0D3FB606004CEE86BD4
:1036E000131D9B00C318A360524BC318591E8B4176
:1036F000DB009B18E3601034A245E7D19C22002335
:103700009D209200AB50083AAB5080000432AB5081
:1037100004214B4608222818FEF7A6FEA1239B0091
:10372000EC1808224B4604212000FEF79DFEA52040
:1037300080004346082204212818FEF795FEA920A0
:1037400080004346082204212818FEF78DFE2B0036
:10375000012239002868683300F02AFA2B00002281
:1037600039002868E83300F023FA2B0080226933FF
:1037700039002868FF33920500F0A8FA2B00E933DE
:10378000FF3300223900286800F0A0FA032398468E
:10379000A1239B009B46002619E04F4660689A00D3
:1037A0001750320001339BB299427241524213408A
:1037B0002381BFF35F8F019B1E608CF3108840BF95
:1037C00001235B429C46E0444346002B28D02B68F3
:1037D0001B695800C01840088000FFF7B5FC8146FF
:1037E000002824D05B46EA58EFF3108C72B61368B9
:1037F000002BFCD0BFF35F8F23896289E1899A1A7D
:1038000001D5481C12185846285801908A42C4D144
:10381000BFF35F8F019B1E608CF3108820BFE1E730
:1038200003B0F0BCBB46B246A946A046F0BD024874
:10383000FFF706F90000E0AF0C780010F0B50E00BD
:103840000121836834229940C64694468846002464
:10385000012500B5031D84442F001A6829009740F4
:103860003A005F681033B9400A4314436345F3D10B
:10387000A0224146124BD205D1500B2E12D0114B33
:103880001B685940104B0C401C60104B104958608D
:103890000C20FDF737FD30000121FDF70DFD80BC48
:1038A000B846F0BD0B4B0C4A1B684B4023401360DD
:1038B000064B0A4918600B20FDF724FDEBE7C046D4
:1038C0000C04000014040050141400504C24022076
:1038D00005090020040400500414005029090020A8
:1038E000F8B5344BDE469B46E823454657464E46E0
:1038F0009846E43BE0B59C4600252F4F041D8044CC
:10390000A0265946F605B1462368DA023A400A4332
:10391000616889014944C146002D3CD0012D36D053
:10392000A024E405A44604009B0149346344FF3409
:103930001C605960042199601A61012211004368DA
:10394000140099400B00416906008C40416A2343F2
:103950008A4013438622614604000125D2008B5021
:10396000C16B40344C362A00236810339A404B68B0
:103970001A42FCD00434A642F5D101213C3000F0BB
:10398000E3F8F0BCBB46B246A946A046F8BD942673
:103990007600B1468144A026F605B2464E469B010C
:1039A00053441E60596061460135996010341A61B4
:1039B000A6E7C04639851F00FDFF1FFFF0B5DE46B4
:1039C000454657464E46E0B5040087B05749006863
:1039D00000F018FB03000133C2011B031343544AD8
:1039E00082461340019310239B46A0466062251D2A
:1039F000A34443462968186800F0ECFA43460324C0
:103A00001F68EE682B68B440994602222300B2403A
:103A10003800494600F014FB0122230052423800CE
:103A2000494600F061FB434B3000FC18631E9C418B
:103A300006342100FDF704FB2100701CFDF700FB9C
:103A400080235B020293019BB60203938023DB0574
:103A500033430593384B380052464946049302AB32
:103A600000F096FB494601228A403B68802693433A
:103A7000324A3B602027434694467124E868D95D6A
:103A8000830063441A687601224033431A60FDF7CD
:103A9000EFFA2A4A43469446E868D95D013083002C
:103AA00063441A68334314401C600435FDF7E0FAA0
:103AB0005D459ED14446E5692A07520F93009B1845
:103AC0001F4A9B009446002263441A609A60DA60A1
:103AD00009321A6107325A600C3A1A60194ADA60E0
:103AE0006B1C1CD0154BAF009C46202399465133CC
:103AF0009846674428000421FDF7A2FA4B46424647
:103B0000E15C3B682800134032003A431360FDF744
:103B1000AFFAE369013501330437AB42EAD207B0AB
:103B2000F0BCBB46B246A946A046F0BDE87D0010F9
:103B3000FFFFFF9F0000E0AF00000E6804C00140DF
:103B40000000054005000500012230B5140043685F
:103B500015009C4023008468A5402B431500C468D1
:103B6000A5402C000568C0691C430007400F830076
:103B70001B180C489B008446802063444001184376
:103B8000002907D08021890129430C601B689A43D2
:103B9000026030BDC021890129430C601B681A40B6
:103BA0000260F6E7000005400023036003717047E0
:103BB000F0B557464E464546DE46E0B5067D012443
:103BC000B61A724256413C4A0578904685B0760056
:103BD00002926C4034433543029E8F68A4004444F3
:103BE000B046BC4642685F60039252089A604A68D9
:103BF000324FD2023A40BA46CF68AD00FF033A4393
:103C00002F4F45443A40B9460F686646FF023A4393
:103C10002C4F1C6001971743BB46DF6087681D610E
:103C200065465D617D089D615D46DD61C5685E62DA
:103C30006E089E62244E1C62324099263243DA623C
:103C400002691C6364465C635C46BC4652089A6326
:103C5000DC6303981C0060446033451990460120E2
:103C60001A0003009446029F6D08103140345246FA
:103C700048682760C0021040CA688E68D2031043AB
:103C80004A4610400A686660D2021043019AA56055
:103C900010434246E06027616661A261E061022B49
:103CA00003D0644602231031E1E705B0F0BCBB4607
:103CB000B246A946A046F0BDF80B0020FD7F00FFEC
:103CC000FF87FFFF99002000FFFFDFFFF0B5574699
:103CD0004E464546DE46012492460278E0B59446BB
:103CE000027D87B06240D2B2520090466246544094
:103CF0004246E4B214435B4AA4009146009222007B
:103D000045688E684A440392B1461A605E606A084C
:103D10004E689A60544FCA68F402D2030295059423
:103D20000D682740514C1743ED02A3462740504CE5
:103D30002F433C430494DC60846846460194644607
:103D40003443A600009CB446A046C44466461E61A7
:103D50004E46019C5E6166089E61C668049CB4463E
:103D6000039EDC611E624E465E62664674089C627B
:103D7000404C60263C4099273C43019FDC62B8469A
:103D8000029C394F4444644494462A00059D6408CB
:103D90003D406746A046B14604693D4300205F466A
:103DA00056460831C2466408994401933D400028B4
:103DB00037D04F46012802D1019B40331F00009BA2
:103DC00015433B600B682A4A7B605346BB60102357
:103DD0002A439846FA603A004244002E29D0270030
:103DE0004743BF00BC46B444674617600F680130C4
:103DF000BC46214F94603D436746D5605760032819
:103E000029D04A698F68D2039446CD68FA02164FCA
:103E1000ED023D4067463D435F4610313D4000287E
:103E2000C7D13023019F984615433A004244002EE3
:103E3000D5D183009C46114B01309846C44463465B
:103E400013600B6894609C466746094B57601D439E
:103E5000D5600328D5D107B0F0BCBB46B246A94611
:103E6000A046F0BDF80B0020FD7F00FFFF87FFFF9D
:103E700099002000FFFFDFFF19002000EC0B00205D
:103E800010B5064B064C82B00100009300220B23B4
:103E90002000FDF797F902B010BDC0462C78001045
:103EA000985A032003680B6043684B6083688B60FB
:103EB000C368CB6003690B61C36A4B61036B8B61A1
:103EC0007047C0460B6803604B6843608B68836033
:103ED000CB68C3600B6903614B69C3628B69036381
:103EE0007047C046F0B54646D6464F460523C0B596
:103EF000CB560E79002B01DB9A423AD11E4BC318E8
:103F00005C4263419B0098461C4C2300A2464446F9
:103F10001B5999460123B340013B93404C464D4603
:103F20009C461C402B4224D1002E17D080274D7870
:103F30000B782D021D438B78BF011B042B43CD78DA
:103F40002D061D436300E95AB94200D2891813199E
:103F500012339B0001341950A642F3D84B466246F7
:103F60004146134352465350E0BCBA46B146A846B8
:103F7000F0BD0348FEF764FD0000D0AFBC14022082
:103F80004C780010114B30B5C31858424341104CC7
:103F90009B001D59012420238C40591A013C002A02
:103FA00009DB10008A4203DC9440254200D130BD79
:103FB00001204042FBE7002902DAF9E7013903D387
:103FC00023008B401D42F9D10800F0E70000D0AF7C
:103FD000BC140220074B10B5984204D0064A07488B
:103FE000FDF7CEF810BD064A04480431FDF7C8F8C5
:103FF000F8E7C0460000305084780010AB5A032028
:1040000060780010F8B50C000600FDF7A3F8052253
:104010000700A25630002179FFF7B4FF051E09DB27
:10402000020021003000FFF75DFF3800FDF79EF829
:104030002800F8BD0148FEF703FDC0464C7800108B
:10404000F0B5DE4657464E464546E0B51600DC2242
:10405000924685B01C004B0002935B18DB00C5182C
:10406000AA445246834628001268CC300092026867
:10407000C020CC3380015B44034380208002019246
:104080001860002C1DD08023DB0499460123D8350D
:1040900098462B00E02755469A463F0203912000A0
:1040A000FEF714FD4A46430113432B60330042469A
:1040B000C340134052463B431360631E1C40EED185
:1040C0000399029B5B18DB005B441A000099DC3209
:1040D0001160019ACC331A6005B0F0BCBB46B24601
:1040E000A946A046F0BDC046F0B5DE4657464E464E
:1040F0004546E0B51600DC22924685B01C004B0018
:1041000002935B18DB00C518AA4452468346280078
:104110001268CC3000920268C020CC3380015B442E
:1041200003438020800201921860002C1CD0802361
:10413000DB0499460123D83598462B0055469A460C
:10414000124F03912000FEF7C1FC4A46430113437E
:104150002B6033004246C340134052463B4313603A
:10416000631E1C40EED10399029B5B18DB005B448D
:104170001A000099DC321160019ACC331A6005B044
:10418000F0BCBB46B246A946A046F0BD80E00000A8
:10419000F0B501258D400468AC430460002B2ED09F
:1041A0004D006C18E400041926001F68C8363760FB
:1041B0005F68DC3477609F68DB68B76023606B18EA
:1041C000DB001D008024D035451964012C43802577
:1041D0002D06256025600125124C2E008C40846040
:1041E0000C1DA640802408318D401F21A4010443EA
:1041F000C0180A40D830266025600260F0BD4D002E
:104200006C18E400041926008027C8367F02376046
:10421000F8277F027760C027DC343F03B760236054
:10422000CDE7C04601010101F8B507AD2F787F2524
:1042300004001540D609A2706A426A412383E270E5
:10424000204BE26808005340A02206A90978120614
:10425000E17689060B43607766701343002F02D026
:10426000013F3F043B436268136001232370164BF8
:104270009C4222D02D040543002E02D180239B04B2
:104280001D43124B1E6DB605B60F012E02D0022E35
:1042900014D1002600F01EFDB04202D08023DB04C2
:1042A0001D430A49A37F8C469A006244556001224F
:1042B00001339A401300064A5365F8BD0548FEF7DE
:1042C000BFFBC046000010500C2702200000115018
:1042D00000201150A0780010F0B598234E46DE461D
:1042E000574645468D4AE0B5D658973B1C0089B0E5
:1042F0003440334210D0136D9B059B0F2DD180228B
:1043000004A952008A800B8105A8012103F0D0F98D
:10431000C022834B92001A658023DB001E4200D02E
:1043200081E0102333422ED1082535421ED140238F
:1043300033420CD1B30600D5E9E0B44200D0E1E04D
:1043400009B0F0BCBB46B246A946A046F0BD8022EB
:104350001C43734B12051A65ECE7002304AA0121E4
:104360009380138105A803F0A3F9D1E780226C4B59
:10437000D2021A650222694B9046DB6C1A4272D156
:1043800008231C43D3E71C43644B9F6D01233B422E
:1043900000D08EE0002FC7D0624B04259B4601233E
:1043A00099465F4BA24698463B005F469B46039664
:1043B0005E46AC1E4B46A3409B461E420CD10134C8
:1043C000A542F7D1B346202D69D002352037002E03
:1043D000EED15446039EA7E743465A4638009A65F5
:1043E00000F00EFB002802D15B469E43E7E77B7F8F
:1043F000BA78F98A380000930192029100F0AEFA7F
:104400000822002105A8FEF7E5FE022304A8029970
:104410004371019A009B02728371079105A80121E3
:1044200003F046F9E0E780221C433D4B3E489205ED
:104430001A65437F05AD99468378C78A984600F090
:104440008DFA082200212800FEF7C4FE4A46022306
:10445000AA7042466B702A716B7101212800079780
:1044600003F026F95DE7304805AF437FC5829A46E1
:104470008378994600F072FA082200213800FEF78E
:10448000A9FE43467B705346BB704B4601213B71EE
:104490003800BD6003F00CF908231C4347E75F4672
:1044A0005446039E002F00D13EE739001F48FEF717
:1044B000C7FA1D4D6A6828001268194A936500F012
:1044C0009FFA002802D101239F4363E76B7F2800F6
:1044D0009A46AB789946EB8A05AD984600F03EFACD
:1044E000082200212800FEF775FE02236B70534658
:1044F000AB704B462B71434601212800079303F014
:10450000D7F8E0E721000A487140FEF799FA8022C7
:10451000034B120607481A65FEF792FA0000115085
:10452000003011502C2702200C270220B0780010F8
:10453000DC780010C878001070B500F0E9F90C23A1
:104540000D4C0E4DA36729000520FCF7FFFF290045
:10455000FF220520FCF700FF80220021920008487E
:10456000FEF738FE03232364064B074AE3649023D7
:104570000120E25070BDC04600001150D942001029
:104580000C270220008600207B0400007047C046F4
:104590007047C046044B186DC0239B001840431E53
:1045A0009841C0B27047C04600001150064B10B58C
:1045B000186D8005800F012802D0022801D100204B
:1045C00010BD0248FEF73CFA00001150A078001020
:1045D000F8B5CE4647460D0080B5002929D0174CC6
:1045E000012326009946164BE13698460027FF36F0
:1045F00002E02034B4421CD0637FAB42F9D123786F
:10460000002BF6D04946A37F20005A1C91400A0097
:1046100041464A650B4A9B00944663441F606368A9
:1046200027701F60A36820341F6000F097F9B44220
:10463000E2D1C0BCB946B046F8BDC0462C27022026
:10464000003011500400115010B501210520FCF775
:1046500033FE10BD70B5D37814009B0782B09D0F58
:10466000002B15D11C481D4B83601D4B43601D4B17
:10467000C360637922791B021343A278A4795B0596
:104680005B0D01940095FFF7CFFD012002B070BDD6
:10469000012315480278002A17D001332030102B4F
:1046A000F8D10D48EF33FF33C25C1E3B0F4EC018EC
:1046B000D3009E1986600E4E9201B4466344436057
:1046C0000C4B9C466244C260D3E703485A1E5B0110
:1046D000D2B2C618B277E9E70C270220800010504A
:1046E00000011050800110502C270220880010502B
:1046F0000800105000021050F0B54F464646D6460E
:10470000C0B582B01F000AAB1B88150099467F23F5
:104710001A002A400E0090462B4230D001242F4828
:1047200003E001342030102C22D00378002BF8D085
:10473000437FB342F5D18378AB42F2D1284B640179
:104740009A465444A378AB4209D00022238B0192AD
:10475000E27E3100009220002A00FFF765FD5445FB
:1047600012D020004A46390000F040F9012000E054
:10477000002002B0E0BCBA46B146A846F0BD184BD6
:104780009A469B78AB4224D14A463900504600F005
:104790002DF94346134A1B0433431360124B032481
:1047A0009C46ED09136D013DA5431B0A65441C4061
:1047B000012C02D0022C0ED10024300000F08AFA25
:1047C000031B5A1E9341074A9B012B430120D364CC
:1047D000CFE75446B9E70548FEF732F92C27022007
:1047E0000C2702200000115009860020A07800103C
:1047F0000800002370B51B4DD45CEC540133082B2A
:10480000FAD1194A194C8025D46000241849D4766D
:10481000916054701749184C6D0051605077558065
:104820000C6001219382154B1170917618601C6DFC
:10483000A405A40F012C02D0022C0FD1002400F0FB
:1048400049FA031B5A4253413F225B4293430C4AAD
:1048500001209446094A6344D36470BD0948FEF7B9
:10486000EFF8C046000010500C27022080011050C5
:104870008000105000011050800100A00000115075
:1048800043860020A0780010F8B5028B838A0400CC
:104890000F00161C9A4200D91E1CE27880211500D8
:1048A000681E8541B6B2C90031436D030D43012135
:1048B0004A409B1BE27062789BB2A382002A09D017
:1048C000002B02D18023DB011D43002F00D02D04DB
:1048D0002800F8BDE068BB01C01832002169FEF76E
:1048E0007FFC23699B19236180231B021D43A38A3C
:1048F000E6E7C0467F21C209034B9200014010B594
:10490000D2580248FEF79CF858110020F0780010A9
:1049100080220D4B520410B51A600C4B0C491A60E2
:1049200010008B689843FBD10A4C9C220021200088
:10493000FEF750FC8022002152010748FEF74AFC96
:104940000923636710BDC04600E0004000F000404E
:1049500000C000400000115000001050002383767A
:10496000436103617047C046436870B500218025EC
:104970001E680400FFF788FF184B6D011B6C054390
:104980009B0716D5A3785B0616D0154B1E408023D7
:104990009B053343626813608022D200A3681542EE
:1049A00005D01968114215D10E4A2A401A601D60BF
:1049B00070BDA378DB09E8D0A38A002BE5D00121E4
:1049C0002000FFF761FFA023074ADB0532400543C3
:1049D0001343DFE7A078FFF78DFFC04600001150BA
:1049E000FFFFFFAFFFFBFFFFFFFFFFDF002310B55F
:1049F000C3820133828283760161FFF7B5FF10BD68
:104A000070B5867E0400002E49D083681A681D6840
:104A10004378AD05AD0D002B27D1C38AEB18C382B7
:104A2000238B62689D4204D20023A3821368300066
:104A300070BD1268520010D59D420ED1A268156853
:104A40006278AD01AD0D002A1BD1E28AAA18E2827C
:104A5000AB4202D90023A382E9E7A38A002BE6D068
:104A60002000FFF781FF0026E1E72A000069E168E6
:104A7000FEF7B6FBE38AEB18E38223695B19236137
:104A8000CEE7E1682A0020694031FEF7A9FBE38AFE
:104A9000EB18E38223695B192361238BD8E78178C4
:104AA0007F20CA09034B92000140D2580248FDF70B
:104AB000C7FFC0465811002010790010C278436922
:104AC0001A707047F0B589B06D46154C2B00220066
:104AD00007000E0003CA03C3092002220021684414
:104AE000FEF778FB01212F72EE72E38A049503939F
:104AF000A3680C4D0593E36849420693236928682F
:104B0000079302F0C5FD00232868637502F0A8FD35
:104B1000069B002B01D002A8984709B0F0BDC04603
:104B200020040220EC130220F0B557464E464546BD
:104B3000DE46E0B5364B0700884691469A461D0092
:104B40000026002483B003E001364235062C51D004
:104B50002B780134E4B2BB42F6D14346002B02D09D
:104B60006B784345F0D14B46002B02D0AB784B45D8
:104B7000EAD173019B195B0053441B79DB07E3D532
:104B8000062C3ED0234B002B02D0200000E000BFBB
:104B9000200001F0D1FC200001F092FA200001F089
:104BA00039F821003800FFF713FD422200212800C8
:104BB000FEF710FB28000822FF210D30FEF70AFB4C
:104BC00028001622FF211530FEF704FB124B9B46EE
:104BD0001B7DA342B8D10121104B494218680193B3
:104BE00002F056FD00235A465375019B186802F0E7
:104BF00037FDA9E703B0F0BCBB46B246A946A046C4
:104C0000F0BD002206213800FFF78EFFC0E7C04646
:104C1000601202200000000020040220EC13022099
:104C2000F0B504000138C3B283B0052B47D8430167
:104C3000244D1B185B005D5D002922D1224E737D3F
:104C4000D9B2022B21D003291AD0012916D1F38819
:104C5000002B1AD01D4F0239386802F019FD0223CB
:104C60003868737502F0FCFC80213278B3680A4022
:104C7000F188280000912100FFF73EFD03B0F0BD50
:104C800000212000FFF71EFFF8E701210F4F92B22D
:104C900049423868F28202F0FBFC032338687375DE
:104CA00002F0DEFC012332782100D2095A400023B1
:104CB000D2012800D2B20093FFF71EFDDEE7044BBD
:104CC0001D78B9E76012022020040220EC130220B4
:104CD000380402200138C3B2052B06D8420112184D
:104CE000034B52009B18D8787047024BD878FBE7EB
:104CF0006012022038040220034B1878FF38431E4C
:104D00009841C0B27047C0467C110020F8B5284ECB
:104D100005003378FF2B01D00120F8BD254C200081
:104D2000143CFCF77DFD200001F08AFE224B1C6044
:104D3000224C2000FCF758FD214B05220021214880
:104D40001C60FEF747FAC6221F4C002152002000CB
:104D50002700FEF73FFA182200211C48FEF73AFA16
:104D60008D37FF37422200212000FEF733FA200062
:104D70000822FF210D30FEF72DFA20001622FF2118
:104D800015304234FEF726FABC42EBD101F0CAFBE3
:104D900001F04CF900F008FF28003570FFF7CCFB5C
:104DA0000028BAD02800FFF74FFC0120B5E7C04625
:104DB0007C11002074110020F8130220F01302204F
:104DC000EC1302203804022060120220200402208A
:104DD000F0B5C64600B54378040082B0002B06D17A
:104DE0008368002B03D0304D6B7D002B05D000264F
:104DF000300002B080BCB846F0BD01212B4E0378D4
:104E000049423068984602F043FC6B7DDAB2002BD1
:104E100025D101236B7543462B75A168EA822800D2
:104E20000822FEF7DDF9E3683068AB602369EB60C8
:104E300063692B6102F014FC43465A1ED3B2052B62
:104E40002FD853011A499B185B00585C2369002B2B
:104E500009D02A004146FFF7CBFC0600C8E73068BE
:104E600002F0FEFBC3E76B46DF1D04233B70114BD2
:104E70002A0041462F61EB60FFF7BAFC061EB6D050
:104E80003B78042B08D101F075FC0028F8D000F025
:104E90004BFA3B78042BF6D03B78E370EB8A6360E7
:104EA000A6E7054B1878D1E720040220EC13022076
:104EB00060120220BD4A001038040220F0B55746A7
:104EC000DE464E4645460022E0B5D64B07781A70BE
:104ED00043698DB00C2B00D9BAE1D34A9B00D3585B
:104EE0009F46791ECBB2052B00D9ABE004244B01C1
:104EF000CE4A5B185B00D01801790D332143017154
:104F00009B18002103E00131082900D1C6E15A5C59
:104F1000FF2AF8D090008218C54B92009B183800E9
:104F20009B68C9B298478DE00122C24B1B6806936B
:104F3000134200D18CE102AB597C0223480701D413
:104F40004B081340BC4AD37002AB9B7CDB0679D57F
:104F5000917850780322B94B0092113200F0DAFDBB
:104F600070E002AB9C461220052200216044FEF74F
:104F700031F9B34B02AA138208239382AE4B00216E
:104F8000187806AAFFF766FB00285BD0AD4B082215
:104F90000493802300211B0306A80593FEF71AF94A
:104FA00004AB0893A34B06A80993A44B0A930723C9
:104FB0000B93FFF70DFF45E083689F787B1EDAB205
:104FC000052A3FD802225C01984DE41864002E198E
:104FD0003379002113433371974B1878FFF7F8FAB0
:104FE00002AB9C4612200522002160447679FEF730
:104FF000F1F8934B02AA138296823900285D06AA23
:10500000FFF728FB00281DD08E4B08220493902325
:1050100000215B0306A80593FEF7DCF802AB1F74C2
:1050200004AB0893834B06A80993844B0A93092386
:105030000B93FFF7CDFE05E07E4B1B680693DB026A
:1050400000D53AE10DB0F0BCBB46B246A946A04639
:10505000F0BD78480379092B00D01CE10522062514
:10506000724902E0D3B2AB42ECD253019B185B0011
:10507000CB181B790132DB07DC0F002BF2D1D2B247
:10508000551E6B015B195B00C9186B4B1D880D80A9
:1050900001255B884B800B792B430B71C37904ADE1
:1050A0004B71A023DB002B806A800021102206A810
:1050B0000594FEF78FF8614B06A80A93082308951C
:1050C0000B93FFF785FEBDE7FA2006244000FCF7AE
:1050D000FBFE5948594B8178564A4078009400F0BD
:1050E0003DFDAFE78022534D52006B889342A9D813
:1050F000554A04AE0492002206ACB280F38000212F
:1051000020000832FEF766F84C4B27700A930B23F9
:105110002000089609950B93FFF75AFE92E7791E37
:10512000CBB2052B00D98DE7424D4A013F4B5218B7
:10513000288952009918C880688906AC0881E889D6
:10514000082248812B7C20000B733F4B00210493E5
:1051500090231B030593FEF73DF804AB27700893DB
:10516000364B20000A930A2309950B93FFF730FE74
:1051700068E77A1ED3B2052B00D9A8E053019B182B
:105180005B009946294A91442A4BBA465A881D78B1
:105190009346ED189B44AB452FD901226B7890467E
:1051A0000B2B04D1EB7898462B78ED186B78042BF9
:1051B00000D047E75B465A1B4146280092B201F0F7
:1051C00073FB0600082800D83CE743460027A846A2
:1051D000174C03934B464246187851463300656896
:1051E000A84700283CD10137FFB21434032FF1D176
:1051F0004546AD19AB45D0D85746144B06AC049381
:1052000000231022002120000593FDF7E3FF04ABEB
:1052100027700893094B20000A930C230B93FFF788
:10522000D7FD0FE7AF5A0320F47D00106012022073
:10523000287E00106011022038040220E95200107C
:105240000705000080060001800600020009010039
:10525000224B5878002800D1F4E600F0EFFCF1E68C
:10526000039B4546002B0ED04C46AA789918C9B22C
:10527000A318587BFF2800D0E4E60132D2B25F7356
:105280008A42F5D1A14648463B003200290015303C
:1052900001F0F6FAADE700220525E1E60F4B58785C
:1052A000002817D1062F00D1CCE60D4B002B00D1E2
:1052B000C8E6380000E000BFC4E6084A094B917810
:1052C0005078072200920D3200F024FCBAE6002349
:1052D000994659E700F0B2FCE4E7C04638040220E2
:1052E00000000000E952001010B5C3780400002B44
:1052F00002D1FFF7E3FD10BD094A1378022B06D94E
:10530000084B58780028F6D000F098FCF3E70133FA
:1053100064201370FCF7D8FD2000FFF759FDEAE781
:10532000AF5A032038040220F0B54E464546574692
:10533000DE465A4BE0B59846594B8FB09946594FC7
:10534000594E05AD3C686269EFF3108172B613687F
:10535000002BFCD0BFF35F8FA1612000290001F07A
:10536000F3FA6269A369BFF35F8F0021116083F3D1
:105370001088002800D18AE06B78022B38D00CD836
:10538000002B12D028786A792979FFF7CDFB28798C
:105390000028D7D000F052FCD4E7032BD2D16B68A1
:1053A000002BCFD0A8689847CCE728782C796B7968
:1053B00030707470B370002C27D1FFF7E7F8FA2033
:1053C0004000FCF781FD3078FFF7E2F83078FFF716
:1053D000E1F80028B6D03078FFF7E8F802AB1C7689
:1053E000DC760323F07008A80D93FFF767FDA9E7AB
:1053F0007F242979A8780C40002813D1002C46D1AD
:10540000AA686979FFF70CFC9CE7FA2002244000A7
:10541000FCF75AFDB1787078244B254A009400F0CF
:105420009DFB8FE7431E9C46DBB2052B2FD86346BE
:105430005B0163441B195B00CA0943449B181A00B3
:1054400028320393D37893469C4601239A466346B9
:10545000524693435A46D370D3789C4604239A46C7
:105460006346524693435A46D370002CC8D0039BE0
:105470005C7D022C0BD8AB686A799A46A3009C46E7
:105480006444A4004C445346E468A0475AE70FB074
:10549000F0BCBB46B246A946A046F0BD6012022051
:1054A000287E0010F813022038040220E952001070
:1054B0006011022010B501F05DF9002801D0FFF75E
:1054C00033FF10BD0138C3B2052B05D843011B18AB
:1054D000034A5B00985C7047024B1878FBE7C046B4
:1054E0006012022038040220004870476011022038
:1054F0000138C3B20A0010B5052B10D8094B196842
:105500007F231340D2092B325B009B1842011218F3
:1055100052009818044BC01801F030F910BD00205B
:10552000FCE7C046EC130220601202200138C3B22F
:105530000A0010B5052B10D8094B19687F231340BA
:10554000D2092B325B009B184201121852009818A6
:10555000044BC01801F03AF910BD0020FCE7C0462A
:10556000EC13022060120220F0B5C64600B5451EBD
:105570000600E8B2984682B005280FD86B017F2458
:105580009C460C406544144F64006D006419C809C2
:105590003C1924182834E078C00704D5002002B054
:1055A00080BCB846F0BD01239C466346E0781843B2
:1055B0004346E070E85D009313000A003100FFF7F6
:1055C0009BF80028EBD10122E3789343E370E37862
:1055D00003329343E370E1E760120220F8B5431E03
:1055E000DAB205000E00052A12D85C01E4180D4F4E
:1055F00064003B193000D97801F004F9002805D087
:10560000E05D32002900FFF725F8F8BD0020FCE737
:10561000054C3000E17801F0F5F80028F6D020784C
:10562000EFE7C0466012022038040220F0B589B0CE
:105630006F4604000EA820C8120200881A43104EBC
:105640007A80B98008220021F88002A83E80FDF708
:10565000C1FD109B02A80693119B3C72079304970F
:105660000595FFF7B5FB109B002B01D009B0F0BDED
:10567000119B002BFAD0FB7A119A1370F6E7C04603
:1056800081060000421ED3B210B50400052B2FD8AE
:1056900053019B18174A5B009B180131C9B20729B7
:1056A00014D80A000D329B1804E00131C9B201334D
:1056B00008290DD01A78FF2AF7D0900082180E4BD7
:1056C00092009B1820009B68984710BD0829FCD1C8
:1056D0000A4B5878002808D1052CF6D8084B002B27
:1056E000F3D0200000E000BFEFE700F0A7FAF3E7F7
:1056F0000023D2E760120220287E00103804022026
:105700000000000070B5C37884B0002B12D101AC4A
:105710000578836800210C2220001E79FDF75AFDD0
:105720002800FFF7CFFE0021207020002571667150
:1057300001F0BEFF04B070BD10B5C47882B0002C7B
:105740000ED100780749821F53009B189B00DA1C7A
:105750005218C9184978012301940094FFF704FFF7
:1057600002B010BD3855032070B5C57888B0002D43
:105770001CD106780E4BB11F4A00521892009B189C
:105780000C4A02AC927800219A700B4B10220093C5
:10579000012320000193FDF71DFD6B460493074B89
:1057A0002000267006930795FFF712FB08B070BD26
:1057B000385503203C0F022023030800C157001076
:1057C000F0B5C4788BB0002C2AD105788368AA1F65
:1057D000197956005B79B6181A4F1B02B6000B43B5
:1057E000B9198A789A421DD00133DBB21A00511ED2
:1057F0008A41032152421140134A04AF0A4302AEC8
:105800000292002110223800B380F480FDF7E2FC00
:105810000E4B38003D70069608930994FFF7D8FAAE
:105820000BB0F0BDF21C497801232800D219019475
:105830000094FFF799FE0028F2D02800F15DFFF7F1
:1058400021FFEDE73855032020030800C157001061
:10585000F0B5C57889B0002D2BD101270678836873
:10586000B01F42001C79597912181C4B92009B18EA
:105870001B79090221431F421DD0631E9C41032353
:1058800064422340164C6A461C43FF2300940B409D
:1058900002AC9380D580002110222000FDF79AFCF5
:1058A0006B46267004930F4B200006930795FFF775
:1058B0008FFA09B0F0BD02AD0C2200212800FDF7DF
:1058C00089FC3000FFF7FEFD002128706F70280072
:1058D0002E716C7101F0ECFEEBE7C04638550320E9
:1058E000200304000557001070B5C37888B0002B62
:1058F00012D183681C79002C0ED10578AA1F5300A1
:105900009B181A4A9B009B18012216009B781E4088
:105910001A4216D19B0701D408B070BD02AC144BDB
:1059200010220021200000930196FDF753FC6B46E6
:10593000257004930F4B200006930796FFF748FA53
:10594000EAE7902302AE5B00002130000F320093A3
:105950000194FDF73FFC6B4635700493054B300016
:1059600006930794FFF734FAD6E7C0464055032064
:105970002001010039570010F0B54F46D646464683
:10598000C0B5C7788AB0002F37D10378826801206C
:1059900051799E1F9846137909029C4619430300CA
:1059A0007400544DA2199200AA1892791340994696
:1059B000104228D10220030013409A46104264D1BD
:1059C000042003001340994610423AD108200300F6
:1059D00013409A46104200D07BE0D20600D580E00A
:1059E0000023A419A400E21CAA182D1969784046C6
:1059F000019300930133FFF7B7FD0AB0E0BCBA464C
:105A0000B146A846F0BD63465A1E934103225B424D
:105A10001A40394B02AC13430293FF2304AD0B40F1
:105A2000A380102200212800E780FDF7D3FB434626
:105A30002B70324B2800069408930997FFF7C8F99A
:105A4000DBE763465A1E934103225B421A402C4B0C
:105A500013430293FF2302AF0B40BB805346FB80EE
:105A600004AB9946102200211800FDF7B3FB4B460A
:105A700042461A704A469F60224B484613614B4685
:105A800052465A61FFF7A4F9AAE763465A1E9341AA
:105A900003225B421A401C4B13430293FF2302AFC5
:105AA0000B40BB804B46FB8004AB9A461022002182
:105AB0001800FDF78FFB534642461A7052469F600E
:105AC000104B5046136153464A465A61FFF780F91E
:105AD00086E763465A1E934103225B421A400B4BF2
